:020000040801F1
:100000005555AAAA000001080004010800040000D8
:1000100000000000000000000000000000000000E0
:1000200000000000000000000000000000000000D0
:1000300000000000000000000000000000000000C0
:1000400000000000000000000000000000000000B0
:1000500000000000000000000000000000000000A0
:08006000000000000000000098
:1004000000000220D51E0108ED1B0108F31B0108A6
:10041000F91B0108FF1B0108051C01080000000072
:100420000000000000000000000000000B1C01089C
:10043000191C010800000000271C0108351C0108D8
:10044000251F0108251F0108251F0108251F010878
:10045000251F0108251F0108251F0108251F010868
:10046000251F0108251F0108251F0108251F010858
:10047000251F0108251F0108251F0108251F010848
:10048000251F0108251F0108411C0108000000006C
:10049000000000000000000000000000251F01080F
:1004A000251F0108251F0108251F0108251F010818
:1004B000251F0108551C0108251F0108251F0108DB
:1004C000251F0108251F0108251F0108691C0108B7
:1004D000251F01087D1C0108251F010800000000E0
:1004E000251F0108251F0108251F01080000000025
:1004F000000000000000000000000000251F0108AF
:1005000000000000911C0108251F0108251F01089B
:1005100000000000000000000000000000000000DB
:10052000A51C0108251F0108B91C0108CD1C0108E4
:10053000251F01080000000000000000000000006E
:10054000000000000000000000000000251F01085E
:10055000E11C0108F51C0108091D0108251F0108FF
:10056000251F0108251F01080000000000000000F1
:10057000000000000000000000000000000000007B
:1005800000000000251F010800000000000000001E
:08059000251F0108251F0108C9
:100598000000000000000000000000000000000053
:1005A8000000000000000000000000000000000043
:1005B8000000000000000000000000000000000033
:1007F8000000000000000000563231303231315222
:1008080032000000000000000000000000000000AE
:1008180000000000000000004669726D7761726593
:1008280000000000000000000000000000000000C0
:080838000000000000000000B8
:1008400010B5054C237833B9044B13B10448AFF30A
:1008500000800123237010BD000300200000000071
:10086000D886020808B5034B1BB103490348AFF310
:10087000008008BD0000000004030020D8860208A4
:1008800010F8012B11F8013B012A28BF9A42F7D03A
:10089000D01A7047034613F8012B002AFBD1181A0F
:1008A0000138704700000000000000000000000058
:1008B00001F0FF01102A2BDB10F0070F08D010F811
:1008C000013B013A8B422DD010F0070F42B3F6D115
:1008D000F0B441EA012141EA014122F007047FF02E
:1008E00000070023F0E80256083C85EA010586EA85
:1008F000010685FA47F5A3FA87F586FA47F6A5FAC1
:1009000087F68EB9EED1F0BC01F0FF0102F00702CC
:1009100032B110F8013B013A83EA010313B1F8D177
:100920000020704701387047002D06BF3546033858
:10093000073815F0010F07D1013015F4807F02BF91
:10094000013015F4C03F0130F0BC0138704700BFE2
:1009500081F0004102E000BF83F0004330B54FEA70
:1009600041044FEA430594EA050F08BF90EA020FDD
:100970001FBF54EA000C55EA020C7FEA645C7FEA70
:10098000655C00F0E2804FEA5454D4EB5555B8BF93
:100990006D420CDD2C4480EA020281EA030382EA04
:1009A000000083EA010180EA020281EA0303362D96
:1009B00088BF30BD11F0004F4FEA01314FF4801C69
:1009C0004CEA113102D0404261EB410113F0004F7B
:1009D0004FEA03334CEA133302D0524263EB430332
:1009E00094EA050F00F0A780A4F10104D5F1200ED0
:1009F0000DDB02FA0EFC22FA05F2801841F100012B
:100A000003FA0EF2801843FA05F359410EE0A5F1FE
:100A100020050EF1200E012A03FA0EFC28BF4CF02F
:100A2000020C43FA05F3C01851EBE37101F00045E5
:100A300007D54FF0000EDCF1000C7EEB00006EEBF2
:100A40000101B1F5801F1BD3B1F5001F0CD349087C
:100A50005FEA30004FEA3C0C04F101044FEA4452D3
:100A600012F5800F80F09A80BCF1004F08BF5FEA5A
:100A7000500C50F1000041EB045141EA050130BD3A
:100A80005FEA4C0C404141EB0101013C28BFB1F54C
:100A9000801FE9D291F0000F04BF01460020B1FA97
:100AA00081F308BF2033A3F10B03B3F120020CDA6A
:100AB0000C3208DD02F1140CC2F10C0201FA0CF048
:100AC00021FA02F10CE002F11402D8BFC2F1200CAD
:100AD00001FA02F120FA0CFCDCBF41EA0C01904063
:100AE000E41AA2BF01EB0451294330BD6FEA0404AC
:100AF0001F3C1CDA0C340EDC04F11404C4F1200297
:100B000020FA04F001FA02F340EA030021FA04F3A8
:100B100045EA030130BDC4F10C04C4F1200220FAFF
:100B200002F001FA04F340EA0300294630BD21FA3D
:100B300004F0294630BD94F0000F83F4801306BF03
:100B400081F480110134013D4EE77FEA645C18BFF7
:100B50007FEA655C29D094EA050F08BF90EA020F8E
:100B600005D054EA000C04BF1946104630BD91EA86
:100B7000030F1EBF0021002030BD5FEA545C05D189
:100B80004000494128BF41F0004130BD14F58004C8
:100B90003CBF01F5801130BD01F0004545F0FE413C
:100BA00041F470014FF0000030BD7FEA645C1ABF71
:100BB000194610467FEA655C1CBF0B46024650EAA8
:100BC000013406BF52EA033591EA030F41F40021D4
:100BD00030BD00BF90F0000F04BF0021704730B55A
:100BE0004FF4806404F132044FF000054FF000012F
:100BF00050E700BF90F0000F04BF0021704730B5F0
:100C00004FF4806404F1320410F0004548BF4042C4
:100C10004FF000013EE700BF42004FEAE2014FEA19
:100C200031014FEA02701FBF12F07F4393F07F4FF4
:100C300081F06051704732F07F4208BF704793F0F7
:100C40007F4F04BF41F40021704730B54FF460740A
:100C500001F0004521F000411CE700BF50EA01020D
:100C600008BF704730B54FF000050AE050EA0102B6
:100C700008BF704730B511F0004502D5404261EB26
:100C800041014FF4806404F132045FEA915C3FF467
:100C9000D8AE4FF003025FEADC0C18BF03325FEA04
:100CA000DC0C18BF033202EBDC02C2F1200300FAB5
:100CB00003FC20FA02F001FA03FE40EA0E0021FADA
:100CC00002F11444BDE600BF70B54FF0FF0C4CF4C8
:100CD000E06C1CEA11541DBF1CEA135594EA0C0F7A
:100CE00095EA0C0F00F0DEF82C4481EA030621EAB5
:100CF0004C5123EA4C5350EA013518BF52EA0335F0
:100D000041F4801143F4801338D0A0FB02CE4FF0A1
:100D10000005E1FB02E506F00042E0FB03E54FF0D1
:100D20000006E1FB03569CF0000F18BF4EF0010EC9
:100D3000A4F1FF04B6F5007F64F5407404D25FEAC5
:100D40004E0E6D4146EB060642EAC62141EA555178
:100D50004FEAC52040EA5E504FEACE2EB4F1FD0CBA
:100D600088BFBCF5E06F1ED8BEF1004F08BF5FEA38
:100D7000500E50F1000041EB045170BD06F00046EA
:100D800046EA010140EA020081EA0301B4EB5C0497
:100D9000C2BFD4EB0C0541EA045170BD41F480118F
:100DA0004FF0000E013C00F3AB8014F1360FDEBFB4
:100DB000002001F0004170BDC4F10004203C35DA90
:100DC0000C341BDC04F11404C4F1200500FA05F313
:100DD00020FA04F001FA05F240EA020001F00042B4
:100DE00021F0004110EBD37021FA04F642EB06012A
:100DF0005EEA430E08BF20EAD37070BDC4F10C0454
:100E0000C4F1200500FA04F320FA05F001FA04F217
:100E100040EA020001F0004110EBD37041F1000103
:100E20005EEA430E08BF20EAD37070BDC4F120050E
:100E300000FA05F24EEA020E20FA04F301FA05F276
:100E400043EA020321FA04F001F0004121FA04F21E
:100E500020EA020000EBD3705EEA430E08BF20EAEE
:100E6000D37070BD94F0000F0FD101F00046400028
:100E700041EB010111F4801F08BF013CF7D041EAAA
:100E8000060195F0000F18BF704703F000465200AE
:100E900043EB030313F4801F08BF013DF7D043EA7F
:100EA0000603704794EA0C0F0CEA135518BF95EA35
:100EB0000C0F0CD050EA410618BF52EA4306D1D1BC
:100EC00081EA030101F000414FF0000070BD50EADB
:100ED000410606BF1046194652EA430619D094EA65
:100EE0000C0F02D150EA013613D195EA0C0F05D14F
:100EF00052EA03361CBF104619460AD181EA0301A3
:100F000001F0004141F0FE4141F470014FF000005A
:100F100070BD41F0FE4141F4780170BD70B54FF0F5
:100F2000FF0C4CF4E06C1CEA11541DBF1CEA135575
:100F300094EA0C0F95EA0C0F00F0A7F8A4EB050457
:100F400081EA030E52EA03354FEA013100F088804E
:100F50004FEA03334FF0805545EA131343EA126317
:100F60004FEA022245EA111545EA10654FEA0026CC
:100F70000EF000419D4208BF964244F1FD0404F585
:100F8000407402D25B084FEA3202B61A65EB0305E1
:100F90005B084FEA32024FF480104FF4002CB6EB9E
:100FA000020E75EB030E22BFB61A754640EA0C001E
:100FB0005B084FEA3202B6EB020E75EB030E22BF5E
:100FC000B61A754640EA5C005B084FEA3202B6EB9F
:100FD000020E75EB030E22BFB61A754640EA9C005E
:100FE0005B084FEA3202B6EB020E75EB030E22BF2E
:100FF000B61A754640EADC0055EA060E18D04FEAEC
:10100000051545EA16754FEA06164FEAC30343EA8B
:1010100052734FEAC2025FEA1C1CC0D111F4801F58
:101020000BD141EA00014FF000004FF0004CB6E751
:1010300011F4801F04BF01430020B4F1FD0C88BFF0
:10104000BCF5E06F3FF6AFAEB5EB030C04BFB6EBFB
:10105000020C5FEA500C50F1000041EB045170BDEE
:101060000EF0004E4EEA113114EB5C04C2BFD4EB1B
:101070000C0541EA045170BD41F480114FF0000E9F
:10108000013C90E645EA060E8DE60CEA135594EA1B
:101090000C0F08BF95EA0C0F3FF43BAF94EA0C0F1E
:1010A0000AD150EA01347FF434AF95EA0C0F7FF493
:1010B00025AF104619462CE795EA0C0F06D152EAE7
:1010C00003353FF4FDAE1046194622E750EA4106CB
:1010D00018BF52EA43067FF4C5AE50EA41047FF4DC
:1010E0000DAF52EA43057FF4EBAE12E74FF0FF3C41
:1010F00006E000BF4FF0010C02E000BF4FF0010C12
:101100004DF804CD4FEA410C7FEA6C5C4FEA430C8A
:1011100018BF7FEA6C5C1BD001B050EA410C0CBFD9
:1011200052EA430C91EA030F02BF90EA020F00203B
:10113000704710F1000F91EA030F58BF994208BFA2
:1011400090422CBFD8176FEAE37040F0010070475F
:101150004FEA410C7FEA6C5C02D150EA013C07D1B6
:101160004FEA430C7FEA6C5CD6D152EA033CD3D001
:101170005DF8040B704700BF8446104662468C46FB
:101180001946634600E000BF01B5FFF7B7FF00282E
:1011900048BF10F1000F01BD4DF808EDFFF7F4FF57
:1011A0000CBF012000205DF808FB00BF4DF808EDE2
:1011B000FFF7EAFF34BF012000205DF808FB00BF05
:1011C0004DF808EDFFF7E0FF94BF012000205DF827
:1011D00008FB00BF4DF808EDFFF7CEFF94BF0120DC
:1011E00000205DF808FB00BF4DF808EDFFF7C4FFD5
:1011F00034BF012000205DF808FB00BF4FEA410C1E
:101200007FEA6C5C02D150EA013C0AD14FEA430C00
:101210007FEA6C5C02D152EA033C02D14FF000003D
:1012200070474FF0010070474FEA410212F500127B
:1012300015D211D56FF47873B3EB625212D94FEA1D
:10124000C12343F0004343EA505311F0004F23FA07
:1012500002F018BF404270474FF00000704750EA5C
:10126000013005D111F0004008BF6FF00040704719
:101270004FF00000704700BF4A0011D212F5001273
:1012800011D20DD56FF47873B3EB62520ED44FEADE
:10129000C12343F0004343EA505323FA02F070475E
:1012A0004FF00000704750EA013002D14FF0FF309C
:1012B00070474FF0000070474FEA4102B2F1E0433F
:1012C00024BFB3F5001CDCF1FE5C0DD901F0004C2D
:1012D0004FEAC0024CEA5070B2F1004F40EB83007D
:1012E00008BF20F00100704711F0804F21D113F1A9
:1012F0003872BCBF01F00040704741F480114FEAE2
:101300005252C2F11802C2F1200C10FA0CF320FA6A
:1013100002F018BF40F001004FEAC1234FEAD32387
:1013200003FA0CFC40EA0C0023FA02F34FEA4303F1
:10133000CCE77FEA625307D150EA01331EBF4FF07A
:10134000FE4040F44000704701F0004040F0FE4095
:1013500040F40000704700BF53B94AB9002908BFE4
:1013600000281CBF4FF0FF314FF0FF3000F0AAB94A
:10137000ADF1080C6DE904CE00F03CF8DDF804E0B6
:10138000DDE9022304B0704738B50022002304468B
:101390000D46FFF70BFF28B920462946BDE8384027
:1013A00000F00AB8204605F1004100F005F840427F
:1013B00061EB410138BD00BFD0B50C4B00220646A1
:1013C0000F46FFF781FCFFF757FF0446FFF702FCCB
:1013D000074B0022FFF778FC02460B4630463946A1
:1013E000FFF7BAFAFFF748FF2146D0BD0000F03DF5
:1013F0000000F0412DE9F047089D04468E46002B81
:101400004DD18A42944669D9B2FA82F252B101FAB8
:1014100002F3C2F1200120FA01F10CFA02FC41EAC8
:10142000030E94404FEA1C48210CBEFBF8F61FFA4D
:101430008CF708FB16E341EA034306FB07F19942E8
:101440000AD91CEB030306F1FF3080F01F8199429B
:1014500040F21C81023E63445B1AA4B2B3FBF8F075
:1014600008FB103344EA034400FB07F7A7420AD9FC
:101470001CEB040400F1FF3380F00A81A74240F224
:1014800007816444023840EA0640E41B00261DB18F
:10149000D4400023C5E900433146BDE8F0878B42C4
:1014A00009D9002D00F0EF800026C5E90001304683
:1014B0003146BDE8F087B3FA83F6002E4AD18B425D
:1014C00002D3824200F2F980841A61EB0303012007
:1014D0009E46002DE0D0C5E9004EDDE702B9FFDEF3
:1014E000B2FA82F2002A40F09280A1EB0C014FEA9E
:1014F0001C471FFA8CFE0126200CB1FBF7F307FBFB
:10150000131140EA01410EFB03F0884208D91CEB9D
:10151000010103F1FF3802D2884200F2CB8043463A
:10152000091AA4B2B1FBF7F007FB101144EA014419
:101530000EFB00FEA64508D91CEB040400F1FF31A8
:1015400002D2A64500F2BB800846A4EB0E0440EA96
:1015500003409CE7C6F12007B34022FA07FC4CEA9F
:10156000030C20FA07F401FA06F31C43F9404FEA92
:101570001C4900FA06F3B1FBF9F8200C1FFA8CFEA7
:1015800009FB181140EA014108FB0EF0884202FAFB
:1015900006F20BD91CEB010108F1FF3A80F08880BC
:1015A000884240F28580A8F102086144091AA4B279
:1015B000B1FBF9F009FB101144EA014100FB0EFEFA
:1015C0008E4508D91CEB010100F1FF346CD28E4529
:1015D0006AD90238614440EA0840A0FB0294A1EBBA
:1015E0000E01A142C846A64656D353D05DB1B3EB17
:1015F000080261EB0E0101FA07F722FA06F3F14047
:101600001F43C5E9007100263146BDE8F087C2F1ED
:101610002003D8400CFA02FC21FA03F39140014365
:101620004FEA1C471FFA8CFEB3FBF7F007FB10369E
:101630000B0C43EA064300FB0EF69E4204FA02F44A
:1016400008D91CEB030300F1FF382FD29E422DD99D
:10165000023863449B1B89B2B3FBF7F607FB1633D2
:1016600041EA034106FB0EF38B4208D91CEB010152
:1016700006F1FF3816D28B4214D9023E6144C91AD2
:1016800046EA004638E72E46284605E70646E3E6E2
:101690001846F8E64B45A9D2B9EB020864EB0C0EEC
:1016A0000138A3E74646EAE7204694E74046D1E7FB
:1016B000D0467BE7023B614432E7304609E76444A9
:1016C000023842E7704700BF80B500AF4FF4614178
:1016D000002000F0A9FE4FF46141002005F000FE5B
:1016E000044803F07FFA0449044800F0E5FF00BF16
:1016F00080BD00BF45170108411901080087020895
:1017000080B582B000AF00F0BAF9786000F0B7F9A8
:1017100002467B68D31AB3F57A7F02D300F0AFF9A3
:10172000786000F005F803F0C9FA05F0E1FBEDE799
:1017300080B500AF01F06CF904F09AFC05F060F997
:1017400000BF80BD80B584B002AF0346FB7102F0DC
:101750009DFA034683F00103DBB2002B40F0D680F4
:1017600002F0BEFC0346002B00F0D180002002F006
:10177000CBFA032003F092F8664B4FF4FC62002191
:10178000002002F0BBFE032003F088F8624B9B6848
:101790001846FFF741FA02460B46CDE900235F4B9E
:1017A0004FF6FF721021002002F0A8FE5C4B9B69EF
:1017B0005C4AA2FB0323DB0800935B4B4FF6FF72EE
:1017C0002021002002F09AFE584B5B6A1846FFF772
:1017D00023FA02460B46CDE90023554B4FF6FF7224
:1017E0003021002002F08AFE06F0BAF803461A46BD
:1017F000504B1A704F4B1B781A464021002006F0C0
:1018000065F800F0F9FC0346013B0F2B3BD801A221
:1018100052F823F0551801085F18010887180108CD
:101820006918010887180108871801088718010836
:10183000731801088718010887180108871801081C
:1018400087180108871801088718010887180108F8
:101850007D1801080121082002F052F853E001210F
:10186000092002F04DF84EE001210A2002F048F86C
:1018700049E001210B2002F043F844E001210C2053
:1018800002F03EF83FE04FF6FF730193052300930B
:10189000112323226E21002002F0DEFA4FF4784358
:1018A0000193052300930F2321226F21012002F0D1
:1018B000CDFB002002F0F2FF1F4B4FF6FF727321A9
:1018C000052002F01BFE4FF6FF73019305230093E2
:1018D000112323226E21282002F0BEFA4FF4784310
:1018E0000193052300930F2321226F21292002F069
:1018F000ADFB002002F0D2FF104B4FF6FF727321B8
:101900002D2002F0FBFD02F001FC00E000BF0837D3
:10191000BD4680BD088702086807002024870208AA
:1019200090CC0020CDCCCCCC3C87020844CE00200B
:10193000508702081C0300206087020864870208A1
:1019400080B584B000AF78600023FB737B681B8890
:10195000012B1ED17B685B6926490020984703460E
:10196000002B16D0244BBB60BB681946234800F0FF
:1019700093FDBB6820331946214800F08DFD0020FF
:1019800003F0ACFE034619461E4800F085FD012316
:10199000FB737B681B88012B0CD17B685B691A4940
:1019A000002098470346002B04D0002003F034FEAB
:1019B0000123FB737B681B88012B0DD17B685B695E
:1019C0001249002098470346002B05D00021002033
:1019D00003F094FE0123FB73FB7B83F00103DBB276
:1019E000002B02D00A4800F057FD00BF1037BD465B
:1019F00080BD00BF6C8702080004000874870208DD
:101A0000888702089C870208B0870208BC87020802
:101A1000C487020880B582B000AF0AF0B9FE00F0BA
:101A200035F800237B600F4B1B6B0E4A43F0040319
:101A300013630C4B1B6B03F004037B607B68002378
:101A40003B60084B1B6B074A43F080031363054B55
:101A50001B6B03F080033B603B6800BF0837BD464B
:101A600080BD00BF0038024080B582B000AF786012
:101A700078680AF0FFFE00BF0837BD4680BD80B51C
:101A800000AF0AF0EBFE0346184680BD80B59AB061
:101A900000AF07F1380330220021184612F062FB34
:101AA00007F1240300221A605A609A60DA601A6112
:101AB00007F10C0300221A605A609A60DA601A611A
:101AC0005A610023BB60304B1B6C2F4A43F080539C
:101AD00013642D4B1B6C03F08053BB60BB68002369
:101AE0007B602A4B1B68294A43F440431360274B11
:101AF0001B6803F440437B607B680923BB634FF49E
:101B00008033FB630123FB6402233B654FF48003B6
:101B10007B651923BB65C023FB6502233B66042359
:101B20007B6607F1380318460CF0DEFE0346002BF7
:101B300001D000F02DF80F237B620223BB6200234B
:101B4000FB624FF480533B6300237B6307F1240364
:101B5000032118460DF036F90346002B01D000F0A2
:101B600017F80223FB604FF40073FB6107F10C03CD
:101B700018460DF007FB0346002B01D000F008F8D3
:101B800000BF6837BD4680BD00380240007000408D
:101B900080B400AF72B600BFFEE7000080B483B02F
:101BA00000AF00237B60104B5B6C0F4A43F4804313
:101BB00053640D4B5B6C03F480437B607B680023B4
:101BC0003B60094B1B6C084A43F080531364064B7F
:101BD0001B6C03F080533B603B6800BF0C37BD4675
:101BE0005DF8047B704700BF0038024080B400AF4E
:101BF000FEE780B400AFFEE780B400AFFEE780B43C
:101C000000AFFEE780B400AFFEE780B400AF00BFD6
:101C1000BD465DF8047B704780B400AF00BFBD4691
:101C20005DF8047B704780B400AF00BFBD465DF82F
:101C3000047B704780B500AF0AF0FCFD00BF80BD9B
:101C400080B500AF02480AF07CFE00BF80BD00BF37
:101C50009CCD002080B500AF02480FF093FD00BF7F
:101C600080BD00BF50CC002080B500AF02480FF00F
:101C700075FA00BF80BD00BFE4CC002080B500AF86
:101C8000024810F0C7FC00BF80BD00BF3CD200205E
:101C900080B500AF02480DF0E7FE00BF80BD00BF79
:101CA0000CCB002080B500AF02480BF00BFE00BF4C
:101CB00080BD00BFE4CD002080B500AF02480BF02E
:101CC00001FE00BF80BD00BFDCD2002080B500AFA8
:101CD00002480BF0F7FD00BF80BD00BFF0CB002035
:101CE00080B500AF02480BF0EDFD00BF80BD00BF26
:101CF0003CCD002080B500AF02480BF0E3FD00BFF3
:101D000080BD00BF90CB002080B500AF02480BF033
:101D1000D9FD00BF80BD00BF7CD2002080B400AFE1
:101D200001231846BD465DF8047B704780B582B03C
:101D300000AF7860396012F0CDF9034616221A60C0
:101D40004FF0FF3318460837BD4680BD80B582B0DE
:101D500000AF78604FF0FF317868FFF7E7FFFEE7EC
:101D600080B586B000AFF860B9607A6000237B610F
:101D70000AE0AFF300800146BB685A1CBA60CAB2E1
:101D80001A707B6901337B617A697B689A42F0DB68
:101D90007B6818461837BD4680BD80B586B000AF59
:101DA000F860B9607A6000237B6109E0BB685A1C67
:101DB000BA601B781846AFF300807B6901337B6102
:101DC0007A697B689A42F1DB7B6818461837BD4612
:101DD00080BD80B483B000AF78604FF0FF33184609
:101DE0000C37BD465DF8047B704780B483B000AF0C
:101DF000786039603B684FF400525A6000231846FF
:101E00000C37BD465DF8047B704780B483B000AFEB
:101E10007860012318460C37BD465DF8047B704797
:101E200080B485B000AFF860B9607A6000231846CE
:101E30001437BD465DF8047B7047000080B586B05E
:101E400000AF7860144A154BD31A7B617B693B6104
:101E5000134B1B68002B02D1114B124A1A60104B16
:101E60001A687B6813443A699A4207D212F032F931
:101E700003460C221A604FF0FF3309E0084B1B6841
:101E8000FB60074B1A687B681344054A1360FB68C4
:101E900018461837BD4680BD00000220000400002F
:101EA00020030020D8D3002080B400AF084BD3F823
:101EB0008830074A43F47003C2F88830044B4FF06F
:101EC00000629A6000BFBD465DF8047B704700BFAA
:101ED00000ED00E0DFF834D0002103E00C4B5B584C
:101EE000435004310B480C4B42189A42F6D30B4A2C
:101EF00002E0002342F8043B094B9A42F9D3FFF772
:101F0000D3FF12F0EDF812F0D9F87047000002206C
:101F10006470030800000020DC02002000030020A1
:101F2000D4D30020FEE780B487B000AFF860B9607A
:101F30007A600123FB75FB6800221A60FB680022AF
:101F40005A60FB687A689A60FB68BA68DA60FB7D61
:101F500018461C37BD465DF8047B704780B487B0D7
:101F600000AFF860B9607A600123FB7500233B6124
:101F700026E0FB68DB68002B09D0FB68DA68FB68A9
:101F80005B681A443B69B9680B4412781A70FB68A5
:101F90005A68FB681B689A420CD0FB685B68013387
:101FA000FA689268B3FBF2F101FB02F29A1AFB683D
:101FB0005A6002E00023FB7506E03B6901333B6198
:101FC0003B697A689A42D4D8FB7D18461C37BD46D7
:101FD0005DF8047B704780B485B000AF78607B68A3
:101FE0001A687B685B68D31A7A689268B3FBF2F16F
:101FF00001FB02F29B1AFB60FB6818461437BD46D2
:102000005DF8047B7047000080B400AF144BDB68C0
:10201000134A23F08073D360114BDB68104A43F0FE
:102020008073D3600F4B1B680E4A23F001031360CB
:102030000C4B1B680B4A43F001031360094B002251
:102040005A6000BF00BF00BF064B5B68002B01D089
:10205000002300E001231846BD465DF8047B70476D
:10206000F0ED00E0001000E080B588B000AF012383
:10207000FB763B1D00221A605A609A60DA601A6192
:1020800000233B60204B1B6B1F4A43F0010313638B
:102090001D4B1B6B03F001033B603B680023BB60DF
:1020A0000023FB6123E01949FA6913465B001344DE
:1020B000DB000B4404331B687B601449FA69134648
:1020C0005B001344DB000B4408331B68FB600F49C3
:1020D000FA6913465B001344DB000B441B683A1D8E
:1020E000114618460CF04CF9FB690133FB61FB69A2
:1020F000042BD8DD0649074800F0DEFAFB7E1846BF
:102100002037BD4680BD00BF0038024004000020DB
:1021100001230108D087020880B584B000AF0346D0
:10212000FB710023FB73FA7913465B001344DB0059
:10213000304A1344BB60FB79042B01D9002354E0DF
:10214000BB689B7B002B02D0012B18D04CE0BB68F6
:102150001A68BB685B689BB2194610460CF078FBA6
:1021600003461A46BB681B7B9A423AD1FFF787FCAD
:102170000246BB685A61BB6801229A7331E0BB68B2
:102180001A68BB685B689BB2194610460CF060FB8E
:1021900003461A46BB681B7B9A4214D1FFF76FFCBB
:1021A0000246BB685B69D21ABB681B699A421AD99E
:1021B000BB6801225A73BB685B7B002B14BF0123F1
:1021C0000023FB730FE0BB6800229A73BB680022F8
:1021D0005A73BB685B7B002B14BF01230023FB7386
:1021E00001E000BF00E000BFFB7B18461037BD4692
:1021F00080BD00BF0400002080B584B000AF002384
:10220000FB730023FB710023BB606FE00123FB71B4
:10221000BA6813465B001344DB00384A13443B6042
:10222000BB68042B01DD002364E03B689B7B002B33
:1022300002D0012B18D056E03B681A683B685B68F7
:102240009BB2194610460CF003FB03461A463B6846
:102250001B7B9A4244D1FFF712FC02463B685A614D
:102260003B6801229A733BE03B681A683B685B68F5
:102270009BB2194610460CF0EBFA03461A463B682F
:102280001B7B9A4216D1FFF7FAFB02463B685B695B
:10229000D21A3B681B699A4224D93B6801225A73BF
:1022A000FA79BB6802FA03F3FB71FA7BFB791343FB
:1022B000FB7317E03B6800229A733B6800225A7355
:1022C000FA79BB6802FA03F3FB7197F9073083F0E0
:1022D00011035BB2FB71FA7BFB791340FB7301E0E6
:1022E00000BF00E000BFBB680133BB60BB68042BCC
:1022F0008CDDFB7B18461037BD4680BD04000020F6
:1023000080B584B000AF78600023FB737B681B88C6
:10231000012B28D17B685B69194900209847034647
:10232000002B20D018E00023BB600CE0BB68DBB2C0
:102330001846FFF7F1FE03461946124800F0ACF8C4
:10234000BB680133BB60BB68042BEFDD0E4800F0B7
:10235000A3F86420FFF788FB00F098F90346002BF0
:10236000E1D10123FB73FB7B83F00103DBB2002B84
:1023700002D0064800F090F800BF1037BD4680BD7F
:10238000D8870208E0870208E4870208E887020885
:1023900080B500AF1B4B00221A721A4B00225A72F2
:1023A000184B00221A74174B002283F89521154B05
:1023B000002283F89621134B002283F89721114BBA
:1023C000002283F894210F4B0F4AC3F834240D4B9D
:1023D0000E4AC3F838240B4B0D4AC3F83C24094B72
:1023E0000C4AC3F84024074800F03CF80A490B485F
:1023F00000F062F90A490B4800F05EF90123184623
:1024000080BD00BF2403002049250108992501084B
:10241000F1250108392601084D270108F88702082F
:10242000BD2701080088020880B582B000AF0346CE
:102430003960FB710A4AFB791370094A3B685360A3
:10244000FB793968184604F04BFF03461A46044BE3
:102450001A72034B1B7A18460837BD4680BD00BF71
:102460002403002080B483B000AF78607B68002232
:1024700083F8E6227B68002283F8E5227B683F220E
:1024800083F8E4227B68002283F8A42200BF0C3783
:10249000BD465DF8047B70470FB480B584B000AFD3
:1024A00007F11C037B600D4BFB60FB6803F111001F
:1024B0007B68BA694FF4807113F0E4FAB860FB6886
:1024C0001878FB681133BA68194605F087F800BF21
:1024D0001037BD46BDE8804004B07047240300209B
:1024E00080B485B000AF78600023FB8118E0FB89E1
:1024F0007A6813441B787B737B7B002B14D07B7B27
:10250000602B05D97B7B7A2B02D87B7B203B7B73AE
:10251000FB897A6813447A7B1A70FB890133FB814B
:10252000FB890F2BE3D900E000BFFB89102B05D1FD
:10253000FB89013B7A68134400221A7000BF1437EC
:10254000BD465DF8047B704780B584B000AF03469C
:10255000FB710023FB600F4BBB60FB799AB2BB6839
:10256000B3F82C349A4201D300230EE0BB68D3F8B1
:102570003024FB799B0013441B680022002118467D
:1025800013F04AFA0346FB60FB6818461037BD4655
:1025900080BD00BF2403002080B584B000AF034697
:1025A000FB714FF00003FB60104BBB60FB799AB2EC
:1025B000BB68B3F82C349A4202D34FF000030DE00D
:1025C000BB68D3F83024FB799B0013441B680021BF
:1025D000184613F053F987ED030AFB6807EE903AAB
:1025E000B0EE670A1037BD4680BD00BF240300204F
:1025F00080B485B000AF0346FB710023FB600D4B38
:10260000BB60FB799AB2BB68B3F82C349A4201D311
:10261000002308E0BB68D3F83024FB799B00134407
:102620001B68FB60FB6818461437BD465DF8047BE9
:10263000704700BF2403002080B584B000AF03467C
:102640003960FB710023FB730F4BBB60FB799AB2BF
:10265000BB68B3F82C349A4201D3002310E0BB6866
:10266000D3F83024FB799B0013441B681946386863
:10267000FEF706F90346002B01D10123FB73FB7B18
:1026800018461037BD4680BD2403002080B582B0B7
:1026900000AF084B7B607B681B78184604F032FF64
:1026A0000346002B01D1012300E000231846083720
:1026B000BD4680BD2403002080B586B000AF7860A1
:1026C00039600123FB75204B3B613B69B3F8E8326D
:1026D0000F2B01D9002332E03B69B3F8E832FB81CC
:1026E000FA8913469B0013449B0003F53A733A6939
:1026F000134404337968184612F096FAFA89396956
:1027000013469B0013449B000B4403F53F733A6848
:102710001A60FA8913469B0013449B0003F53A7331
:102720003A69134404331846FFF7DAFE3B69B3F8FD
:10273000E83201339AB23B69A3F8E822FB7D1846E0
:102740001837BD4680BD00BF2403002080B584B08B
:1027500000AF7860154BBB601548FFF79DFE15482C
:10276000FFF79AFE0023FB6012E0FA6813469B0015
:1027700013449B0003F53A73BA68134404331846B4
:10278000FFF78AFE0A48FFF787FEFB680133FB600C
:10279000BB68B3F8E8321A46FB689342E5DB0648AB
:1027A000FFF77AFE00BF1037BD4680BD240300202E
:1027B000C8880208CC880208EC88020880B58CB072
:1027C00000AF78601023BB627B681B887B617B68ED
:1027D0005B683B617B681B88002B03D14048FFF797
:1027E0005BFE7AE07B69012B09DD3B6904331B68E2
:1027F00000220021184613F00FF90346BB623B6923
:102800001B6800220021184613F006F903467B627C
:102810007B6ABB613348FFF73FFE0023FB6258E051
:10282000FB6A03F00303002B04D17B6A19462E4890
:10283000FFF732FE7B6A1B6819462C48FFF72CFE17
:10284000FB6A5A4203F0030302F0030258BF5342EB
:10285000032B38D12648FFF71FFE00233B622CE0F4
:10286000BB691B68FB600023FB611DE007F10C02E4
:10287000FB6913441B781F2B10D907F10C02FB696D
:1028800013441B787E2B09D807F10C02FB69134413
:102890001B7819461748FFF7FFFD02E01648FFF7BF
:1028A000FBFDFB690133FB61FB69032BDEDDBB69CB
:1028B0000433BB613B6A01333B623B6A032BCFDDD0
:1028C0000E48FFF7E9FD7B6A04337B62FB6A013344
:1028D000FB62FA6ABB6A9A42A2DB3037BD4680BD12
:1028E0000C89020820890208288902083489020814
:1028F0003C89020840890208448902084889020884
:1029000080B582B000AF0523FB71012239493A48F6
:1029100002F007FC394B00221A7002E0642009F033
:10292000A9FF09F09BFF034640F6B7329342F5D961
:10293000314802F0E4FC03461A46314B1A7019E0A4
:10294000642009F097FF2D4B1B780133DAB22B4B33
:102950001A702A4B1B78013B1B012A4A1344194663
:10296000254802F0E1FD244802F0D9FC03461A464E
:10297000234B1A70224B1B78002BE1D11F4B1B7885
:10298000002B06D1FB79013BFB71FB79002BBCD1FD
:1029900000E000BFFB79002B01D1002326E00023DB
:1029A000BB7119E0322009F065FFBB791B01154AA4
:1029B00013440C221946104800F0CCF9322009F0DB
:1029C00059FFBB791B010F4A134419460A4800F00E
:1029D0005AFABB790133BB71084B1B78BA799A421A
:1029E000E0D309490948FFF767FE01231846083775
:1029F000BD4680BD00040240780700208D070020FE
:102A00008C07002068070020552F0108588902080C
:102A100090B583B000AF3F4B1B78002B02D0012B49
:102A200013D072E03C4B4FF4FA721A803B4800F02E
:102A30007DF8FFF724F80346394A1360354B1B78BD
:102A40000133DAB2334B1A705FE0FFF718F8024631
:102A5000334B1B68D31A092B56D9304800F06EFA55
:102A60000346002B12D1FFF70AF803462C4A1360E5
:102A7000294B1B88013B9AB2274B1A80264B1B8897
:102A8000002B41D1234B00221A703EE0224B1B88C1
:102A9000002B24D00023FB711BE0FB791B01214A92
:102AA0009918FB791B0108331E4A1344FC791A4616
:102AB0001A4800F04FF8034619461A4A23011344F6
:102AC0000C330A461A70134B00221A70FB7901333B
:102AD000FB71154B1B78FA799A42DED314E0002380
:102AE000BB710CE0BB790F4A1B0113440C3300226D
:102AF0001A70084B00221A70BB790133BB710A4B64
:102B00001B78BA799A42EDD300BF012318460C37DF
:102B1000BD4690BD900700208E070020780700205A
:102B200094070020680700208D07002080B582B040
:102B300000AF7860786802F01DFBCC21786802F065
:102B40009FFB4421786802F09BFB00BF0837BD461D
:102B500080BD000090B58BB000AFF860B9607A60BE
:102B6000002387F824300023FB77B86800F07AF957
:102B70000346002B01D10023E1E0F86802F056FB88
:102B80000346002B01D10023D9E0F86802F0F2FAE5
:102B9000B968F86802F0A9FCBE21F86802F070FB81
:102BA0000023FB770DE0FC7FF86802F087FB03460B
:102BB0001A4604F128033B4403F8142CFB7F01332D
:102BC000FB77FB7F082BEED907F114030821184689
:102BD00002F0C7FC0346BB773B7FBA7F9A4201D025
:102BE0000023ACE03B7D1AB27B7D1B021BB213437A
:102BF0001BB2FB84F86802F0BDFAB7F92630002B4F
:102C000005DAFB8C5B42FB84012387F824303B7E92
:102C10005B11DBB203F00303DBB209337B77FB8C80
:102C20001B099BB287F82530FB8C1B0A9BB21B014A
:102C30005BB203F070035AB297F82530134387F85C
:102C400025307B7F093B032B58D801A252F823F093
:102C5000612C0108892C0108B12C0108D92C01082C
:102C6000FB8CDB089BB203F0010307EE903AF8EE11
:102C7000E77AC7ED087AD7ED087AB6EE007A67EE04
:102C8000877AC7ED087A3EE0FB8C9B089BB203F085
:102C9000030307EE903AF8EEE77AC7ED087AD7ED2E
:102CA000087AB5EE007A67EE877AC7ED087A2AE0EF
:102CB000FB8C5B089BB203F0070307EE903AF8EE3B
:102CC000E77AC7ED087AD7ED087AB4EE007A67EEB6
:102CD000877AC7ED087A16E0FB8C03F00F0307EE46
:102CE000903AF8EEE77AC7ED087AD7ED087A9FEDCB
:102CF000167A67EE877AC7ED087A04E0134B3B62D9
:102D0000002387F8253097F9253007EE903AF8EE42
:102D1000E77A97ED087A77EE277AC7ED087A97F980
:102D20002430002B07D09FED0A7AD7ED087A77EE92
:102D3000677AC7ED087A7B683A6A1A6001231846F9
:102D40002C37BD4690BD00BF0000803D00007F4392
:102D50000000000080B586B000AFF860B96013468F
:102D6000FB71B86800F07EF80346002B01D1002308
:102D700074E0F86802F0FEF9B968F86802F0B5FB93
:102D8000BE21F86802F07CFAF86802F097FAF86859
:102D900002F094FAF86802F091FA0346BB75F868FD
:102DA00002F08CFA03467B75F86802F087FA034656
:102DB000FB75FB79092B08D1FB7D23F04003FB75E4
:102DC000FB7D23F02003FB7522E0FB790A2B08D161
:102DD000FB7D23F04003FB75FB7D43F02003FB7577
:102DE00016E0FB790B2B08D1FB7D43F04003FB750C
:102DF000FB7D23F02003FB750AE0FB790C2B07D148
:102E0000FB7D43F04003FB75FB7D43F02003FB7526
:102E1000F86802F0AFF9B968F86802F066FB4E2175
:102E2000F86802F02DFABB7D1946F86802F028FA1E
:102E30007B7D1946F86802F023FAFB7D1946F86895
:102E400002F01EFAF86802F095F9B968F86802F025
:102E50004CFB4821F86802F013FA01231846183792
:102E6000BD4680BD80B483B000AF78607B681B78BE
:102E7000282B01D1012300E0002318460C37BD4662
:102E80005DF8047B704780B584B000AF786039602E
:102E90003868FFF7E7FF0346002B01D1002349E024
:102EA000786802F067F93968786802F01EFBBE2185
:102EB000786802F0E5F9786802F000FA786802F0C4
:102EC000FDF9786802F0FAF90346FB73786802F0BE
:102ED000F5F90346BB73786802F0F0F903467B739B
:102EE0007D23FB73C923BB73786802F043F939680B
:102EF000786802F0FAFA4E21786802F0C1F9FB7B9B
:102F00001946786802F0BCF9BB7B1946786802F074
:102F1000B7F97B7B1946786802F0B2F9786802F05D
:102F200029F93968786802F0E0FA4821786802F0F7
:102F3000A7F9012318461037BD4680BD80B582B081
:102F400000AF7860786802F071F9034618460837D8
:102F5000BD4680BD80B584B000AF78600023FB73B0
:102F60007B681B88012B1BD17B685B6913490020A0
:102F700098470346002B13D00BE0FFF749FD104B99
:102F80009B681846FDF748FE02460B460D48FFF7C2
:102F900083FAFFF77BFB0346002BEED10123FB7383
:102FA000FB7B83F00103DBB2002B02D00648FFF766
:102FB00073FA00BF1037BD4680BD00BF60890208AC
:102FC00068070020688902088089020880B582B0FD
:102FD00000AF0123FB710D490D4809F0EDFA0346DE
:102FE000002B0AD1002209490A4807F0DFFE0346F8
:102FF000002B02D1084B01221A7008490848FFF73C
:103000005BFBFB7918460837BD4680BDD009002020
:10301000508F02089C07002098070020F930010813
:103020009089020880B5D6B000AF07F5AC73A3F560
:10303000AA73186007F5AC73A3F5AA7307F590722D
:103040001968104608F02BFE034687F8573197F8A9
:103050005731002B44D107F1080207F59073114650
:10306000184608F0C5FE034687F8573197F85731E0
:10307000002B30D107F5AC73A3F5A8739B7D002B13
:1030800029D007F5AC73A3F5A8731B7A03F01003DE
:10309000002B0CD007F1080303F1160207F5AC73FF
:1030A000A3F5AA7319681248FFF7F6F9D3E707F5F5
:1030B000AC73A3F5A8731B68184607F1080303F166
:1030C000160207F5AC73A3F5AA710346096809480F
:1030D000FFF7E2F9BFE707F59073184608F062FEC4
:1030E00097F85731184607F5AC77BD4680BD00BF4D
:1030F00098890208A489020880B5ADF51A7D00AF51
:1031000007F51A73A3F519731860002387F867325F
:1031100007F51A73A3F519731B681B88012B4DD192
:1031200007F51A73A3F519731B685B6990490020B2
:1031300098470346002B41D08E4B1B7819468E488A
:10314000FFF7AAF98B4B1B78002B34D007F51172CF
:1031500007F510731946894808F097FE034687F86B
:103160005F3297F85F32002B1FD1D7F844329B694A
:10317000023BD7F84422528902FB03F3C7F85832C6
:10318000D7F844325B891A46D7F8403202FB03F382
:10319000C7F85432D7F858325908D7F854325B0878
:1031A0001A467748FFF778F905E097F85F32194635
:1031B0007448FFF771F9012387F8673207F51A732E
:1031C000A3F519731B681B88012B1ED107F51A7311
:1031D000A3F519731B685B696B4900209847034688
:1031E000002B12D06948FFF71DFF034687F85332C2
:1031F00097F85332002B05D097F85332194661489F
:10320000FFF74AF9012387F8673207F51A73A3F528
:1032100019731B681B88012B40F0958007F51A7302
:10322000A3F519731B685B69594900209847034649
:10323000002B00F08880FEF722FCC7F84C0207F153
:1032400008030B225349184607F0F6FD034687F89A
:103250004B3297F84B32002B65D107F108034E49EA
:10326000184608F03FFF07F108034C49184608F0DC
:1032700039FF07F108034A49184608F033FF07F100
:1032800008034849184608F02DFF07F1080346498E
:10329000184608F027FF0023C7F860320CE007F15A
:1032A0000803D7F860224149184608F01BFFD7F8F9
:1032B00060320133C7F86032D7F86032072BEEDD99
:1032C00007F108030021184608F0E0FA1CE000238B
:1032D000C7F83C3207F50F7307F23B2107F10800EE
:1032E000012207F077FF034687F84B3297F84B32FD
:1032F000002B0FD1D7F83C32002B0DD097F83B3282
:1033000019462B48FFF7C8F8FFF7C0F90346002B12
:10331000DDD102E000BF00E000BF07F1080318465E
:1033200008F08AFA02E02348FFF7B6F8FEF7A7FB99
:103330000246D7F84C32D31A19461F48FFF7ACF8AB
:10334000012387F8673297F8673283F00103DBB215
:10335000002B08D01948FFF79FF81948FFF79CF891
:103360001848FFF799F800BF07F51A77BD4680BDEA
:10337000B889020898070020C0890208D489020889
:10338000D88902080C8A0208188A02081C8A0208D6
:10339000208A0208288A0208308A0208388A02082D
:1033A000408A0208488A02084C8A0208508A0208A9
:1033B000588A02085C8A02086C8A0208748A020829
:1033C000808A02088C8A020880B500AF034904484D
:1033D000FFF772F90123184680BD00BFA53501082B
:1033E000988A020880B58CB000AF786039600023FD
:1033F00087F82F304FF6FF73BB850023BB62002395
:103400007B6215E07B6A9BB23A687968184600F0E7
:1034100071F80346002B08D0B7F92C30002B01DAE5
:103420007B6ABB85BB6A0133BB627B6A01337B620B
:103430007B6A072BE6DDBB6A002B20D00AF00CFD6F
:103440000023FB6001233B61B7F92C307B61BB6A31
:10345000BB610223FB6107F1080207F10C0311466F
:1034600018460AF06BFE034687F8233097F823309E
:10347000002B02D1012387F82F300AF00FFD97F8B7
:103480002F3018463037BD4680BDB0B588B000AF8C
:10349000F860B9607A600123FB770AF0DDFC002355
:1034A000BB611BE0BB69BA6813441B78FB82BA6935
:1034B000FB68D118FB8A00221C46154622462B4683
:1034C00000200AF075FC03467B757B7D002B02D043
:1034D0000023FB7706E0BB690133BB61BB697A68F7
:1034E0009A42DFD80AF0DAFCFB7F18462037BD4647
:1034F000B0BD000080B48BB000AF0346B9607A6005
:10350000FB81002387F82730FB89254A52F83330A6
:103510003B62FB89224A52F83320FB892049DB00B9
:103520000B445B681344013BFB61BB68BB61BA6839
:103530007B681344013B7B613A6ABB699A4206D3BC
:103540003A6A7B699A4202D8012387F82730FA69E0
:10355000BB699A4206D3FA697B699A4202D8012371
:1035600087F82730BA693B6A9A4206D3BA69FB6981
:103570009A4202D8012387F827307A693B6A9A4237
:1035800006D37A69FB699A4202D8012387F827306B
:1035900097F8273018462C37BD465DF8047B7047F6
:1035A0007C00002080B58CB000AF7860002387F8E5
:1035B0002F307B681B88012B21D17B685B695C49BC
:1035C000002098470346002B19D00023BB6210E06F
:1035D000584ABB6A52F83310564ABB6ADB001344A0
:1035E0005B689B0A1A465448FEF756FFBB6A0133D4
:1035F000BB62BB6A072BEBDD012387F82F307B68AA
:103600001B88032B2BD17B685B694C4900209847B2
:103610000346002B23D07B689B6801209847034614
:103620003B627B689B68022098470346FB6100234E
:103630007B620DE07A6A3B6AD1187A6A3B6A13446E
:103640001B781A463E48FEF727FF7B6A01337B62F0
:103650007B6AFA699A42EDD8012387F82F307B689C
:103660001B88032B21D17B685B6936490020984772
:103670000346002B19D07B689B68012098470346BE
:10368000BB617B689B680220984703467B61796930
:10369000B869FFF7A7FE0346002B03D02A48FEF7C0
:1036A000FBFE02E02948FEF7F7FE7B681B88032B30
:1036B00027D17B685B692649002098470346002B89
:1036C0001FD07B689B680120984703463B617B685D
:1036D0009B68022098470346FB6007F10C03042215
:1036E00019463869FFF7D1FE0346002B03D019486D
:1036F000FEF7D2FE02E01848FEF7CEFE012387F85F
:103700002F3097F82F3083F00103DBB2002B0BD062
:103710001248FEF7C1FE1248FEF7BEFE1148FEF742
:10372000BBFE1148FEF7B8FE00BF3037BD4680BD76
:10373000A08A02087C000020A88A0208B88A020831
:10374000C08A0208D08A0208D88A0208E48A0208DD
:10375000F08A0208F88A0208048B0208108B02081B
:103760001C8B0208388B0208548B020880B584B089
:1037700000AF0123FB7200237B60244B1B6B234AA9
:1037800043F001031363214B1B6B03F001037B60C8
:103790007B6800233B601D4B1B6B1C4A43F00203FC
:1037A00013631A4B1B6B03F002033B603B6800235F
:1037B000FB601EE0FB68D8B21549FA6813465B004F
:1037C00013449B000B4408331B78194600F026F87D
:1037D000FB68D8B20E49FA6813465B0013449B009D
:1037E0000B440B331B78194600F08AF8FB68013351
:1037F000FB60FB680C2BDDDD06490748FEF75CFF2C
:10380000FB7A18461037BD4680BD00BF0038024025
:10381000688E0208153A01086C8B020880B588B0E2
:1038200000AF03460A46FB711346BB710123FB77C9
:1038300007F1080300221A605A609A60DA601A6180
:10384000FB790C2B01D9002354E0BB79062B38D827
:1038500001A252F823F000BF753801087F38010833
:1038600089380108933801089D380108A7380108F4
:10387000B13801080023FB6000233B6121E00023F5
:10388000FB6001233B611CE00023FB6002233B61E2
:1038900017E00123FB6000233B6112E00123FB6082
:1038A00001233B610DE00123FB6002233B6108E043
:1038B0000223FB6000233B6100237B610223BB6189
:1038C00000BFFA790D4913465B0013449B000B447B
:1038D00004331B68BB60FA79084913465B00134444
:1038E0009B000B441B6807F10802114618460AF0BA
:1038F00047FDFB7F18462037BD4680BD688E020815
:1039000090B583B000AF03460A46FB711346BB7106
:10391000FB790C2B40D8BB79002B1ED0FA792049BB
:1039200013465B0013449B000B441868FA791C494A
:1039300013465B0013449B000B4404331B6899B28D
:10394000FA79174C13465B0013449B002344093358
:103950001B781A460AF094FF1FE0FA7910491346C3
:103960005B0013449B000B441868FA790C4913461A
:103970005B0013449B000B4404331B6899B2FA7933
:10398000074C13465B0013449B0023440A331B7807
:103990001A460AF075FF00E000BF0C37BD4690BD27
:1039A000688E020880B584B000AF0346FB71002327
:1039B000FB73FB790C2B01D9002324E0FA7914491D
:1039C00013465B0013449B000B441868FA791049B6
:1039D00013465B0013449B000B4404331B689BB2EB
:1039E00019460AF035FF03461846FA790849134686
:1039F0005B0013449B000B4409331B78984201D1B0
:103A00000123FB73FB7B18461037BD4680BD00BF0A
:103A1000688E020890B587B000AF78600023FB7510
:103A20007B681B88012B28D17B685B694749002094
:103A300098470346002B20D018E000233B610CE0A0
:103A40003B69DBB21846FFF7ADFF03461946404815
:103A5000FEF722FD3B6901333B613B690C2BEFDD37
:103A60003C48FEF719FD6420FDF7FEFFFEF70EFE51
:103A70000346002BE1D10123FB757B681B88022BD9
:103A800023D17B685B693449002098470346002BAB
:103A90001BD07B689B68012098470346FB730DE0B1
:103AA000FC7BFB7B1846FFF77DFF03461A46214649
:103AB0002A48FEF7F1FC6420FDF7D6FFFEF7E6FD8D
:103AC0000346002BECD10123FB757B681B88032B7D
:103AD00026D17B685B692249002098470346002B6A
:103AE0001ED07B689B68012098470346BB737B68A8
:103AF0009B680220984703467B737B7B002B14BF97
:103B000001230023DAB2BB7B11461846FFF7F8FE0B
:103B1000BB7B7A7B19461348FEF7BEFC0123FB757D
:103B2000FB7D83F00103DBB2002B0AD00E48FEF7C9
:103B3000B3FC0C210D48FEF7AFFC0C210C48FEF73E
:103B4000ABFC00BF1C37BD4690BD00BF748B0208A4
:103B50007C8B0208808B0208848B02088C8B020805
:103B6000A08B0208A88B0208BC8B0208C88B020835
:103B7000DC8B020880B500AFFDF781FF02460D4BDC
:103B80001B68D31A0C4A1360FDF779FF0346094AF4
:103B90001360094B1B68002B07D0074B1B684FF4C1
:103BA0007A72B2FBF3F3054A1360054B00221A70D8
:103BB00000BF80BDF4090020F8090020FC090020A6
:103BC000F209002080B584B002AF274B64221A703E
:103BD00004F0DEFA03461A46244B1A70244804F017
:103BE000E3FA234B5B692348984700237B6007E097
:103BF000214A7B68002122F813107B6801337B6027
:103C00007B68B3F5A04FF3DB4FF4204200211A4844
:103C100010F0A8FA194B1B781A4613469B00134460
:103C20005B03154A1344164A136000230093802354
:103C3000A0220021002000F0DBFB00F09FFA6420AE
:103C400000F030F8094B1B7883F00103DBB2002B46
:103C500001D0002304E00B490B48FEF72DFD0123A2
:103C600018460837BD4680BDBC000020F009002082
:103C7000D4090020753B0108400A0020F10900200A
:103C8000000A0020BD480108048F020880B400AF7C
:103C9000034B1B781846BD465DF8047B704700BF98
:103CA000F009002080B582B000AF0346FB71FB79BC
:103CB000642B28BF6423FB710C4B1B78FA799A4262
:103CC00002D00A4AFB791370084B1B78002B04D0F2
:103CD00001210120FFF714FE03E000210120FFF77E
:103CE0000FFE00BF0837BD4680BD00BFBC000020EE
:103CF000044B01EB81011B6800EB411123F81120FB
:103D0000704700BF000A002010B5044600F062FAB8
:103D100000F51F41A2B2831EFE3123F8022F8B4211
:103D2000FBD110BD2DE9704F164686B0002E0E9ABD
:103D3000C6EBC67B40F38D801FFA81F903F00401C6
:103D4000039103F00201019103F0080103F0010364
:103D5000C6F101044FEA4B0B1FFA80F8029104935D
:103D600000250AE0019B002B2CD1029B002B41D1A6
:103D7000049B002B56D1AE426BDD002C03DB0BF114
:103D8000020B013E5C440135039B04EB4504013406
:103D9000002BE7D0B3B21FFA85FA09EB030108EB59
:103DA0000A0089B280B20593FFF7A2FF059B09EBD9
:103DB0000A0108EB030089B280B2FFF799FF019B6B
:103DC000002BD2D0B3B21FFA85FAA9EB030108EB9E
:103DD0000A0089B280B20593FFF78AFF059BA9EB21
:103DE0000A0108EB030089B280B2FFF781FF029B52
:103DF000002BBDD0ABB21FFA86FA09EB0301A8EB8A
:103E00000A0089B280B20593FFF772FF059B0AEBA7
:103E10000901A8EB030089B280B2FFF769FF049B98
:103E2000002BA8D0ABB21FFA86FAA9EB0301A8EBCE
:103E30000A0089B280B20593FFF75AFF059BA9EBF0
:103E40000A01A8EB030089B280B2FFF751FFAE422E
:103E500093DC06B0BDE8708F2DE9704F8AB09446B0
:103E6000129ECDF80CC01FFA86F84FEA48020C46A5
:103E700091B2BDF80C20DDF84CA0054680B2CDE92A
:103E800006210590521A4044994600B21FFA8AF35F
:103E900012B221B2CDE90823049000F083FA04980D
:103EA000CDF81090BDF81090089A099B08931FFA5E
:103EB00084FB09F1FF31594409B200F073FA079B02
:103EC00008EB0B01A9EB0302089B09B212B228B25E
:103ED000CDE90823079100F03FFA069A059B079960
:103EE000501E184405EB0608DDE9082300B200F077
:103EF00033FA311932464046CDF800A0012305912E
:103F0000FFF710FF03980599CDF800A02844801B07
:103F10000138324602230390FFF704FF0499039807
:103F2000CDF800A02144891B0139324604230391B6
:103F3000FFF7F8FE0399CDF848A008233246404623
:103F40000AB0BDE8704FFFF7EDBE00BF2DE9704F1E
:103F5000904686B0C8F1000AB8F1000F0E9AAAEB9D
:103F6000080A6FDD013292B2951C049203F001023F
:103F700003F0020302930F9B039280B289B2C8F14F
:103F8000010400900191ADB200269BB206E0029AB6
:103F9000002A33D10235B045ADB253DD002C06F115
:103FA000010604DB0AF1020A08F1FF385444039ABF
:103FB00004EB46040134002AE9D0049A01990098E0
:103FC00005931FFA88F91FFA86FB02EB4902594450
:103FD000A0EB090012B209B200B200F0E3F90199B6
:103FE0000098059B4944A0EB0B002AB209B200B22D
:103FF00000F0D8F9029A059B002ACBD0049A0199C7
:10400000009805931FFA88F91FFA86FB02EB490214
:10401000A1EB0B01A0EB090012B209B200B200F053
:10402000C1F901990098059BA1EB0901A0EB0B00D8
:104030002AB209B200B200F0B5F90235B045059BCD
:10404000ADB2ABDC06B0BDE8708F00BF2DE97047A4
:1040500085B0DDE90C6988461446B1B21FFA89F2D1
:104060001D460092A3EB410322B24144A4EB460457
:1040700045448246013C1BB209B200B2AD1B00F0C0
:10408000B7F90AEB0600691E3246CDE90049012363
:104090000390FFF75BFF03980223324608EB06010B
:1040A000CDE90C4905B0BDE87047FFF74FBF00BF31
:1040B00080B400AF034B1B681846BD465DF8047B17
:1040C000704700BFFC09002080B400AF034B1B68A1
:1040D0001846BD465DF8047B704700BFF809002014
:1040E00080B400AF084B1B78002B14BF01230023C2
:1040F000DBB283F00103DBB203F00103DBB218464D
:10410000BD465DF8047B7047F209002098B500AF0A
:10411000154B1B7883F00103DBB2002B01D0002389
:1041200020E0124B1B78002B01D000231AE0104B2B
:104130009C687F239F2200210020A0470B4B012277
:104140001A700B4B9C690B4B1B781A4613469B004D
:1041500013445B03084A134400224FF4A04118465D
:10416000A0470123184698BDF0090020F20900205D
:10417000D4090020F1090020400A002080B582B057
:1041800000AF134B1B7883F00103DBB2002B18D177
:10419000FFF7BCFFFDF773FC786009E00120FDF735
:1041A00063FCFDF76CFC02467B68D31A632B0AD8CC
:1041B000FFF796FF034683F00103DBB2002BEDD13E
:1041C00002E000BF00E000BF0837BD4680BD00BF71
:1041D000F009002080B400AF034B1B681846BD46B1
:1041E0005DF8047B704700BF000A002090B589B0DD
:1041F00000AF0446084611461A462346FB80034694
:10420000BB800B467B8013463B80B7F90020B7F993
:104210000430D31A83EAE372A2EBE372B7F9021017
:10422000B7F90630CB1A002BB8BF5B429A42CCBF1D
:1042300001230023DBB27B83B7F90630002B01DAC0
:104240000023FB80B7F90430002B01DA0023BB8088
:10425000B7F90230002B01DA00237B80B7F9003078
:10426000002B01DA00233B80B7F91A30002B0BD06A
:10427000FB883B83BB88FB803B8BBB807B88FB82BE
:104280003B887B80FB8A3B80B7F90620B7F9023078
:104290009A420BDDFB88BB827B88FB80BB8A7B80DC
:1042A000BB887B823B88BB807B8A3B807A88FB888B
:1042B000D31A9BB23B82B7F90020B7F90430D31A66
:1042C000002BB8BF5B42FB81B7F91030DA0F134403
:1042D0005B10FB83B7F90420B7F900309A4202DA89
:1042E0000123BB832DE04FF6FF73BB8329E0B7F9B1
:1042F0001A30002B06D0BB88F9883A8E1846FFF793
:10430000F7FC05E0FB88B9883A8E1846FFF7F0FC09
:10431000FA8BFB89D31A9BB2FB83B7F91E30002BB3
:1043200009DABA88BB8B13449BB2BB80FA8B3B8AF9
:1043300013449BB2FB83B7F906309BB201339BB2A7
:10434000FB80B7F90620B7F902309A42CFDD00BFF3
:1043500000BF2437BD4690BD90B585B002AF04467E
:10436000084611461A462346FB800346BB800B468F
:104370007B8013463B80BA887B8813449BB2013B09
:104380009BB21CB2B7F90620B7F90410B7F90600C2
:104390003B8800932346FFF729FF00BF0C37BD463B
:1043A00090BD00BF90B585B002AF044608461146E7
:1043B0001A462346FB800346BB800B467B80134690
:1043C0003B80FA887B8813449BB2013B9BB21AB2B4
:1043D000B7F90440B7F90410B7F906003B88009319
:1043E0002346FFF703FF00BF0C37BD4690BD00BF5B
:1043F00090B585B000AF0446084611461A462346DC
:10440000FB800346BB800B467B8013463B80FB88CA
:10441000FB810EE03B8CB7F90020B7F90410B7F927
:104420000E00FFF799FFB7F90E309BB201339BB234
:10443000FB81B7F90E20B7F90610B7F902300B442B
:104440009A42E7DB00BF00BF1437BD4690BD00BFF6
:1044500090B585B000AF0446084611461A4623467B
:10446000FB800346BB800B467B8013463B80FB886A
:104470009F2B3BD8BB887F2B38D8FA887B88134486
:10448000A02B35DCBA883B881344802B32DC002318
:10449000FB81BB88BB8121E0FB887B8111E07889AF
:1044A000B989FB895A1CFA815B003A6A13441B885C
:1044B0001A46FFF71DFCB7F90A309BB201339BB2D5
:1044C0007B81B7F90A20F9887B880B449A42E6DBA6
:1044D000B7F90C309BB201339BB2BB81B7F90C200A
:1044E000B9883B880B449A42D6DB04E000BF02E067
:1044F00000BF00E000BF1437BD4690BD08B490B5C2
:10450000D8B002AF07F5AC73A3F5A673186007F532
:10451000AC73A3F5A873196007F5AC73A3F5A97381
:104520001A8007F5B473C7F83C3107F5AC73A3F5EF
:10453000A6731B68C7F84C3107F13C00D7F83C3133
:10454000D7F86421FF2111F09DFAC7F84801804B8C
:104550001B781A467F4B53F822305B68002B72D0D1
:104560000023C7F8543167E007F5AC73A3F58E72EA
:10457000D7F8543113441A78754B1B781946754B8C
:1045800053F8214007F5AC73A3F5A87107F5AC7398
:10459000A3F5A67007F5AC73A3F5A9731B88009368
:1045A00023460968006800F02DF90123C7F844315B
:1045B000674B1B781A46674B53F822301B7887F8F5
:1045C0005331634B1B781A46624B53F822305B78A9
:1045D00087F8433197F8532107F5AC73A3F5A67319
:1045E00007F5AC71A1F5A67109680A441A6097F83D
:1045F000532107F5AC73A3F5A6731B681344A02BD6
:1046000013DD07F5AC73A3F5A673D7F84C211A6038
:1046100097F8432107F5AC73A3F5A87307F5AC71C0
:10462000A1F5A87109680A441A60D7F85421D7F88F
:1046300044311344C7F85431D7F85421D7F84831DE
:104640009A4291DB7BE00023C7F854316FE007F119
:104650003C02D7F85431134407F1140211461846AE
:1046600003F0A4FA07F5AC73A3F5A9731B8807F14F
:10467000140207F5AC71A1F5A87107F5AC70A0F5AF
:10468000A6700968006800F067F807F5AC73A3F539
:10469000A2735B88C7F84431D7F84431012B0EDD93
:1046A000102387F8533107F5AC73A3F5A67307F50C
:1046B000AC72A2F5A672126810321A600DE00823DF
:1046C00087F8533107F5AC73A3F5A67307F5AC7201
:1046D000A2F5A672126808321A6097F8532107F5FE
:1046E000AC73A3F5A6731B681344A02B11DD07F56B
:1046F000AC73A3F5A673D7F84C211A6007F5AC7319
:10470000A3F5A87307F5AC72A2F5A872126810326F
:104710001A6007F5AC73A3F5A2739B88042B0DD028
:10472000D7F85421D7F844311344C7F85431D7F897
:104730005421D7F848319A4289DB00E000BF00BF1E
:1047400007F5AC77BD46BDE8904001B0704700BFAB
:10475000BD000020C000002080B588B000AFF86028
:10476000B9607A607B807B685B883B833B8B022BE4
:1047700001D902233B830023FB833AE00023FB8221
:104780000023BB832EE0FB8B3A8B03FB02F2BB8B37
:1047900013447A6813449B797B7500237B831BE069
:1047A0007A7D7B8B02FA03F303F08003002B0DD09C
:1047B000FB689AB2FB8A134498B2BB689AB2FB8B2F
:1047C00013449BB27A881946FFF792FAFB8A0133A9
:1047D000FB827B8B01337B837B8B072BE0D9BB8BED
:1047E0000133BB83BA8B3B8B9A42CCD3FB8B013317
:1047F000FB83FB8B0F2BC1D900BF00BF2037BD4609
:1048000080BD00BF80B588B000AFF860B9603B6084
:104810001346FB710023FB6135E03B685A68FB7966
:10482000203B3968497801FB03F31946FB690B44C7
:104830005B0013441B887B610023BB611AE07A692B
:10484000BB6902FA03F303F40043002B0FD0FB68AB
:104850009AB2BB699BB2134498B2BB689AB2FB6927
:104860009BB213449BB23A8D1946FFF741FABB69DC
:104870000133BB613B681B781A46BB699342DED3A8
:10488000FB690133FB613B685B781A46FB69934225
:10489000C3D300BF00BF2037BD4680BD80B483B006
:1048A00000AF0346FB71044AFB79137000BF0C375D
:1048B000BD465DF8047B7047BD00002080B586B022
:1048C00002AF78600023FB737B681B88012B63D1E8
:1048D0007B685B694E49002098470346002B5BD0FC
:1048E0000320FFF7DBFF4BE0FFF7FAFB0346002B4B
:1048F00046D00020FFF708FA464B4FF4FC62002137
:104900001920FFF7FBFDFFF7D3FB03460093424B53
:104910004FF6FF7210210020FFF7F0FDFFF7D4FBE8
:10492000034600933D4B4FF6FF7220210020FFF716
:10493000E5FDFDF7A4F803460093384B4FF6FF72F0
:1049400030210020FFF7DAFD4FF4784300930A236B
:104950000A2246210020FFF74BFD4FF4FC63009331
:104960000A230A2246210A20FFF742FD1F23009353
:104970000A230A2246211420FFF73AFDFFF7C6FB5F
:10498000FDF784FE0346002BAED10020FFF7BCF9F3
:10499000FFF7F4FB0123FB737B681B88012B26D1F7
:1049A0007B685B691E49002098470346002B1ED098
:1049B0000020FFF7A9F9FFF7E1FB0CE002F0D0FFC0
:1049C00003461A46174B1A70164B1B781A460021DD
:1049D000002002F07BFFFDF759FE0346002BEDD1CE
:1049E0000020FFF791F9FFF7C9FB0123FB73FB7B65
:1049F00083F00103DBB2002B05D00B48FDF74CFD23
:104A00000A48FDF749FD00BF1037BD4680BD00BF15
:104A1000088F0208108F0208208F0208288F0208D2
:104A2000308F020840AA0020388F0208448F020805
:104A300080B588B000AF0123FB763B1D00221A60D1
:104A40005A609A60DA601A6100233B601B4B1B6B53
:104A50001A4A43F004031363184B1B6B03F004035F
:104A60003B603B680123BB600023FB6000233B618C
:104A70000023FB6116E0124AFB69DB0013449B88AC
:104A80007B600F4AFB6952F833303A1D11461846D5
:104A900009F076FCFB69DBB2184600F017F8FB69F9
:104AA0000133FB61FB69002BE5DD06490648FDF794
:104AB00003FEFB7E18462037BD4680BD003802400D
:104AC000D0000020454B0108F88B020880B582B069
:104AD00000AF0346FB71FB79002B11D1FB790A4A29
:104AE00052F83300FB79084ADB0013449988FB79BC
:104AF000054ADB001344DB791A4609F0C1FE00E0E9
:104B000000BF0837BD4680BDD000002080B582B010
:104B100000AF0346FB71FB79002B0DD1FB79084AEE
:104B200052F83320FB790649DB000B449B88194679
:104B3000104609F0BEFE00E000BF0837BD4680BD4C
:104B4000D000002080B586B000AF78600023FB75F0
:104B50007B681B88032B33D17B685B691F4900206E
:104B600098470346002B2BD07B689B680120984711
:104B70000346BB757B689B68022098470346FB6031
:104B8000BB7D002B02D0BB7D013BBB75FCF777FFE3
:104B900038610EE0FCF773FF02463B69D31AFA68EE
:104BA0009A4206D8FCF76BFF3861BB7D1846FFF7C9
:104BB000ADFFFDF76BFD0346002BEBD10123FB7529
:104BC000FB7D83F00103DBB2002B03D001210448FD
:104BD000FDF762FC00BF1837BD4680BDFC8B0208A4
:104BE000048C020880B483B000AF7860064B03F5F4
:104BF00000531A467B68C2F89C3000BF0C37BD4694
:104C00005DF8047B704700BF44AA002080B500AF68
:104C10001F4B01221A701E4B00225A701C4B00229F
:104C20009A701B4B0022DA70194B03F500531A4699
:104C3000184BC2F88C30164B03F500531A46164B2E
:104C4000C2F89030124B03F500531A46134BC2F8CA
:104C500094300F4B03F500531A46114BC2F89830AD
:104C60000B4B03F500531A460023C2F89C300D4A43
:104C700000210D4800F038F90C4A00210C4800F0E2
:104C800033F90C490C48FDF717FD0123184680BD88
:104C900044AA0020854D0108DD4D01083D4E010864
:104CA0008D4E0108754F0108248C0208914F0108B0
:104CB0002C8C0208AD4F0108348C020880B500AF7F
:104CC000074B1B78002B01D1002307E0044B1B7816
:104CD000002B02D0024800F005F80123184680BDE1
:104CE00044AA002080B584B000AF78600023FB7335
:104CF0007B6803F50053D3F89C30002B08D07B6809
:104D000003F50053D3F89C307A68927810469847A0
:104D1000FB7B18461037BD4680BD80B485B000AF20
:104D200078600023FB8118E0FB897A6813441B78C4
:104D30007B737B7B002B14D07B7B602B05D97B7B2B
:104D40007A2B02D87B7B203B7B73FB897A681344E8
:104D50007A7B1A70FB890133FB81FB89FF2BE3D936
:104D600000E000BFFB89B3F5807F05D1FB89013BE3
:104D70007A68134400221A7000BF1437BD465DF8EC
:104D8000047B704780B584B000AF0346FB710023FD
:104D9000FB60114BBB60FB799AB2BB6803F5005313
:104DA000B3F884309A4201D3002310E0BB6803F5C6
:104DB0000053D3F88820FB799B0013441B68002222
:104DC0000021184610F028FE0346FB60FB681846D9
:104DD0001037BD4680BD00BF44AA002080B584B016
:104DE00000AF0346FB714FF00003FB60124BBB604A
:104DF000FB799AB2BB6803F50053B3F884309A424A
:104E000002D34FF000030FE0BB6803F50053D3F863
:104E10008820FB799B0013441B680021184610F082
:104E20002DFD87ED030AFB6807EE903AB0EE670AA6
:104E30001037BD4680BD00BF44AA002080B485B0B5
:104E400000AF0346FB710023FB600F4BBB60FB7997
:104E50009AB2BB6803F50053B3F884309A4201D389
:104E600000230AE0BB6803F50053D3F88820FB79E0
:104E70009B0013441B68FB60FB6818461437BD4653
:104E80005DF8047B704700BF44AA002080B584B061
:104E900000AF03463960FB710023FB73114BBB600D
:104EA000FB799AB2BB6803F50053B3F884309A4299
:104EB00001D3002312E0BB6803F50053D3F8882028
:104EC000FB799B0013441B6819463868FBF7D8FC34
:104ED0000346002B01D10123FB73FB7B18461037DF
:104EE000BD4680BD44AA002080B588B000AFF86000
:104EF0000B467A60FB720123FB771D4BBB61BB69DC
:104F0000DB781F2B01D900232EE0BB69DB78FB8205
:104F1000BB69FA7A9A70FA8A13469B0113449B0084
:104F2000BA6913440433F96818460FF07DFEFA8A13
:104F3000B96913469B0113449B000B4403F582732C
:104F40007A681A60FA8A13469B0113449B00BA6977
:104F5000134404331846FFF7E0FEBB69DB780133E6
:104F6000DAB2BB69DA70FB7F18462037BD4680BDD8
:104F700044AA002080B485B000AF7860034BFB608A
:104F800000BF1437BD465DF8047B704744AA00207B
:104F900080B485B000AF7860034BFB6000BF14376E
:104FA000BD465DF8047B704744AA002080B586B0FA
:104FB00000AF78600023FB751A4BFB607B681B8891
:104FC000012B21D17B685B69174900209847034674
:104FD000002B19D000233B610EE03A6913469B0178
:104FE00013449B00FA681344043319460F48FDF735
:104FF00053FA3B6901333B613B69012BEDDD0C4802
:10500000FDF74AFA0123FB75FB7D83F00103DBB258
:10501000002B02D00748FDF73FFA00BF1837BD4606
:1050200080BD00BF44AA00203C8C0208448C0208CA
:10503000488C02084C8C020880B584B000AF7860C0
:105040000D4B5B68FB600AF069F803460B4AA2FB54
:1050500003239B0C7A6802FB03F37B6000BF064BC3
:105060005A68FB68D21A7B689A42F8D300BF00BF27
:105070001037BD4680BD00BF001000E083DE1B433B
:1050800080B483B000AF78607B689B881A047B682B
:105090001B689A6100BF0C37BD465DF8047B704702
:1050A00080B483B000AF78607B689A887B681B68A7
:1050B0009A6100BF0C37BD465DF8047B704780B530
:1050C00088B000AF786000233B6100237B6102233E
:1050D000BB617B689B88FB607B681B6807F10C02E7
:1050E0001146184609F04CF900BF2037BD4680BD77
:1050F00080B588B000AF786011233B6100237B61ED
:105100000223BB617B689B88FB607B681B6807F19F
:105110000C021146184609F033F900BF2037BD468E
:1051200080BD80B584B000AFF860B9601346FB80E5
:10513000FB68BA681A60FB68FA889A80F868FFF71B
:10514000D7FFF868FFF7ACFF4FF47A70FFF774FFF2
:10515000F868FFF795FF4FF47A70FFF76DFFF86876
:10516000FFF79EFF4FF4FA60FFF766FF00BF1037AE
:10517000BD4680BD80B584B000AF78607868FFF729
:105180007FFF7868FFF7B4FF4FF4F070FFF754FF2C
:105190001420FFF751FF7868FFF791FF4620FFF7D3
:1051A0004BFF7B681A687B689B881946104609F09C
:1051B0004FFB0346FB734FF4CD70FFF73DFFFB7BC6
:1051C00018461037BD4680BD80B582B000AF78600C
:1051D0000B46FB70FB78002B12D07868FFF750FF6E
:1051E0007868FFF785FF0A20FFF726FF7868FFF74A
:1051F00066FF3720FFF720FF7868FFF760FF11E0B8
:105200007868FFF73DFF7868FFF772FF4120FFF7EE
:1052100013FF7868FFF753FF0520FFF70DFF78684D
:10522000FFF74DFF00BF0837BD4680BD80B584B095
:1052300000AF78600023FB737868FFF721FF786880
:10524000FFF756FF0220FFF7F7FE7868FFF737FFFA
:105250000A20FFF7F1FE7B681A687B689B88194675
:10526000104609F0F5FA0346002B01D00123FB7329
:105270003220FFF7E1FEFB7B18461037BD4680BDAC
:1052800080B584B000AF78600B46FB700823FB73D9
:105290000AE0FB7803F00103DBB219467868FFF7F8
:1052A00093FFFB785B08FB70FB7B5A1EFA73002BA5
:1052B000EFD100BF00BF1037BD4680BD80B584B0C0
:1052C00000AF78600823FB730023BB730DE0BB7B4A
:1052D0005B08BB737868FFF7A9FF0346DB015AB28E
:1052E00097F90E3013435BB2BB73FB7B5A1EFA7304
:1052F000002BECD1BB7B18461037BD4680BD80B576
:1053000082B000AF7860786800F016F8F021786815
:1053100000F025F8034618460837BD4680BD80B525
:1053200082B000AF7860F021786800F018F803468A
:1053300018460837BD4680BD80B483B000AF7860A2
:105340007B6800229A717B6800221A727B680022B7
:10535000DA7100BF0C37BD465DF8047B704780B53D
:1053600084B000AF78600B46FB700123FB73002311
:10537000BB7300237B730123FB7200233B737B68A9
:105380001B7A002B40F09A807868FFF7F3FE034603
:10539000002B0AD07B6800229A717B6800221A7267
:1053A0007B680022DA7100239BE0FB78194678685D
:1053B000FFF766FF7868FFF739FF03467B7278686E
:1053C000FFF734FF03463B727B7A012B02D13B7A15
:1053D000012B64D07A7A3B7A9A4202D07B7ABB72F4
:1053E00026E07B689B79FA7B9A420DD27B7B7A68B8
:1053F00013445A7AFB7A1340DBB2002B14BF01230B
:105400000023DBB2BB7208E07B689B79FA7B9A428F
:105410000CBF01230023DBB2BB72BB7A002B07D188
:10542000FB7BBB73BB7B082B02D87B68BA7BDA7132
:10543000BB7A012B0CD17B7B7A681344597A7B7B36
:10544000FA7A0A43D1B27A6813440A465A7210E0D3
:105450007B7B7A6813445B7A5AB297F90B30DB4353
:105460005BB213405AB27B7BD1B27A6813440A46CE
:105470005A72BB7A19467868FFF7A6FEFB7B0133A8
:10548000FB73FB7A5B00FB72FB7A002B04D17B7B06
:1054900001337B730123FB727B7B072B8AD9FB7B58
:1054A000402B0BD97B68BA7B9A717B689B79002B68
:1054B00002D17B6801221A7201233B733B7B002BD4
:1054C00003D07B685B7A002B0AD17B6800229A713B
:1054D0007B6800221A727B680022DA7100233B731A
:1054E0003B7B18461037BD4680BD80B584B000AF09
:1054F0007860396055217868FFF7C2FE0023FB739E
:105500000AE0FB7B3A6813441B7819467868FFF77A
:10551000B7FEFB7B0133FB73FB7B072BF1D900BF8D
:1055200000BF1037BD4680BD80B485B000AF786045
:1055300039600023FB730AE0FA7BFB7B39680B447C
:1055400079680A44527A1A70FB7B0133FB73FB7B48
:10555000072BF1D900BF00BF1437BD465DF8047BAF
:10556000704780B485B000AF78600B46FB700023B5
:10557000FB7322E07B685A1C7A601B78BB7308239C
:105580007B7317E0FA7BBB7B5340DBB203F0010374
:105590003B73FB7B5B08FB733B7B002B04D0FB7BEB
:1055A00083F07303DB43FB73BB7B5B08BB737B7BC9
:1055B000013B7B737B7B002BE4D1FB785A1EFA7096
:1055C000002BD7D1FB7B18461437BD465DF8047B12
:1055D0007047000080B400AFBFF34F8F00BF064B91
:1055E000DB6803F4E0620449044B1343CB60BFF370
:1055F0004F8F00BF00BFFDE700ED00E00400FA059B
:1056000080B483B000AF0123FB71FB7918460C37DF
:10561000BD465DF8047B704780B582B000AF78600E
:105620007B68002B02D100F00BF802E0034A7B6894
:10563000136000BF0837BD4680BD00BFE4CA00202C
:1056400080B582B000AF002000F048F878607B6839
:1056500043F001037B607968002000F04FF8FFF70A
:10566000B9FF000080B582B000AF0123FB710023B9
:105670003B60174B1B6B164A43F004031363144B38
:105680001B6B03F004033B603B68124B124A1A6029
:10569000104B00225A600F4B7F229A600D4BFF2265
:1056A000DA600C4B00221A610A4B00225A61094B46
:1056B00000229A61074809F055FE0346002B01D0ED
:1056C000FCF766FAFB7918460837BD4680BD00BF77
:1056D00000380240E8CA00200028004080B582B0AF
:1056E00000AF78607968044809F03BFF034618462C
:1056F0000837BD4680BD00BFE8CA002080B582B033
:1057000000AF786039603A687968034809F00FFFA4
:1057100000BF0837BD4680BDE8CA002080B483B012
:1057200000AF78607B681B68054A934202D1054B45
:1057300001221A6000BF0C37BD465DF8047B70473C
:10574000002800403C0E474280B582B000AF0023E5
:10575000FB711D4B1D4A1A601B4B00225A601A4BED
:1057600000229A60184B0022DA60174B00221A615F
:10577000154B00225A61144B00229A61144B0022EF
:105780001A70134B01221A70114B1B78002B0FD08B
:105790000D4809F0FEFE0346002B09D14FF40061CD
:1057A00009480AF0CBFC0346002B01D10123FB7111
:1057B000084AFB79137008490848FCF77DFFFB791C
:1057C00018460837BD4680BD0CCB0020002C014098
:1057D00009CB002008CB0020C95C0108588C0208C6
:1057E00080B400AF034B1B781846BD465DF8047BC0
:1057F000704700BF08CB002080B500AF0020FEF747
:10580000D1F80346002B03D0054B01221A7002E0A9
:10581000034B00221A70024B1B78184680BD00BF54
:1058200009CB00202DE9B04F8CB000AF7860002389
:1058300087F82F307B68BB62244B1B78002B3DD050
:1058400007F10803194622480AF04CFCBA68BB6A03
:105850001A60FA68BB6A5A603A69BB6A9A607A69E8
:10586000BB6ADA60BA69BB6A1A61FA69BB6A5A61D3
:105870003A6ABB6A9A617A6ABB6ADA61BB6A1B6977
:1058800000229A469346BB6A5B690022984691467D
:1058900008FB0BF20AFB09F31344AAFB08452B444F
:1058A0001D464FF000024FF00003220D42EA053280
:1058B0002B0DBB6A1A62012387F82F3097F82F301F
:1058C00018463037BD46BDE8B08F00BF08CB00207A
:1058D0000CCB002080B582B000AF08480AF0AAFCCB
:1058E0000346042B02D10023FB7101E00123FB716D
:1058F000FB7918460837BD4680BD00BF0CCB0020A1
:1059000080B584B000AF7860FCF7B9F8F86009E0C2
:10591000FFF7E0FF034683F00103DBB2002B01D069
:10592000012308E0FCF7ABF80246FB68D31A7A685B
:105930009A42EDD8002318461037BD4680BD0000BE
:1059400080B586B000AFF860B9607A603B60002334
:10595000FB751E4B00221A707B68FA68B9681C48F8
:1059600009F0A8FE0346002B2AD1FCF788F838611D
:1059700007E0FCF784F802463B69D31A3A689A427A
:1059800008D9124B1B78DBB283F00103DBB2002B8A
:10599000EFD10DE000BF0BE0FCF771F802463B6968
:1059A000D31A3A689A4203D8084B00221A7004E0CE
:1059B000FFF790FF0346002BEED1044B1B78FB75DD
:1059C000FB7D18461837BD4680BD00BF0ACB0020BE
:1059D0000CCB002080B586B000AFF860B9607A606B
:1059E0003B600023FB751F4B00221A707B68FA682E
:1059F000B9681D4809F048FF0346002B2DD1FCF77C
:105A00003EF8386107E0FCF73AF802463B69D31AE2
:105A10003A689A4208D9134B1B78DBB283F0010332
:105A2000DBB2002BEFD100E000BFFCF728F83861B3
:105A30000BE0FCF724F802463B69D31A3A689A4215
:105A400003D8084B00221A7004E0FFF743FF034617
:105A5000002BEED1034B1B78FB75FB7D18461837E6
:105A6000BD4680BD0BCB00200CCB002080B483B0A2
:105A700000AF7860044B01221A7000BF0C37BD469E
:105A80005DF8047B704700BF0ACB002080B483B070
:105A900000AF7860044B01221A7000BF0C37BD467E
:105AA0005DF8047B704700BF0BCB002080B58CB045
:105AB00000AF786007F11C0300221A605A609A60F8
:105AC000DA601A617B681B68774A934240F0E8808D
:105AD0000023BB61754B1B6B744A43F48003136353
:105AE000724B1B6B03F48003BB61BB6900237B61BA
:105AF0006E4B5B6C6D4A43F4006353646B4B5B6CA1
:105B000003F400637B617B6900233B61674B1B6B84
:105B1000664A43F001031363644B1B6B03F00103FC
:105B20003B613B690023FB60604B1B6B5F4A43F0AA
:105B3000020313635D4B1B6B03F00203FB60FB6806
:105B40004FF45073FB6102233B6200237B6201230D
:105B5000BB620C23FB6207F11C031946544808F092
:105B60000FFC48F2A003FB6102233B6200237B622F
:105B70000123BB620C23FB6207F11C0319464D484D
:105B800008F0FEFB4C4B4D4A1A604B4B4FF0006245
:105B90005A60494B00229A60474B0022DA60464B1C
:105BA0004FF480621A61444B4FF480525A61424B69
:105BB0004FF480429A61404B2022DA613E4B002232
:105BC0001A623D4B04225A623B4B03229A623A4BC3
:105BD0004FF40002DA62384B4FF400121A63364871
:105BE00007F0EAFC0346002B01D0FBF7D1FF7B68EE
:105BF000314A1A64304A7B689363314B314A1A60E8
:105C00002F4B4FF000625A602D4B40229A602C4B74
:105C10000022DA602A4B4FF480621A61284B4FF45D
:105C200080525A61264B4FF480429A61244B2022C5
:105C3000DA61234B00221A62214B04225A62204B64
:105C400003229A621E4B4FF40002DA621C4B4FF49F
:105C500000121A631A4807F0AFFC0346002B01D06C
:105C6000FBF796FF7B68164ADA63154A7B689363F5
:105C700000220321312007F05AFC312007F073FC89
:105C8000002203213B2007F052FC3B2007F06BFC75
:105C900000220321452007F04AFC452007F063FC61
:105CA00000BF3037BD4680BD002C014000380240A7
:105CB000000002400004024090CB0020A06402409B
:105CC000F0CB00205864024090B5ADF5077D00AFE1
:105CD00007F50673A3F505731860002387F81732DC
:105CE00007F50673A3F505731B681B88012B40F0AD
:105CF000948007F50673A3F505731B685B69794902
:105D0000002098470346002B00F08780764B1B78D5
:105D100019467648FCF7C0FB754B1B781946754849
:105D2000FCF7BAFB704B1B78002B73D007F10C0308
:105D30001846FFF777FD0346002B6BD007F5067377
:105D4000A3F503731B6819466B48FCF7A5FB07F521
:105D50000673A3F503735B6819466848FCF79CFB60
:105D600007F50673A3F503739B6819466448FCF7AF
:105D700093FB07F50673A3F50373DB6819466148C7
:105D8000FCF78AFB07F50673A3F503731B69194635
:105D90005D48FCF781FB07F50673A3F503735B69A8
:105DA00019465A48FCF778FB07F50673A3F5037309
:105DB0009B6919465648FCF76FFB07F50673A3F578
:105DC0000373DB6919465348FCF766FB07F5067356
:105DD000A3F50373186A07F50673A3F503731B6A2B
:105DE0009C0A07F50673A3F503731A6A13469B0012
:105DF00013445B00990A484BA3FB0123DA081346BE
:105E00009B0013445B00CA1A1346224601464348CE
:105E1000FCF742FB012387F8173207F50673A3F559
:105E200005731B681B88022B46D107F50673A3F583
:105E300005731B685B693A49002098470346002BAD
:105E40003AD007F50673A3F505731B689B6801201C
:105E500098470346C7F80C3207F10C01642301226E
:105E6000D7F80C02FFF76CFD0346002B1ED0002371
:105E7000C7F8103215E0D7F81032990007F506730D
:105E8000A3F50373D7F8102253F822300A46D7F847
:105E90000C122448FCF700FBD7F810320133C7F886
:105EA0001032D7F810327F2BE5DD02E01E48FCF7F8
:105EB000F3FA012387F8173297F8173283F00103BA
:105EC000DBB2002B09D01948FCF7E6FA064B1B7829
:105ED000002B02D01648FCF7DFFA00BF07F5077762
:105EE000BD4690BD5C8C020808CB0020648C020883
:105EF00009CB0020788C02088C8C0208AC8C02083C
:105F0000CC8C0208EC8C02080C8D02082C8D020847
:105F10004C8D02086C8D0208CDCCCCCC8C8D020847
:105F2000B88D0208C08D0208D48D0208E48D0208E5
:105F3000F08D020880B584B000AF78600D4B5B68CF
:105F4000FB6009F0EBF803460B4AA2FB03239B0C12
:105F50007A6802FB03F37B6000BF064B5A68FB685C
:105F6000D21A7B689A42F8D300BF00BF1037BD46F3
:105F700080BD00BF001000E083DE1B4380B58CB005
:105F800000AF002387F82F3007F11C0300221A60AE
:105F90005A609A60DA6007F1140300221A605A60AE
:105FA0003B1D00221A605A609A60DA602E4B2F4A1D
:105FB0001A602D4B5F225A602B4B00229A602A4BAD
:105FC0004FF6FF72DA60284B00221A61264B00223E
:105FD0009A6125480BF00EFB0346002B01D0FBF71E
:105FE000D7FD4FF48053FB6107F11C0319461E488F
:105FF0000BF06CFD0346002B01D0FBF7C9FD1A48DE
:106000000BF023FB0346002B01D0FBF7C1FD00235F
:106010007B610023BB6107F11403194612480CF0A1
:106020009FF80346002B01D0FBF7B2FD00237B60F5
:106030000123BB600023FB6000233B613B1D0C225E
:10604000194609480BF0A6FC0346002B01D0FBF7CC
:106050009FFD0C2104480BF02DFB97F82F301846BC
:106060003037BD4680BD00BF50CC0020000400404A
:1060700080B582B000AF0023FB715D4B5B78002BD5
:1060800002D0012B22D0A9E003210720FDF7C6FB97
:1060900001210720FDF734FC0520FFF74BFF00210D
