:020000040801F1
:100000005555AAAA000001080004010800040000D8
:1000100000000000000000000000000000000000E0
:1000200000000000000000000000000000000000D0
:1000300000000000000000000000000000000000C0
:1000400000000000000000000000000000000000B0
:1000500000000000000000000000000000000000A0
:08006000000000000000000098
:1004000000000220D12A0108E5270108EB27010896
:10041000F1270108F7270108FD2701080000000067
:100420000000000000000000000000000328010898
:1004300011280108000000001F2801082D280108CC
:10044000212B0108212B0108212B0108212B010858
:10045000212B0108212B0108212B0108212B010848
:10046000212B0108212B0108212B0108212B010838
:10047000212B0108212B0108212B0108212B010828
:10048000212B0108212B01083D2801080000000054
:10049000000000000000000000000000212B010807
:1004A000212B0108212B0108212B0108212B0108F8
:1004B000212B010851280108212B0108212B0108BB
:1004C000212B0108212B0108212B01086528010897
:1004D000212B010879280108212B010800000000C8
:1004E000212B0108212B0108212B0108000000000D
:1004F000000000000000000000000000212B0108A7
:10050000000000008D280108212B0108212B010883
:1005100000000000000000000000000000000000DB
:10052000A1280108212B0108B5280108C9280108C4
:10053000212B010800000000000000000000000066
:10054000000000000000000000000000212B010856
:10055000DD280108F128010805290108212B0108DF
:10056000212B0108212B01080000000000000000E1
:10057000000000000000000000000000000000007B
:1005800000000000212B0108000000000000000016
:08059000212B0108212B0108B9
:100598000000000000000000000000000000000053
:1005A8000000000000000000000000000000000043
:1005B8000000000000000000000000000000000033
:1007F800000000000000000056323230383130521C
:1008080032000000000000000000000000000000AE
:1008180000000000000000004669726D7761726593
:1008280000000000000000000000000000000000C0
:080838000000000000000000B8
:1008400010B5054C237833B9044B13B10448AFF30A
:1008500000800123237010BDC002002000000000B2
:10086000C092020808B5034B1BB103490348AFF31C
:10087000008008BD00000000C4020020C0920208F1
:1008800010F8012B11F8013B012A28BF9A42F7D03A
:10089000D01A7047034613F8012B002AFBD1181A0F
:1008A0000138704700000000000000000000000058
:1008B00001F0FF01102A2BDB10F0070F08D010F811
:1008C000013B013A8B422DD010F0070F42B3F6D115
:1008D000F0B441EA012141EA014122F007047FF02E
:1008E00000070023F0E80256083C85EA010586EA85
:1008F000010685FA47F5A3FA87F586FA47F6A5FAC1
:1009000087F68EB9EED1F0BC01F0FF0102F00702CC
:1009100032B110F8013B013A83EA010313B1F8D177
:100920000020704701387047002D06BF3546033858
:10093000073815F0010F07D1013015F4807F02BF91
:10094000013015F4C03F0130F0BC0138704700BFE2
:1009500081F0004102E000BF83F0004330B54FEA70
:1009600041044FEA430594EA050F08BF90EA020FDD
:100970001FBF54EA000C55EA020C7FEA645C7FEA70
:10098000655C00F0E2804FEA5454D4EB5555B8BF93
:100990006D420CDD2C4480EA020281EA030382EA04
:1009A000000083EA010180EA020281EA0303362D96
:1009B00088BF30BD11F0004F4FEA01314FF4801C69
:1009C0004CEA113102D0404261EB410113F0004F7B
:1009D0004FEA03334CEA133302D0524263EB430332
:1009E00094EA050F00F0A780A4F10104D5F1200ED0
:1009F0000DDB02FA0EFC22FA05F2801841F100012B
:100A000003FA0EF2801843FA05F359410EE0A5F1FE
:100A100020050EF1200E012A03FA0EFC28BF4CF02F
:100A2000020C43FA05F3C01851EBE37101F00045E5
:100A300007D54FF0000EDCF1000C7EEB00006EEBF2
:100A40000101B1F5801F1BD3B1F5001F0CD349087C
:100A50005FEA30004FEA3C0C04F101044FEA4452D3
:100A600012F5800F80F09A80BCF1004F08BF5FEA5A
:100A7000500C50F1000041EB045141EA050130BD3A
:100A80005FEA4C0C404141EB0101013C28BFB1F54C
:100A9000801FE9D291F0000F04BF01460020B1FA97
:100AA00081F308BF2033A3F10B03B3F120020CDA6A
:100AB0000C3208DD02F1140CC2F10C0201FA0CF048
:100AC00021FA02F10CE002F11402D8BFC2F1200CAD
:100AD00001FA02F120FA0CFCDCBF41EA0C01904063
:100AE000E41AA2BF01EB0451294330BD6FEA0404AC
:100AF0001F3C1CDA0C340EDC04F11404C4F1200297
:100B000020FA04F001FA02F340EA030021FA04F3A8
:100B100045EA030130BDC4F10C04C4F1200220FAFF
:100B200002F001FA04F340EA0300294630BD21FA3D
:100B300004F0294630BD94F0000F83F4801306BF03
:100B400081F480110134013D4EE77FEA645C18BFF7
:100B50007FEA655C29D094EA050F08BF90EA020F8E
:100B600005D054EA000C04BF1946104630BD91EA86
:100B7000030F1EBF0021002030BD5FEA545C05D189
:100B80004000494128BF41F0004130BD14F58004C8
:100B90003CBF01F5801130BD01F0004545F0FE413C
:100BA00041F470014FF0000030BD7FEA645C1ABF71
:100BB000194610467FEA655C1CBF0B46024650EAA8
:100BC000013406BF52EA033591EA030F41F40021D4
:100BD00030BD00BF90F0000F04BF0021704730B55A
:100BE0004FF4806404F132044FF000054FF000012F
:100BF00050E700BF90F0000F04BF0021704730B5F0
:100C00004FF4806404F1320410F0004548BF4042C4
:100C10004FF000013EE700BF42004FEAE2014FEA19
:100C200031014FEA02701FBF12F07F4393F07F4FF4
:100C300081F06051704732F07F4208BF704793F0F7
:100C40007F4F04BF41F40021704730B54FF460740A
:100C500001F0004521F000411CE700BF50EA01020D
:100C600008BF704730B54FF000050AE050EA0102B6
:100C700008BF704730B511F0004502D5404261EB26
:100C800041014FF4806404F132045FEA915C3FF467
:100C9000D8AE4FF003025FEADC0C18BF03325FEA04
:100CA000DC0C18BF033202EBDC02C2F1200300FAB5
:100CB00003FC20FA02F001FA03FE40EA0E0021FADA
:100CC00002F11444BDE600BF70B54FF0FF0C4CF4C8
:100CD000E06C1CEA11541DBF1CEA135594EA0C0F7A
:100CE00095EA0C0F00F0DEF82C4481EA030621EAB5
:100CF0004C5123EA4C5350EA013518BF52EA0335F0
:100D000041F4801143F4801338D0A0FB02CE4FF0A1
:100D10000005E1FB02E506F00042E0FB03E54FF0D1
:100D20000006E1FB03569CF0000F18BF4EF0010EC9
:100D3000A4F1FF04B6F5007F64F5407404D25FEAC5
:100D40004E0E6D4146EB060642EAC62141EA555178
:100D50004FEAC52040EA5E504FEACE2EB4F1FD0CBA
:100D600088BFBCF5E06F1ED8BEF1004F08BF5FEA38
:100D7000500E50F1000041EB045170BD06F00046EA
:100D800046EA010140EA020081EA0301B4EB5C0497
:100D9000C2BFD4EB0C0541EA045170BD41F480118F
:100DA0004FF0000E013C00F3AB8014F1360FDEBFB4
:100DB000002001F0004170BDC4F10004203C35DA90
:100DC0000C341BDC04F11404C4F1200500FA05F313
:100DD00020FA04F001FA05F240EA020001F00042B4
:100DE00021F0004110EBD37021FA04F642EB06012A
:100DF0005EEA430E08BF20EAD37070BDC4F10C0454
:100E0000C4F1200500FA04F320FA05F001FA04F217
:100E100040EA020001F0004110EBD37041F1000103
:100E20005EEA430E08BF20EAD37070BDC4F120050E
:100E300000FA05F24EEA020E20FA04F301FA05F276
:100E400043EA020321FA04F001F0004121FA04F21E
:100E500020EA020000EBD3705EEA430E08BF20EAEE
:100E6000D37070BD94F0000F0FD101F00046400028
:100E700041EB010111F4801F08BF013CF7D041EAAA
:100E8000060195F0000F18BF704703F000465200AE
:100E900043EB030313F4801F08BF013DF7D043EA7F
:100EA0000603704794EA0C0F0CEA135518BF95EA35
:100EB0000C0F0CD050EA410618BF52EA4306D1D1BC
:100EC00081EA030101F000414FF0000070BD50EADB
:100ED000410606BF1046194652EA430619D094EA65
:100EE0000C0F02D150EA013613D195EA0C0F05D14F
:100EF00052EA03361CBF104619460AD181EA0301A3
:100F000001F0004141F0FE4141F470014FF000005A
:100F100070BD41F0FE4141F4780170BD70B54FF0F5
:100F2000FF0C4CF4E06C1CEA11541DBF1CEA135575
:100F300094EA0C0F95EA0C0F00F0A7F8A4EB050457
:100F400081EA030E52EA03354FEA013100F088804E
:100F50004FEA03334FF0805545EA131343EA126317
:100F60004FEA022245EA111545EA10654FEA0026CC
:100F70000EF000419D4208BF964244F1FD0404F585
:100F8000407402D25B084FEA3202B61A65EB0305E1
:100F90005B084FEA32024FF480104FF4002CB6EB9E
:100FA000020E75EB030E22BFB61A754640EA0C001E
:100FB0005B084FEA3202B6EB020E75EB030E22BF5E
:100FC000B61A754640EA5C005B084FEA3202B6EB9F
:100FD000020E75EB030E22BFB61A754640EA9C005E
:100FE0005B084FEA3202B6EB020E75EB030E22BF2E
:100FF000B61A754640EADC0055EA060E18D04FEAEC
:10100000051545EA16754FEA06164FEAC30343EA8B
:1010100052734FEAC2025FEA1C1CC0D111F4801F58
:101020000BD141EA00014FF000004FF0004CB6E751
:1010300011F4801F04BF01430020B4F1FD0C88BFF0
:10104000BCF5E06F3FF6AFAEB5EB030C04BFB6EBFB
:10105000020C5FEA500C50F1000041EB045170BDEE
:101060000EF0004E4EEA113114EB5C04C2BFD4EB1B
:101070000C0541EA045170BD41F480114FF0000E9F
:10108000013C90E645EA060E8DE60CEA135594EA1B
:101090000C0F08BF95EA0C0F3FF43BAF94EA0C0F1E
:1010A0000AD150EA01347FF434AF95EA0C0F7FF493
:1010B00025AF104619462CE795EA0C0F06D152EAE7
:1010C00003353FF4FDAE1046194622E750EA4106CB
:1010D00018BF52EA43067FF4C5AE50EA41047FF4DC
:1010E0000DAF52EA43057FF4EBAE12E74FF0FF3C41
:1010F00006E000BF4FF0010C02E000BF4FF0010C12
:101100004DF804CD4FEA410C7FEA6C5C4FEA430C8A
:1011100018BF7FEA6C5C1BD001B050EA410C0CBFD9
:1011200052EA430C91EA030F02BF90EA020F00203B
:10113000704710F1000F91EA030F58BF994208BFA2
:1011400090422CBFD8176FEAE37040F0010070475F
:101150004FEA410C7FEA6C5C02D150EA013C07D1B6
:101160004FEA430C7FEA6C5CD6D152EA033CD3D001
:101170005DF8040B704700BF8446104662468C46FB
:101180001946634600E000BF01B5FFF7B7FF00282E
:1011900048BF10F1000F01BD4DF808EDFFF7F4FF57
:1011A0000CBF012000205DF808FB00BF4DF808EDE2
:1011B000FFF7EAFF34BF012000205DF808FB00BF05
:1011C0004DF808EDFFF7E0FF94BF012000205DF827
:1011D00008FB00BF4DF808EDFFF7CEFF94BF0120DC
:1011E00000205DF808FB00BF4DF808EDFFF7C4FFD5
:1011F00034BF012000205DF808FB00BF4FEA410C1E
:101200007FEA6C5C02D150EA013C0AD14FEA430C00
:101210007FEA6C5C02D152EA033C02D14FF000003D
:1012200070474FF0010070474FEA410212F500127B
:1012300015D211D56FF47873B3EB625212D94FEA1D
:10124000C12343F0004343EA505311F0004F23FA07
:1012500002F018BF404270474FF00000704750EA5C
:10126000013005D111F0004008BF6FF00040704719
:101270004FF00000704700BF4A0011D212F5001273
:1012800011D20DD56FF47873B3EB62520ED44FEADE
:10129000C12343F0004343EA505323FA02F070475E
:1012A0004FF00000704750EA013002D14FF0FF309C
:1012B00070474FF0000070474FEA4102B2F1E0433F
:1012C00024BFB3F5001CDCF1FE5C0DD901F0004C2D
:1012D0004FEAC0024CEA5070B2F1004F40EB83007D
:1012E00008BF20F00100704711F0804F21D113F1A9
:1012F0003872BCBF01F00040704741F480114FEAE2
:101300005252C2F11802C2F1200C10FA0CF320FA6A
:1013100002F018BF40F001004FEAC1234FEAD32387
:1013200003FA0CFC40EA0C0023FA02F34FEA4303F1
:10133000CCE77FEA625307D150EA01331EBF4FF07A
:10134000FE4040F44000704701F0004040F0FE4095
:1013500040F40000704700BF53B94AB9002908BFE4
:1013600000281CBF4FF0FF314FF0FF3000F0AAB94A
:10137000ADF1080C6DE904CE00F03CF8DDF804E0B6
:10138000DDE9022304B0704738B50022002304468B
:101390000D46FFF70BFF28B920462946BDE8384027
:1013A00000F00AB8204605F1004100F005F840427F
:1013B00061EB410138BD00BFD0B50C4B00220646A1
:1013C0000F46FFF781FCFFF757FF0446FFF702FCCB
:1013D000074B0022FFF778FC02460B4630463946A1
:1013E000FFF7BAFAFFF748FF2146D0BD0000F03DF5
:1013F0000000F0412DE9F047089D04468E46002B81
:101400004DD18A42944669D9B2FA82F252B101FAB8
:1014100002F3C2F1200120FA01F10CFA02FC41EAC8
:10142000030E94404FEA1C48210CBEFBF8F61FFA4D
:101430008CF708FB16E341EA034306FB07F19942E8
:101440000AD91CEB030306F1FF3080F01F8199429B
:1014500040F21C81023E63445B1AA4B2B3FBF8F075
:1014600008FB103344EA034400FB07F7A7420AD9FC
:101470001CEB040400F1FF3380F00A81A74240F224
:1014800007816444023840EA0640E41B00261DB18F
:10149000D4400023C5E900433146BDE8F0878B42C4
:1014A00009D9002D00F0EF800026C5E90001304683
:1014B0003146BDE8F087B3FA83F6002E4AD18B425D
:1014C00002D3824200F2F980841A61EB0303012007
:1014D0009E46002DE0D0C5E9004EDDE702B9FFDEF3
:1014E000B2FA82F2002A40F09280A1EB0C014FEA9E
:1014F0001C471FFA8CFE0126200CB1FBF7F307FBFB
:10150000131140EA01410EFB03F0884208D91CEB9D
:10151000010103F1FF3802D2884200F2CB8043463A
:10152000091AA4B2B1FBF7F007FB101144EA014419
:101530000EFB00FEA64508D91CEB040400F1FF31A8
:1015400002D2A64500F2BB800846A4EB0E0440EA96
:1015500003409CE7C6F12007B34022FA07FC4CEA9F
:10156000030C20FA07F401FA06F31C43F9404FEA92
:101570001C4900FA06F3B1FBF9F8200C1FFA8CFEA7
:1015800009FB181140EA014108FB0EF0884202FAFB
:1015900006F20BD91CEB010108F1FF3A80F08880BC
:1015A000884240F28580A8F102086144091AA4B279
:1015B000B1FBF9F009FB101144EA014100FB0EFEFA
:1015C0008E4508D91CEB010100F1FF346CD28E4529
:1015D0006AD90238614440EA0840A0FB0294A1EBBA
:1015E0000E01A142C846A64656D353D05DB1B3EB17
:1015F000080261EB0E0101FA07F722FA06F3F14047
:101600001F43C5E9007100263146BDE8F087C2F1ED
:101610002003D8400CFA02FC21FA03F39140014365
:101620004FEA1C471FFA8CFEB3FBF7F007FB10369E
:101630000B0C43EA064300FB0EF69E4204FA02F44A
:1016400008D91CEB030300F1FF382FD29E422DD99D
:10165000023863449B1B89B2B3FBF7F607FB1633D2
:1016600041EA034106FB0EF38B4208D91CEB010152
:1016700006F1FF3816D28B4214D9023E6144C91AD2
:1016800046EA004638E72E46284605E70646E3E6E2
:101690001846F8E64B45A9D2B9EB020864EB0C0EEC
:1016A0000138A3E74646EAE7204694E74046D1E7FB
:1016B000D0467BE7023B614432E7304609E76444A9
:1016C000023842E7704700BF80B500AF4FF4614178
:1016D000002006F0FBFB1649164801F06BFF00F0F6
:1016E0007FF8154B01221A70144B03229A75134B85
:1016F0000022DA75114B00221A75104B00225A7520
:101700000E4B0F4A9A610D4B16221A620B4B2A227E
:101710009A600A4B4FF08042DA61084B02225A620B
:10172000064B084A9A62054B074ADA6200BF80BD41
:101730003925010800930208DC0200206C03002018
:101740000000C841000020410000A04080B582B0E8
:1017500000AF00F090FF786000F08DFF02467B68DC
:10176000D31AB3F57A7F02D300F085FF786000F0DA
:1017700005F800F02FFC06F063F9EDE780B500AF47
:1017800002F0C4F805F008FA05F0CEFE0F4B9B6896
:101790000F4A13600F4B9B690F4AA2FB0323DB0820
:1017A0000B4A53600A4B5B68292B02D9084B2A224B
:1017B0005A60074B9A68064B5B68D31A044AD36099
:1017C000064B5B6A024A136100BF80BDE807002038
:1017D0006C03002070AC0020CDCCCCCCD8AE002067
:1017E00080B582B002AF1B4B06221A70194B002243
:1017F0005A70642300934FF47A7332220021164802
:1018000001F0C0FA642300934FF47A73322201216D
:10181000124801F0B7FA642300934FF47A7332222E
:1018200002210F4801F0AEFA642300934FF47A735B
:10183000322203210B4801F0A5FA642300934FF4F0
:101840007A7332220421084801F09CFA00BFBD4699
:1018500080BD00BFE8020020EC020020040300204D
:101860001C030020340300204C03002090B585B0F9
:1018700002AF03F0CBFB0346002B00F09E83002059
:1018800003F0D8F903F048FC0346DA0F13445B1069
:101890009BB214339BB21CB203F046FC0346DA0F32
:1018A00013445B101AB24FF619631021204603F05F
:1018B000F9FC03F031FC03461AB24FF6196310210C
:1018C000002003F015FD03F027FC03461AB24FF683
:1018D00019632021002003F00BFD03F01DFC0346DB
:1018E0001AB24FF619633021002003F001FD03F016
:1018F00013FC03461AB24FF619634021002003F08F
:10190000F7FC03F009FC03461AB24FF619635021A5
:10191000002003F0EDFC032003F066FF594B4FF469
:10192000FC620021002003F08FFD032003F05CFF28
:10193000554B4FF6FF721021002003F085FD032068
:1019400003F052FF514B1B681846FFF765F902463A
:101950000B46CDE900234E4B4FF6FF7220210020AD
:1019600003F072FD494BDB6800934A4B4FF6FF7260
:101970003021002003F068FD444B1B691846FFF737
:101980004BF902460B46CDE90023434B4FF6FF725D
:101990004021002003F058FD03F0BEFB0346DA0FA0
:1019A00013445B1003F11404384B9B691846FFF78E
:1019B00033F902460B46CDE90023384B4FF6FF7250
:1019C0002021204603F040FD03F0A6FB0346DA0F7A
:1019D00013445B1003F114002C4B1B6A0093304B33
:1019E0004FF6FF72302103F02FFD03F095FB034605
:1019F000DA0F13445B1003F11404244B9B6A18465E
:101A0000FFF70AF902460B46CDE90023254B4FF6B6
:101A1000FF724021204603F017FD234B1B7883F013
:101A20000103DBB2002B4BD0204B1B78002B06D1DF
:101A30001F4B4FF6FF725021282003F005FD1B4B72
:101A40001B78012B06D11B4B4FF6FF72502128202B
:101A500003F0FAFC154B1B78022B06D1164B4FF600
:101A6000FF725021282003F0EFFC104B1B78032B52
:101A70002DD1124B4FF6FF725021282003F0E4FCC9
:101A800025E000BF08930208289302086C03002099
:101A90004493020858930208689302087893020856
:101AA000849302088C930208DC020020DD020020EF
:101AB00098930208A8930208B8930208C8930208F2
:101AC000C64B4FF6FF725021282003F0BDFC06F0F4
:101AD0003DFD03461A46C24B1A70C14B1B781A468D
:101AE0005021002006F0E8FC4FF6FF730193052318
:101AF0000093102319227021002003F043F94FF4C2
:101B000078430193052300930E23172271210120AE
:101B100003F032FA002003F067FEB24B4FF6FF727B
:101B20007521022003F090FC4FF6FF73019305230B
:101B300000931023192270211A2003F023F94FF487
:101B400078430193052300930E23172271211B2054
:101B500003F012FA002003F047FEA34B4FF6FF728A
:101B600075211C2003F070FC4FF6FF7301930523D1
:101B70000093102319227021342003F003F94FF44D
:101B800078430193052300930E23172271213520FA
:101B900003F0F2F9002003F027FE944B4FF6FF729A
:101BA0007521362003F050FC4FF6FF730193052397
:101BB00000931023192270214E2003F0E3F84FF414
:101BC00078430193052300930E23172271214F20A0
:101BD00003F0D2F9002003F007FE854B4FF6FF72A9
:101BE0007521532003F030FC4FF6FF73019305235A
:101BF0000093102319227021682003F0C3F84FF4DA
:101C000078430193052300930E2317227121692045
:101C100003F0B2F9002003F0E7FD764B4FF6FF72B8
:101C200073216A2003F010FC4FF6FF730193052324
:101C30000093102319227021822003F0A3F84FF49F
:101C400078430193052300930E23172271218320EB
:101C500003F092F9002003F0C7FD674B4FF6FF72C7
:101C60007321842003F0F0FB644B5B78002B10D1D0
:101C7000032003F0B9FD624B1B781A46614B1B78B9
:101C800001930092604B4FF6FF726021282003F011
:101C9000DBFB00237B6092E0584B5B78002B13D179
:101CA0001F230193052300930E2317227121012086
:101CB00003F062F9002003F097FD4A4B4FF6FF72E4
:101CC0007521022003F0C0FB4C4B5B78012B13D134
:101CD0001F230193052300930E23172271211B203C
:101CE00003F04AF9002003F07FFD3F4B4FF6FF72EF
:101CF00075211C2003F0A8FB404B5B78022B13D10D
:101D00001F230193052300930E23172271213520F1
:101D100003F032F9002003F067FD344B4FF6FF72F9
:101D20007521362003F090FB344B5B78032B13D1E5
:101D30001F230193052300930E23172271214F20A7
:101D400003F01AF9002003F04FFD294B4FF6FF7204
:101D50007521532003F078FB284B5B78042B13D1BB
:101D60001F230193052300930E231722712169205D
:101D700003F002F9002003F037FD1E4B4FF6FF720F
:101D800073216A2003F060FB1C4B5B78052B13D199
:101D90001F230193052300930E2317227121832013
:101DA00003F0EAF8002003F01FFD134B4FF6FF721B
:101DB0007321842003F048FB7B6801337B600F4B69
:101DC0001B781A467B689342FFF666AF0B4B5B7835
:101DD000052B40F0F08000233B60E5E0D89302083B
:101DE0009C030020E8930208EC930208F093020899
:101DF000F4930208F8930208FC930208E80200201A
:101E0000DE020020DF020020009402086D4BDB7D23
:101E1000002B41D103F080F90346DA0F13445B1025
:101E200003F114001F230193052300930F233C2289
:101E3000212103F0A1F8634B1B7D002B11D003F08F
:101E40006BF90346DA0F13445B1003F114004FF4EF
:101E500078430193052300930F233C22212103F0B3
:101E60008BF8032003F0C0FC03F056F90346DA0FA9
:101E700013445B1003F11404524B9B691846FEF7A0
:101E8000CBFE02460B46CDE900234F4B4FF6FF72C7
:101E90002021204603F0D8FA4A4BDB7D012B3AD1B2
:101EA00003F03AF90346DA0F13445B1003F1140010
:101EB0001F230193052300930F233C22312103F0BC
:101EC0005BF8404B1B7D002B11D003F025F9034636
:101ED000DA0F13445B1003F114004FF478430193BD
:101EE000052300930F233C22312103F045F8032002
:101EF00003F07AFC03F010F90346DA0F13445B1089
:101F000003F114002F4B1B6A0093304B4FF6FF7206
:101F1000302103F099FA2B4BDB7D022B41D103F0EA
:101F2000FBF80346DA0F13445B1003F114001F2380
:101F30000193052300930F233C22412103F01CF859
:101F4000204B1B7D002B11D003F0E6F80346DA0F7F
:101F500013445B1003F114004FF4784301930523FD
:101F600000930F233C22412103F006F8032003F0E5
:101F70003BFC03F0D1F80346DA0F13445B1003F186
:101F80001404104B9B6A1846FEF746FE02460B46A9
:101F9000CDE900230E4B4FF6FF724021204603F09F
:101FA00053FA3B6801333B60064B9B7D1A463B6806
:101FB0009342FFF62BAF03F03FF800BF0C37BD464E
:101FC00090BD00BF6C030020789302088493020840
:101FD0008C93020880B500AF304801F052F83048C9
:101FE00001F04FF82F4801F04CF82F4801F049F864
:101FF0002E4801F046F82A4801F050F8034603F055
:102000000403002B16D02A4B5B78002B06D0284BFC
:102010005B78013BDAB2264B5A7005E0244B1B7803
:10202000013BDAB2224B5A7000F025FB0346204AEE
:10203000C2F880301B4801F031F8034603F0040376
:10204000002B17D01A4B5B780133DAB2184B5A7059
:10205000174B5B78164A1278B3FBF2F101FB02F2E0
:102060009B1ADAB2124B5A7000F005FB0346104A75
:10207000C2F880300C4801F011F8034603F0040365
:10208000002B04D00A4B5B78184600F013F8074881
:1020900001F004F8FFF7EAFB00BF80BDEC0200206E
:1020A000040300201C030020340300204C03002004
:1020B000E802002080B584B000AF0346FB71012325
:1020C000FB73FB79052B3DD801A252F823F000BF2A
:1020D000E9200108FB200108092101081721010856
:1020E0002521010833210108244B00221A7000F039
:1020F00053F8224B01221A702AE0204B01221A7059
:10210000072002F005FC23E01C4B01221A70082076
:1021100002F0FEFB1CE0194B01221A70092002F0AC
:10212000F7FB15E0154B01221A700A2002F0F0FBB4
:102130000EE0124B01221A70114B01225A7500F069
:102140009BF805E00D4B01221A700023FB7300BFC2
:10215000FB7B002B0ED00B4800F06CFF0A4800F010
:1021600069FF0A4800F066FF094800F063FF09486C
:1021700000F060FF00BF1037BD4680BDDC020020CC
:102180006C030020EC020020040300201C0300204C
:10219000340300204C03002080B588B002AF3846DD
:1021A000642300934FF47A733222042100F0EAFD95
:1021B00000F061FA03462A4A136000F05CFA024616
:1021C000274B1B68D31A274A1360264B1B68264AE5
:1021D000A2FB03239B0BDAB2244B1A70214B1B6822
:1021E000224A127811464EF6602201FB02F29B1A37
:1021F0001F4AA2FB03239B09DAB21E4B1A703B460F
:10220000184600F03EFF3B46184600F047FF0346E5
:1022100003F00403002B0BD1FFF7B0FA00F020F914
:102220000346002B06D1FFF721FB05F009FCC4E7AC
:1022300000BF00E000BF0021072002F0DFFA00210C
:10224000082002F0DBFA0021092002F0D7FA002171
:102250000A2002F0D3FA00BF1837BD4680BD00BF88
:10226000E0020020E402002073B2E745DE02002015
:10227000D34D6210DF02002080B582B000AF00F0C5
:10228000FAF978600E4B5B7D83F00103DBB2002B23
:1022900011D100F0F0F902467B68D31AB3F57A7FCA
:1022A00002D300F0E8F97860FFF768FA00F00AF866
:1022B00005F0C6FBE6E700BF00BF0837BD4680BD9E
:1022C0006C03002080B500AF604800F0DAFE604883
:1022D00000F0D7FE5F4800F0D4FE5F4800F0D1FE6A
:1022E0005A4800F0DBFE034603F00403002B3DD008
:1022F0005A4B1B7D83F00103DBB2002B11D0574BEF
:10230000DB7D002B06D0554BDB7D013BDAB2534B16
:10231000DA752BE0514B9B7D013BDAB24F4BDA75FE
:1023200024E04E4BDB7D002B09D14C4BD3ED067ADC
:10233000B7EE007A77EEC77A484BC3ED067A474B83
:10234000DB7D012B04D1454B1B6A013B434A1362E1
:10235000424BDB7D022B09D1404BD3ED0A7AB7EE1D
:10236000007A77EEC77A3D4BC3ED0A7A384800F021
:1023700095FE034603F00403002B3ED0374B1B7D34
:1023800083F00103DBB2002B12D0344BDB7D013331
:10239000DAB2324BDA75314BDB7D304A927DB3FBDA
:1023A000F2F101FB02F29B1ADAB22C4BDA7524E04F
:1023B0002A4BDB7D002B09D1284BD3ED067AB7EEF3
:1023C000007A77EE877A254BC3ED067A234BDB7DC7
:1023D000012B04D1214B1B6A0133204A13621F4B8E
:1023E000DB7D022B09D11D4BD3ED0A7AB7EE007AC3
:1023F00077EE877A194BC3ED0A7A164800F04EFE45
:10240000034603F00403002B0ED0144B1B7D002B5E
:1024100014BF01230023DBB283F00103DBB203F01E
:102420000103DAB20D4B1A750B4800F037FE034674
:1024300003F00403002B05D0084B00221A75074B4C
:1024400000225A75FFF712FA00BF80BD0403002076
:102450001C030020340300204C0300206C030020E8
:1024600080B582B000AF0023FB71304B1B78032B8B
:102470004AD801A252F823F08924010897240108C0
:10248000CD240108F7240108284B01221A70284B9B
:1024900001221A7044E00121082002F0AFF9012165
:1024A000092002F0ABF9234BDB68092B35D800215A
:1024B000082002F0A3F90021092002F09FF91B4B2C
:1024C00002221A701A4B02221A7026E001210720FC
:1024D00002F094F9174BDA68164B1B6A9A421ED920
:1024E0000021072002F08AF9104B03221A70104BCA
:1024F00003221A7013E00123FB710C4B00221A70A7
:102500000B4B00221A700BE00023FB71074B0022DB
:102510001A70074B00221A7002E000BF00E000BFF3
:10252000FB7918460837BD4680BD00BF9D030020DB
:10253000DD0200206C03002080B584B000AF78601D
:102540000023FB737B681B88012B1ED17B685B69B2
:102550002649002098470346002B16D0244BBB6029
:10256000BB681946234800F015FFBB6820331946A5
:10257000214800F00FFF002003F042FE03461946F9
:102580001E4800F007FF0123FB737B681B88012BAB
:102590000CD17B685B691A49002098470346002BE1
:1025A00004D0002003F0CAFD0123FB737B681B8865
:1025B000012B0DD17B685B691249002098470346C7
:1025C000002B05D00021002003F02AFE0123FB731D
:1025D000FB7B83F00103DBB2002B02D00A4800F042
:1025E000D9FE00BF1037BD4680BD00BF1894020859
:1025F0000004000820940208349402084894020859
:102600005C940208689402087094020880B582B055
:1026100000AF0AF0B1FE00F035F800237B600F4BED
:102620001B6B0E4A43F0040313630C4B1B6B03F04C
:1026300004037B607B6800233B60084B1B6B074AED
:1026400043F080031363054B1B6B03F080033B6077
:102650003B6800BF0837BD4680BD00BF0038024060
:1026600080B582B000AF786078680AF0F7FE00BFEE
:102670000837BD4680BD80B500AF0AF0E3FE0346D3
:10268000184680BD80B59AB000AF07F138033022FC
:102690000021184612F05AFB07F1240300221A60A9
:1026A0005A609A60DA601A6107F10C0300221A601E
:1026B0005A609A60DA601A615A610023BB60304B3D
:1026C0001B6C2F4A43F0805313642D4B1B6C03F09B
:1026D0008053BB60BB6800237B602A4B1B68294A80
:1026E00043F440431360274B1B6803F440437B6073
:1026F0007B680923BB634FF48033FB630123FB64D6
:1027000002233B654FF480037B651923BB65C0231F
:10271000FB6502233B6604237B6607F138031846FA
:102720000CF0D6FE0346002B01D000F02DF80F234D
:102730007B620223BB620023FB624FF480533B6346
:1027400000237B6307F12403032118460DF02EF9C3
:102750000346002B01D000F017F80223FB604FF472
:102760000073FB6107F10C0318460DF0FFFA0346F6
:10277000002B01D000F008F800BF6837BD4680BDCF
:10278000003802400070004080B400AF72B600BF55
:10279000FEE7000080B483B000AF00237B60104BE5
:1027A0005B6C0F4A43F4804353640D4B5B6C03F442
:1027B00080437B607B6800233B60094B1B6C084AAD
:1027C00043F080531364064B1B6C03F080533B6053
:1027D0003B6800BF0C37BD465DF8047B704700BF07
:1027E0000038024080B400AFFEE780B400AFFEE7DF
:1027F00080B400AFFEE780B400AFFEE780B400AF66
:10280000FEE780B400AF00BFBD465DF8047B7047B3
:1028100080B400AF00BFBD465DF8047B704780B454
:1028200000AF00BFBD465DF8047B704780B500AFC8
:102830000AF0F4FD03F060FC00BF80BD80B500AF7E
:1028400002480AF072FE00BF80BD00BF30AE00201B
:1028500080B500AF02480FF089FD00BF80BD00BF0A
:1028600030AC002080B500AF02480FF06BFA00BF1B
:1028700080BD00BF78AD002080B500AF024810F0E9
:10288000BDFC00BF80BD00BFD4B2002080B500AF4A
:1028900002480DF0DDFE00BF80BD00BFECAA0020A5
:1028A00080B500AF02480BF001FE00BF80BD00BF45
:1028B00078AE002080B500AF02480BF0F7FD00BFF6
:1028C00080BD00BF74B3002080B500AF02480BF09C
:1028D000EDFD00BF80BD00BFD0AB002080B500AFD4
:1028E00002480BF0E3FD00BF80BD00BFD0AD00206B
:1028F00080B500AF02480BF0D9FD00BF80BD00BF1E
:1029000070AB002080B500AF02480BF0CFFD00BFD8
:1029100080BD00BF14B3002080B400AF012318466F
:10292000BD465DF8047B704780B582B000AF78602B
:10293000396012F0C3F9034616221A604FF0FF33D4
:1029400018460837BD4680BD80B582B000AF7860BC
:102950004FF0FF317868FFF7E7FFFEE780B586B0FC
:1029600000AFF860B9607A6000237B610AE0AFF3E2
:1029700000800146BB685A1CBA60CAB21A707B69F3
:1029800001337B617A697B689A42F0DB7B68184689
:102990001837BD4680BD80B586B000AFF860B9601D
:1029A0007A6000237B6109E0BB685A1CBA601B781F
:1029B0001846AFF300807B6901337B617A697B68DD
:1029C0009A42F1DB7B6818461837BD4680BD80B45B
:1029D00083B000AF78604FF0FF3318460C37BD4628
:1029E0005DF8047B704780B483B000AF78603960D5
:1029F0003B684FF400525A60002318460C37BD461E
:102A00005DF8047B704780B483B000AF7860012329
:102A100018460C37BD465DF8047B704780B485B01E
:102A200000AFF860B9607A60002318461437BD46DD
:102A30005DF8047B7047000080B586B000AF786019
:102A4000144A154BD31A7B617B693B61134B1B689E
:102A5000002B02D1114B124A1A60104B1A687B6886
:102A600013443A699A4207D212F028F903460C221D
:102A70001A604FF0FF3309E0084B1B68FB60074BFF
:102A80001A687B681344054A1360FB6818461837B8
:102A9000BD4680BD0000022000040000A00300200D
:102AA00070B4002080B400AF074BD3F88830064ADA
:102AB00043F47003C2F88830034B044A9A6000BFA5
:102AC000BD465DF8047B704700ED00E0000401089E
:102AD000DFF834D0002103E00C4B5B584350043145
:102AE0000B480C4B42189A42F6D30B4A02E00023E3
:102AF00042F8043B094B9A42F9D3FFF7D3FF12F097
:102B0000E3F812F0CFF8704700000220247D03089C
:102B100000000020B4020020C00200206CB400209D
:102B2000FEE780B487B000AFF860B9607A60012337
:102B3000FB75FB6800221A60FB6800225A60FB6884
:102B40007A689A60FB68BA68DA60FB7D18461C37C1
:102B5000BD465DF8047B704780B487B000AFF86075
:102B6000B9607A600123FB7500233B6126E0FB68B6
:102B7000DB68002B09D0FB68DA68FB685B681A44E5
:102B80003B69B9680B4412781A70FB685A68FB6895
:102B90001B689A420CD0FB685B680133FA68926844
:102BA000B3FBF2F101FB02F29A1AFB685A6002E0F1
:102BB0000023FB7506E03B6901333B613B697A68A2
:102BC0009A42D4D8FB7D18461C37BD465DF8047B7D
:102BD000704780B485B000AF78607B681A687B6806
:102BE0005B68D31A7A689268B3FBF2F101FB02F2D8
:102BF0009B1AFB60FB6818461437BD465DF8047BE2
:102C00007047000080B400AF144BDB68134A23F018
:102C10008073D360114BDB68104A43F08073D3603C
:102C20000F4B1B680E4A23F0010313600C4B1B680B
:102C30000B4A43F001031360094B00225A6000BFA6
:102C400000BF00BF064B5B68002B01D0002300E0F3
:102C500001231846BD465DF8047B7047F0ED00E0A7
:102C6000001000E080B58AB000AF012387F8233060
:102C700007F10C0300221A605A609A60DA601A6148
:102C80000023BB60234B1B6B224A43F001031363F9
:102C9000204B1B6B03F00103BB60BB6800237B6010
:102CA0001C4B1B6B1B4A43F002031363194B1B6B3A
:102CB00003F002037B607B6800233B6100237B629F
:102CC0001BE0154A7B6A1B01134404331B68FB603D
:102CD000114A7B6A1B01134408331B687B610E4A4F
:102CE0007B6A1B0113441B6807F10C02114618464E
:102CF0000CF03AF97B6A01337B627B6A042BE0DDDE
:102D00000649074800F056FC97F823301846283744
:102D1000BD4680BD0038024004000020D1300108CB
:102D20007C94020880B584B000AF0346FB71002399
:102D3000FB73FB79042B01D900231CE0FB79104ABB
:102D40001B0113441A68FB790D491B010B44043322
:102D50001B689BB2194610460CF06EFB03461946E1
:102D6000FB79074A1B0113440C331B78994201D1AC
:102D70000123FB73FB7B18461037BD4680BD00BFA7
:102D80000400002080B584B000AFF8607A603B603A
:102D90000B46FB72FB68FA7A1A70FB6800225A70C5
:102DA000FFF769FC0246FB681A61FB687A685A60A3
:102DB000FB683A689A60FB68BA69DA60FB680022CF
:102DC0001A75FB6800225A75FB6800229A7500BFCD
:102DD0001037BD4680BD000080B584B000AF78607C
:102DE0000B46FB700023FB73FB78002B02D0786846
:102DF00000F060F97B685B78042B00F2158101A27A
:102E000052F823F0192E0108392E0108632E01080B
:102E1000152F01089B2F01087B681B781846FFF7C8
:102E200081FF034683F00103DBB2002B00F0F38047
:102E30007B6801225A70EEE07B681B781846FFF72A
:102E400071FF0346002B00F0E8807B6802225A7075
:102E5000FFF711FC02467B681A617B6800229A75B5
:102E6000DBE07B681B781846FFF75CFF0346002B0E
:102E700029D0FFF700FC02467B681B69D21A7B68E9
:102E80005B689A42C0F0CB800123FB737B6803220E
:102E90005A70FFF7F0FB02467B681A617B681B7D66
:102EA00043F00403DAB27B681A757B685B7D43F0FC
:102EB0000103DAB27B685A757B689B7D0133DAB215
:102EC0007B689A75ABE07B6801225A707B685B7DFA
:102ED00003F00103002B00F0A2807B681B7D43F010
:102EE0000203DAB27B681A757B685B7D43F00203EC
:102EF000DAB27B685A757B685B7D23F00103DAB236
:102F00007B685A757B685B7D23F00403DAB27B68CB
:102F10005A7584E07B681B781846FFF703FF034669
:102F2000002B31D0FFF7A7FB02467B681B69D21A42
:102F30007B689B689A4274D30123FB73FFF79BFB6A
:102F400002467B681A610123FB737B6804225A7076
:102F50007B681B7D43F00403DAB27B681A757B68DB
:102F60001B7D43F00803DAB27B681A757B685B7DD2
:102F700043F00403DAB27B685A757B689B7D0133AA
:102F8000DAB27B689A754CE07B6802225A70FFF7D0
:102F900072FB02467B681A6143E07B681B78184627
:102FA000FFF7C0FE0346002B2CD0FFF764FB024660
:102FB0007B681B69D21A7B68DB689A4233D3012392
:102FC000FB73FFF758FB02467B681A617B681B7D29
:102FD00043F00403DAB27B681A757B681B7D43F00B
:102FE0000803DAB27B681A757B685B7D43F00403E3
:102FF000DAB27B685A757B689B7D0133DAB27B68F5
:103000009A7510E07B6802225A70FFF734FB024683
:103010007B681A6107E000BF06E000BF04E000BF64
:1030200002E000BF00E000BFFB7B18461037BD4642
:1030300080BD00BF80B582B000AF78607B680022A1
:103040005A70FFF718FB02467B681A617B68002202
:103050001A757B6800225A757B6800229A750123D5
:1030600018460837BD4680BD80B582B000AF786095
:1030700000217868FFF7B0FE034618460837BD46C2
:1030800080BD80B582B000AF786001217868FFF71D
:10309000A3FE034618460837BD4680BD80B483B002
:1030A00000AF78607B681B7D18460C37BD465DF825
:1030B000047B704780B483B000AF78607B680022E7
:1030C0001A7500BF0C37BD465DF8047B70470000E1
:1030D00080B5A8B002AF7860002387F897307B688E
:1030E0001B88012B2ED17B685B696E4900209847B5
:1030F0000346002B26D01DE00023C7F890300FE0D8
:10310000D7F89030DBB21846FFF70CFE034619469D
:10311000654800F03FF9D7F890300133C7F8903098
:10312000D7F89030042BEBDD604800F033F96420D1
:10313000FFF796FA00F028FA0346002BDCD10123B2
:1031400087F897307B681B88012B40F099807B685B
:103150005B695749002098470346002B00F0908098
:103160000023C7F88C3017E007F10C01D7F88C204A
:1031700013465B001344DB00C818D7F88C30D9B273
:10318000642300934FF47A733222FFF7FBFDD7F8E4
:103190008C300133C7F88C30D7F88C30042BE3DD4A
:1031A00066E00023C7F888305BE007F10C01D7F830
:1031B000882013465B001344DB000B441846FFF7DE
:1031C00053FF07F10C01D7F8882013465B00134426
:1031D000DB000B441846FFF761FF034687F8873092
:1031E00097F88730002B37D097F8873003F001032A
:1031F000002B04D0D7F888102E4800F0CBF897F8B1
:10320000873003F00403002B0FD0D7F88820134633
:103210005B001344DB0098333B44763B1B781A4633
:10322000D7F88810244800F0B5F897F8873003F0F5
:103230000203002B04D0D7F88810204800F0AAF829
:1032400007F10C01D7F8882013465B001344DB001C
:103250000B441846FFF72EFFD7F888300133C7F824
:103260008830D7F88830042B9FDD0520FFF7F8F968
:1032700000F08AF90346002B93D1012387F8973099
:1032800097F8973083F00103DBB2002B05D00C4890
:1032900000F080F80B4800F07DF800BF9837BD467D
:1032A00080BD00BF849402088C94020890940208A8
:1032B000949402089C940208B0940208CC940208EA
:1032C000E0940208F094020880B500AF1B4B002286
:1032D0001A721A4B00225A72184B00221A74174B9A
:1032E000002283F89521154B002283F89621134B79
:1032F000002283F89721114B002283F894210F4B71
:103300000F4AC3F834240D4B0E4AC3F838240B4B34
:103310000D4AC3F83C24094B0C4AC3F84024074823
:1033200000F01EF80A490B4800F044F90A490B481E
:1033300000F040F90123184680BD00BFA40300201F
:103340004534010895340108ED340108353501088C
:103350004936010800950208B936010808950208A7
:1033600080B483B000AF78607B68002283F8E622E7
:103370007B68002283F8E5227B683F2283F8E42201
:103380007B68002283F8A42200BF0C37BD465DF89D
:10339000047B70470FB480B584B000AF07F11C0305
:1033A0007B600D4BFB60FB6803F111007B68BA6921
:1033B0004FF4807113F05AF9B860FB681878FB6815
:1033C0001133BA68194604F0FFFE00BF1037BD463E
:1033D000BDE8804004B07047A403002080B485B0ED
:1033E00000AF78600023FB8118E0FB897A68134402
:1033F0001B787B737B7B002B14D07B7B602B05D9E8
:103400007B7B7A2B02D87B7B203B7B73FB897A68A2
:1034100013447A7B1A70FB890133FB81FB890F2BE4
:10342000E3D900E000BFFB89102B05D1FB89013BEC
:103430007A68134400221A7000BF1437BD465DF845
:10344000047B704780B584B000AF0346FB71002356
:10345000FB600F4BBB60FB799AB2BB68B3F82C34AE
:103460009A4201D300230EE0BB68D3F83024FB79E5
:103470009B0013441B6800220021184613F0C0F87B
:103480000346FB60FB6818461037BD4680BD00BF91
:10349000A403002080B584B000AF0346FB714FF059
:1034A0000003FB60104BBB60FB799AB2BB68B3F8BA
:1034B0002C349A4202D34FF000030DE0BB68D3F8DE
:1034C0003024FB799B0013441B680021184612F03E
:1034D000C9FF87ED030AFB6807EE903AB0EE670A72
:1034E0001037BD4680BD00BFA403002080B485B066
:1034F00000AF0346FB710023FB600D4BBB60FB7903
:103500009AB2BB68B3F82C349A4201D3002308E086
:10351000BB68D3F83024FB799B0013441B68FB6025
:10352000FB6818461437BD465DF8047B704700BF42
:10353000A403002080B584B000AF03463960FB715E
:103540000023FB730F4BBB60FB799AB2BB68B3F8E7
:103550002C349A4201D3002310E0BB68D3F8302406
:10356000FB799B0013441B6819463868FDF788F9FE
:103570000346002B01D10123FB73FB7B1846103758
:10358000BD4680BDA403002080B582B000AF084BCB
:103590007B607B681B78184604F0AAFD0346002B6D
:1035A00001D1012300E0002318460837BD4680BD45
:1035B000A403002080B586B000AF78603960012395
:1035C000FB75204B3B613B69B3F8E8320F2B01D907
:1035D000002332E03B69B3F8E832FB81FA891346F5
:1035E0009B0013449B0003F53A733A691344043378
:1035F0007968184612F00CF9FA89396913469B006C
:1036000013449B000B4403F53F733A681A60FA8930
:1036100013469B0013449B0003F53A733A69134425
:1036200004331846FFF7DAFE3B69B3F8E83201339A
:103630009AB23B69A3F8E822FB7D18461837BD46CD
:1036400080BD00BFA403002080B584B000AF7860C7
:10365000154BBB601548FFF79DFE1548FFF79AFE16
:103660000023FB6012E0FA6813469B0013449B00A2
:1036700003F53A73BA68134404331846FFF78AFE19
:103680000A48FFF787FEFB680133FB60BB68B3F8AD
:10369000E8321A46FB689342E5DB0648FFF77AFEFC
:1036A00000BF1037BD4680BDA4030020D09502089E
:1036B000D4950208F495020880B58CB000AF78600C
:1036C0001023BB627B681B887B617B685B683B6106
:1036D0007B681B88002B03D14048FFF75BFE7AE034
:1036E0007B69012B09DD3B6904331B680022002143
:1036F000184612F085FF0346BB623B691B68002237
:103700000021184612F07CFF03467B627B6ABB6196
:103710003348FFF73FFE0023FB6258E0FB6A03F0EB
:103720000303002B04D17B6A19462E48FFF732FEB3
:103730007B6A1B6819462C48FFF72CFEFB6A5A422D
:1037400003F0030302F0030258BF5342032B38D1A6
:103750002648FFF71FFE00233B622CE0BB691B6875
:10376000FB600023FB611DE007F10C02FB691344C1
:103770001B781F2B10D907F10C02FB6913441B782F
:103780007E2B09D807F10C02FB6913441B781946FC
:103790001748FFF7FFFD02E01648FFF7FBFDFB6946
:1037A0000133FB61FB69032BDEDDBB690433BB61C5
:1037B0003B6A01333B623B6A032BCFDD0E48FFF7C8
:1037C000E9FD7B6A04337B62FB6A0133FB62FA6AC0
:1037D000BB6A9A42A2DB3037BD4680BD1496020810
:1037E00028960208309602083C9602084496020881
:1037F000489602084C9602085096020880B582B09E
:1038000000AF0523FB71012239493A4802F005FA5D
:10381000394B00221A7002E0642009F01FFE09F003
:1038200011FE034640F6B7329342F5D9314802F013
:10383000E2FA03461A46314B1A7019E0642009F087
:103840000DFE2D4B1B780133DAB22B4B1A702A4B2D
:103850001B78013B1B012A4A13441946254802F0F4
:10386000DFFB244802F0D7FA03461A46234B1A70AE
:10387000224B1B78002BE1D11F4B1B78002B06D16C
:10388000FB79013BFB71FB79002BBCD100E000BF51
:10389000FB79002B01D1002326E00023BB7119E046
:1038A000322009F0DBFDBB791B01154A13440C22C1
:1038B0001946104800F0CCF9322009F0CFFDBB7951
:1038C0001B010F4A134419460A4800F05AFABB7903
:1038D0000133BB71084B1B78BA799A42E0D309498E
:1038E0000948FFF767FE012318460837BD4680BD2B
:1038F00000040240F80700200D0800200C080020FA
:10390000E8070020513E01086096020890B583B098
:1039100000AF3F4B1B78002B02D0012B13D072E07D
:103920003C4B4FF4FA721A803B4800F07DF8FEF7EA
:10393000A2FE0346394A1360354B1B780133DAB2D5
:10394000334B1A705FE0FEF796FE0246334B1B685E
:10395000D31A092B56D9304800F06EFA0346002BD3
:1039600012D1FEF788FE03462C4A1360294B1B88B0
:10397000013B9AB2274B1A80264B1B88002B41D162
:10398000234B00221A703EE0224B1B88002B24D0D0
:103990000023FB711BE0FB791B01214A9918FB797D
:1039A0001B0108331E4A1344FC791A461A4800F0DA
:1039B0004FF8034619461A4A230113440C330A46AA
:1039C0001A70134B00221A70FB790133FB71154BEF
:1039D0001B78FA799A42DED314E00023BB710CE025
:1039E000BB790F4A1B0113440C3300221A70084B99
:1039F00000221A70BB790133BB710A4B1B78BA796C
:103A00009A42EDD300BF012318460C37BD4690BD46
:103A1000100800200E080020F807002014080020DD
:103A2000E80700200D08002080B582B000AF786064
:103A3000786802F01BF9CC21786802F09DF94421E6
:103A4000786802F099F900BF0837BD4680BD0000D4
:103A500090B58BB000AFF860B9607A60002387F84A
:103A600024300023FB77B86800F07AF90346002B76
:103A700001D10023E1E0F86802F054F90346002B7D
:103A800001D10023D9E0F86802F0F0F8B968F868CD
:103A900002F0A7FABE21F86802F06EF90023FB7766
:103AA0000DE0FC7FF86802F085F903461A4604F140
:103AB00028033B4403F8142CFB7F0133FB77FB7F87
:103AC000082BEED907F114030821184602F0C5FAB5
:103AD0000346BB773B7FBA7F9A4201D00023ACE01C
:103AE0003B7D1AB27B7D1B021BB213431BB2FB84CE
:103AF000F86802F0BBF8B7F92630002B05DAFB8C2A
:103B00005B42FB84012387F824303B7E5B11DBB2F0
:103B100003F00303DBB209337B77FB8C1B099BB2F9
:103B200087F82530FB8C1B0A9BB21B015BB203F0AC
:103B300070035AB297F82530134387F825307B7FFE
:103B4000093B032B58D801A252F823F05D3B010832
:103B5000853B0108AD3B0108D53B0108FB8CDB0828
:103B60009BB203F0010307EE903AF8EEE77AC7ED57
:103B7000087AD7ED087AB6EE007A67EE877AC7ED55
:103B8000087A3EE0FB8C9B089BB203F0030307EE30
:103B9000903AF8EEE77AC7ED087AD7ED087AB5EEF5
:103BA000007A67EE877AC7ED087A2AE0FB8C5B081B
:103BB0009BB203F0070307EE903AF8EEE77AC7ED01
:103BC000087AD7ED087AB4EE007A67EE877AC7ED07
:103BD000087A16E0FB8C03F00F0307EE903AF8EE3C
:103BE000E77AC7ED087AD7ED087A9FED167A67EE87
:103BF000877AC7ED087A04E0134B3B62002387F80D
:103C0000253097F9253007EE903AF8EEE77A97EDF0
:103C1000087A77EE277AC7ED087A97F92430002BD7
:103C200007D09FED0A7AD7ED087A77EE677AC7ED6D
:103C3000087A7B683A6A1A60012318462C37BD4619
:103C400090BD00BF0000803D00007F4300000000E9
:103C500080B586B000AFF860B9601346FB71B868F4
:103C600000F07EF80346002B01D1002374E0F868D1
:103C700001F0FCFFB968F86802F0B3F9BE21F868FA
:103C800002F07AF8F86802F095F8F86802F092F815
:103C9000F86802F08FF80346BB75F86802F08AF8FE
:103CA00003467B75F86802F085F80346FB75FB79DF
:103CB000092B08D1FB7D23F04003FB75FB7D23F02E
:103CC0002003FB7522E0FB790A2B08D1FB7D23F052
:103CD0004003FB75FB7D43F02003FB7516E0FB7989
:103CE0000B2B08D1FB7D43F04003FB75FB7D23F0DC
:103CF0002003FB750AE0FB790C2B07D1FB7D43F019
:103D00004003FB75FB7D43F02003FB75F86801F071
:103D1000ADFFB968F86802F064F94E21F86802F066
:103D20002BF8BB7D1946F86802F026F87B7D194612
:103D3000F86802F021F8FB7D1946F86802F01CF8DB
:103D4000F86801F093FFB968F86802F04AF9482171
:103D5000F86802F011F8012318461837BD4680BDF7
:103D600080B483B000AF78607B681B78282B01D1CA
:103D7000012300E0002318460C37BD465DF8047BA4
:103D8000704780B584B000AF786039603868FFF75D
:103D9000E7FF0346002B01D1002349E0786801F0DA
:103DA00065FF3968786802F01CF9BE21786801F077
:103DB000E3FF786801F0FEFF786801F0FBFF7868A8
:103DC00001F0F8FF0346FB73786801F0F3FF034648
:103DD000BB73786801F0EEFF03467B737D23FB73B2
:103DE000C923BB73786801F041FF3968786802F035
:103DF000F8F84E21786801F0BFFFFB7B1946786820
:103E000001F0BAFFBB7B1946786801F0B5FF7B7BF8
:103E10001946786801F0B0FF786801F027FF39682B
:103E2000786802F0DEF84821786801F0A5FF0123E8
:103E300018461037BD4680BD80B582B000AF7860AF
:103E4000786801F06FFF034618460837BD4680BD0D
:103E500080B584B000AF78600023FB737B681B885B
:103E6000012B1BD17B685B691349002098470346EF
:103E7000002B13D00BE0FFF749FD104B9B68184651
:103E8000FCF7CAFE02460B460D48FFF783FAFFF720
:103E90007BFB0346002BEED10123FB73FB7B83F0FE
:103EA0000103DBB2002B02D00648FFF773FA00BF14
:103EB0001037BD4680BD00BF68960208E8070020A5
:103EC000709602088896020880B582B000AF012380
:103ED000FB710D490D4809F063F90346002B0AD127
:103EE000002209490A4807F055FD0346002B02D17C
:103EF000084B01221A7008490848FFF75BFBFB7961
:103F000018460837BD4680BD500A00200C9C0208A8
:103F10001C08002018080020F53F010898960208A8
:103F200080B5D6B000AF07F5AC73A3F5AA731860DF
:103F300007F5AC73A3F5AA7307F5907219681046DC
:103F400008F0A1FC034687F8573197F85731002B4A
:103F500044D107F1080207F590731146184608F09E
:103F60003BFD034687F8573197F85731002B30D186
:103F700007F5AC73A3F5A8739B7D002B29D007F53B
:103F8000AC73A3F5A8731B7A03F01003002B0CD0BD
:103F900007F1080303F1160207F5AC73A3F5AA7342
:103FA00019681248FFF7F6F9D3E707F5AC73A3F5E4
:103FB000A8731B68184607F1080303F1160207F5FA
:103FC000AC73A3F5AA71034609680948FFF7E2F943
:103FD000BFE707F59073184608F0D8FC97F85731FB
:103FE000184607F5AC77BD4680BD00BFA096020815
:103FF000AC96020880B5ADF51A7D00AF07F51A73CF
:10400000A3F519731860002387F8673207F51A7350
:10401000A3F519731B681B88012B4DD107F51A7383
:10402000A3F519731B685B69904900209847034604
:10403000002B41D08E4B1B7819468E48FFF7AAF90A
:104040008B4B1B78002B34D007F5117207F51073DA
:104050001946894808F00DFD034687F85F3297F846
:104060005F32002B1FD1D7F844329B69023BD7F84F
:104070004422528902FB03F3C7F85832D7F844327E
:104080005B891A46D7F8403202FB03F3C7F8543273
:10409000D7F858325908D7F854325B081A4677488F
:1040A000FFF778F905E097F85F3219467448FFF793
:1040B00071F9012387F8673207F51A73A3F51973AD
:1040C0001B681B88012B1ED107F51A73A3F5197302
:1040D0001B685B696B49002098470346002B12D090
:1040E0006948FFF71DFF034687F8533297F85332AC
:1040F000002B05D097F8533219466148FFF74AF96B
:10410000012387F8673207F51A73A3F519731B6843
:104110001B88012B40F0958007F51A73A3F51973DE
:104120001B685B695949002098470346002B00F043
:104130008880FEF7A0FAC7F84C0207F108030B22AB
:104140005349184607F06CFC034687F84B3297F842
:104150004B32002B65D107F108034E49184608F091
:10416000B5FD07F108034C49184608F0AFFD07F10B
:1041700008034A49184608F0A9FD07F10803484911
:10418000184608F0A3FD07F108034649184608F051
:104190009DFD0023C7F860320CE007F10803D7F853
:1041A00060224149184608F091FDD7F8603201338A
:1041B000C7F86032D7F86032072BEEDD07F108034D
:1041C0000021184608F056F91CE00023C7F83C32DD
:1041D00007F50F7307F23B2107F10800012207F0F2
:1041E000EDFD034687F84B3297F84B32002B0FD189
:1041F000D7F83C32002B0DD097F83B3219462B48AC
:10420000FFF7C8F8FFF7C0F90346002BDDD102E045
:1042100000BF00E000BF07F10803184608F000F9EE
:1042200002E02348FFF7B6F8FEF725FA0246D7F872
:104230004C32D31A19461F48FFF7ACF8012387F810
:10424000673297F8673283F00103DBB2002B08D0A6
:104250001948FFF79FF81948FFF79CF81848FFF72F
:1042600099F800BF07F51A77BD4680BDC0960208D1
:1042700018080020C8960208DC960208E09602089A
:10428000149702082097020824970208289702082A
:1042900030970208389702084097020848970208AA
:1042A000509702085497020858970208609702082E
:1042B00064970208749702087C970208889702089E
:1042C0009497020880B500AF03490448FFF772F9DC
:1042D0000123184680BD00BFA1440108A097020831
:1042E00080B58CB000AF78603960002387F82F303C
:1042F0004FF6FF73BB850023BB6200237B6215E092
:104300007B6A9BB23A687968184600F071F80346F8
:10431000002B08D0B7F92C30002B01DA7B6ABB8563
:10432000BB6A0133BB627B6A01337B627B6A072B0A
:10433000E6DDBB6A002B20D00AF082FB0023FB6085
:1043400001233B61B7F92C307B61BB6ABB6102235F
:10435000FB6107F1080207F10C03114618460AF049
:10436000E1FC034687F8233097F82330002B02D175
:10437000012387F82F300AF085FB97F82F30184675
:104380003037BD4680BDB0B588B000AFF860B960C9
:104390007A600123FB770AF053FB0023BB611BE02B
:1043A000BB69BA6813441B78FB82BA69FB68D118F1
:1043B000FB8A00221C46154622462B4600200AF0A6
:1043C000EBFA03467B757B7D002B02D00023FB7745
:1043D00006E0BB690133BB61BB697A689A42DFD8EA
:1043E0000AF050FBFB7F18462037BD46B0BD0000E9
:1043F00080B48BB000AF0346B9607A60FB810023C4
:1044000087F82730FB89254A52F833303B62FB8915
:10441000224A52F83320FB892049DB000B445B68B9
:104420001344013BFB61BB68BB61BA687B68134402
:10443000013B7B613A6ABB699A4206D33A6A7B695F
:104440009A4202D8012387F82730FA69BB699A4259
:1044500006D3FA697B699A4202D8012387F827308C
:10446000BA693B6A9A4206D3BA69FB699A4202D892
:10447000012387F827307A693B6A9A4206D37A6922
:10448000FB699A4202D8012387F8273097F8273032
:1044900018462C37BD465DF8047B70475400002059
:1044A00080B58CB000AF7860002387F82F307B6830
:1044B0001B88012B21D17B685B695C4900209847F0
:1044C0000346002B19D00023BB6210E0584ABB6A98
:1044D00052F83310564ABB6ADB0013445B689B0AF0
:1044E0001A465448FEF756FFBB6A0133BB62BB6AEB
:1044F000072BEBDD012387F82F307B681B88032B0C
:104500002BD17B685B694C49002098470346002B00
:1045100023D07B689B680120984703463B627B68F9
:104520009B68022098470346FB6100237B620DE0F5
:104530007A6A3B6AD1187A6A3B6A13441B781A4636
:104540003E48FEF727FF7B6A01337B627B6AFA698C
:104550009A42EDD8012387F82F307B681B88032B04
:1045600021D17B685B693649002098470346002BC0
:1045700019D07B689B68012098470346BB617B6824
:104580009B680220984703467B617969B869FFF709
:10459000A7FE0346002B03D02A48FEF7FBFE02E0ED
:1045A0002948FEF7F7FE7B681B88032B27D17B6821
:1045B0005B692649002098470346002B1FD07B6883
:1045C0009B680120984703463B617B689B680220FB
:1045D00098470346FB6007F10C030422194638692B
:1045E000FFF7D1FE0346002B03D01948FEF7D2FE99
:1045F00002E01848FEF7CEFE012387F82F3097F827
:104600002F3083F00103DBB2002B0BD01248FEF7F2
:10461000C1FE1248FEF7BEFE1148FEF7BBFE114870
:10462000FEF7B8FE00BF3037BD4680BDA897020830
:1046300054000020B0970208C0970208C8970208EB
:10464000D8970208E0970208EC970208F89702084A
:10465000009802080C98020818980208249802088A
:10466000409802085C98020880B584B000AF01232E
:10467000FB7200237B60244B1B6B234A43F0010336
:104680001363214B1B6B03F001037B607B680023EA
:104690003B601D4B1B6B1C4A43F0020313631A4B18
:1046A0001B6B03F002033B603B680023FB601EE0D2
:1046B000FB68D8B21549FA6813465B0013449B00A7
:1046C0000B4408331B78194600F026F8FB68D8B273
:1046D0000E49FA6813465B0013449B000B440B33EE
:1046E0001B78194600F08AF8FB680133FB60FB6811
:1046F0000A2BDDDD06490748FEF75CFFFB7A18460A
:104700001037BD4680BD00BF003802403C9B020808
:10471000594901087498020880B588B000AF034673
:104720000A46FB711346BB710123FB7707F10803AF
:1047300000221A605A609A60DA601A61FB790A2BCB
:1047400001D9002354E0BB79062B38D801A252F8D6
:1047500023F000BF714701087B4701088547010826
:104760008F47010899470108A3470108AD47010891
:104770000023FB6000233B6121E00023FB60012359
:104780003B611CE00023FB6002233B6117E0012337
:10479000FB6000233B6112E00123FB6001233B61CE
:1047A0000DE00123FB6002233B6108E00223FB6074
:1047B00000233B6100237B610223BB6100BFFA79C8
:1047C0000D4913465B0013449B000B4404331B68E4
:1047D000BB60FA79084913465B0013449B000B4405
:1047E0001B6807F10802114618460AF0BDFBFB7F63
:1047F00018462037BD4680BD3C9B020890B583B06B
:1048000000AF03460A46FB711346BB71FB790A2BC6
:1048100040D8BB79002B1ED0FA79204913465B00A3
:1048200013449B000B441868FA791C4913465B003B
:1048300013449B000B4404331B6899B2FA79174C5C
:1048400013465B0013449B00234409331B781A462C
:104850000AF00AFE1FE0FA79104913465B00134480
:104860009B000B441868FA790C4913465B0013440B
:104870009B000B4404331B6899B2FA79074C13462A
:104880005B0013449B0023440A331B781A460AF04A
:10489000EBFD00E000BF0C37BD4690BD3C9B02081D
:1048A00080B584B000AF0346FB710023FB73FB7936
:1048B0000A2B01D9002324E0FA79144913465B003E
:1048C00013449B000B441868FA79104913465B00A7
:1048D00013449B000B4404331B689BB219460AF037
:1048E000ABFD03461846FA79084913465B001344AA
:1048F0009B000B4409331B78984201D10123FB73C1
:10490000FB7B18461037BD4680BD00BF3C9B0208AC
:1049100080B582B000AF0346FB71FB790A2B15D836
:10492000FA790C4913465B0013449B000B4418684A
:10493000FA79084913465B0013449B000B44043387
:104940001B689BB219460AF0A8FD00E000BF0837BB
:10495000BD4680BD3C9B020890B587B000AF786033
:104960000023FB757B681B88012B28D17B685B6962
:104970004749002098470346002B20D018E0002329
:104980003B610CE03B69DBB21846FFF789FF034649
:1049900019464048FEF7FEFC3B6901333B613B6929
:1049A0000A2BEFDD3C48FEF7F5FC6420FDF758FECE
:1049B000FEF7EAFD0346002BE1D10123FB757B687E
:1049C0001B88022B23D17B685B6934490020984700
:1049D0000346002B1BD07B689B6801209847034649
:1049E000FB730DE0FC7BFB7B1846FFF759FF03468A
:1049F0001A4621462A48FEF7CDFC6420FDF730FE1A
:104A0000FEF7C2FD0346002BECD10123FB757B684A
:104A10001B88032B26D17B685B69224900209847BD
:104A20000346002B1ED07B689B68012098470346F5
:104A3000BB737B689B680220984703467B737B7B34
:104A4000002B14BF01230023DAB2BB7B11461846AA
:104A5000FFF7D4FEBB7B7A7B19461348FEF79AFC1E
:104A60000123FB75FB7D83F00103DBB2002B0AD031
:104A70000E48FEF78FFC0A210D48FEF78BFC0A2139
:104A80000C48FEF787FC00BF1C37BD4690BD00BF39
:104A90007C98020884980208889802088C9802087A
:104AA00094980208A8980208B0980208C4980208CE
:104AB000D0980208E498020880B500AFFDF7DBFD4E
:104AC00002460D4B1B68D31A0C4A1360FDF7D3FD49
:104AD0000346094A1360094B1B68002B07D0074B9C
:104AE0001B684FF47A72B2FBF3F3054A1360054B6F
:104AF00000221A7000BF80BD740A0020780A0020CE
:104B00007C0A0020720A002080B584B002AF274BD7
:104B100064221A7004F032F903461A46244B1A70C4
:104B2000244804F037F9234B5B6923489847002356
:104B30007B6007E0214A7B68002122F813107B6824
:104B400001337B607B68B3F5A04FF3DB4FF4204269
:104B500000211A4810F0FAF8194B1B781A46134630
:104B60009B0013445B03154A1344164A1360002349
:104B700000938023A0220021002000F0DFFB00F042
:104B800093FA642000F024F8094B1B7883F00103AA
:104B9000DBB2002B01D0002304E00B490B48FEF7E9
:104BA00009FD012318460837BD4680BD940000204A
:104BB000700A0020540A0020B94A0108C00A0020E7
:104BC000710A0020800A002009580108C09B0208D1
:104BD00080B582B000AF0346FB71FB79642B28BF20
:104BE0006423FB710C4B1B78FA799A4202D00A4A73
:104BF000FB791370084B1B78002B04D00121012096
:104C0000FFF7FCFD03E000210120FFF7F7FD00BFE7
:104C10000837BD4680BD00BF94000020044B01EB67
:104C200081011B6800EB411123F81120704700BF80
:104C3000800A002010B5044600F062FA00F51F411A
:104C4000A2B2831EFE3123F8022F8B42FBD110BD8E
:104C50002DE9704F164686B0002E0E9AC6EBC67B25
:104C600040F38D801FFA81F903F00401039103F0F2
:104C70000201019103F0080103F00103C6F10104F0
:104C80004FEA4B0B1FFA80F80291049300250AE0CB
:104C9000019B002B2CD1029B002B41D1049B002BAC
:104CA00056D1AE426BDD002C03DB0BF1020B013E53
:104CB0005C440135039B04EB45040134002BE7D031
:104CC000B3B21FFA85FA09EB030108EB0A0089B2B7
:104CD00080B20593FFF7A2FF059B09EB0A0108EBE1
:104CE000030089B280B2FFF799FF019B002BD2D05D
:104CF000B3B21FFA85FAA9EB030108EB0A0089B2E7
:104D000080B20593FFF78AFF059BA9EB0A0108EB28
:104D1000030089B280B2FFF781FF029B002BBDD058
:104D2000ABB21FFA86FA09EB0301A8EB0A0089B2BD
:104D300080B20593FFF772FF059B0AEB0901A8EB10
:104D4000030089B280B2FFF769FF049B002BA8D053
:104D5000ABB21FFA86FAA9EB0301A8EB0A0089B2ED
:104D600080B20593FFF75AFF059BA9EB0A01A8EB58
:104D7000030089B280B2FFF751FFAE4293DC06B068
:104D8000BDE8708F2DE9704F8AB09446129ECDF821
:104D90000CC01FFA86F84FEA48020C4691B2BDF8E3
:104DA0000C20DDF84CA0054680B2CDE90621059027
:104DB000521A4044994600B21FFA8AF312B221B245
:104DC000CDE90823049000F093FA0498CDF81090F0
:104DD000BDF81090089A099B08931FFA84FB09F10B
:104DE000FF31594409B200F083FA079B08EB0B012D
:104DF000A9EB0302089B09B212B228B2CDE908233D
:104E0000079100F04FFA069A059B0799501E184427
:104E100005EB0608DDE9082300B200F043FA31197A
:104E200032464046CDF800A001230591FFF710FF60
:104E300003980599CDF800A02844801B013832461C
:104E400002230390FFF704FF04990398CDF800A014
:104E50002144891B0139324604230391FFF7F8FEF0
:104E60000399CDF848A00823324640460AB0BDE871
:104E7000704FFFF7EDBE00BF2DE9704F904686B032
:104E8000C8F1000AB8F1000F0E9AAAEB080A6FDD0C
:104E9000013292B2951C049203F0010203F0020366
:104EA00002930F9B039280B289B2C8F10104009073
:104EB0000191ADB200269BB206E0029A002A33D1DE
:104EC0000235B045ADB253DD002C06F1010604DB1E
:104ED0000AF1020A08F1FF385444039A04EB46042D
:104EE0000134002AE9D0049A0199009805931FFA29
:104EF00088F91FFA86FB02EB49025944A0EB09002E
:104F000012B209B200B200F0F3F901990098059BC2
:104F10004944A0EB0B002AB209B200B200F0E8F954
:104F2000029A059B002ACBD0049A01990098059318
:104F30001FFA88F91FFA86FB02EB4902A1EB0B016D
:104F4000A0EB090012B209B200B200F0D1F9019948
:104F50000098059BA1EB0901A0EB0B002AB209B256
:104F600000B200F0C5F90235B045059BADB2ABDC2F
:104F700006B0BDE8708F00BF2DE9704785B0DDE950
:104F80000C6988461446B1B21FFA89F21D46009298
:104F9000A3EB410322B24144A4EB460445448246BC
:104FA000013C1BB209B200B2AD1B00F0C7F90AEB1D
:104FB0000600691E3246CDE9004901230390FFF740
:104FC0005BFF03980223324608EB0601CDE90C494A
:104FD00005B0BDE87047FFF74FBF00BF80B400AF1A
:104FE000034B1B681846BD465DF8047B704700BF45
:104FF0007C0A002080B400AF034B1B681846BD46F6
:105000005DF8047B704700BF780A002080B400AFD1
:10501000084B1B78002B14BF01230023DBB283F065
:105020000103DBB203F00103DBB21846BD465DF8B5
:10503000047B7047720A002098B500AF154B1B78AF
:1050400083F00103DBB2002B01D0002320E0124BE0
:105050001B78002B01D000231AE0104B9C687F23A3
:105060009F2200210020A0470B4B01221A700B4BFE
:105070009C690B4B1B781A4613469B0013445B0339
:10508000084A134400224FF4A0411846A0470123C8
:10509000184698BD700A0020720A0020540A0020A9
:1050A000710A0020C00A002080B582B000AF134B07
:1050B0001B7883F00103DBB2002B18D1FFF7BCFF94
:1050C000FDF7D9FA786009E00120FDF7C9FAFDF78C
:1050D000D2FA02467B68D31A632B0AD8FFF796FFF1
:1050E000034683F00103DBB2002BEDD102E000BFE9
:1050F00000E000BF0837BD4680BD00BF700A002039
:1051000080B400AF034B1B681846BD465DF8047BB6
:10511000704700BF800A002080B400AFA02318466B
:10512000BD465DF8047B704780B400AF802318460D
:10513000BD465DF8047B704790B589B000AF04466A
:10514000084611461A462346FB800346BB800B46A1
:105150007B8013463B80B7F90020B7F90430D31A9F
:1051600083EAE372A2EBE372B7F90210B7F90630F3
:10517000CB1A002BB8BF5B429A42CCBF012300235D
:10518000DBB27B83B7F90630002B01DA0023FB800A
:10519000B7F90430002B01DA0023BB80B7F90230E5
:1051A000002B01DA00237B80B7F90030002B01DAF5
:1051B00000233B80B7F91A30002B0BD0FB883B83D0
:1051C000BB88FB803B8BBB807B88FB823B887B80E2
:1051D000FB8A3B80B7F90620B7F902309A420BDD13
:1051E000FB88BB827B88FB80BB8A7B80BB887B8201
:1051F0003B88BB807B8A3B807A88FB88D31A9BB232
:105200003B82B7F90020B7F90430D31A002BB8BF9E
:105210005B42FB81B7F91030DA0F13445B10FB835C
:10522000B7F90420B7F900309A4202DA0123BB83B0
:105230002DE04FF6FF73BB8329E0B7F91A30002B3E
:1052400006D0BB88F9883A8E1846FFF7E7FC05E0E0
:10525000FB88B9883A8E1846FFF7E0FCFA8BFB8989
:10526000D31A9BB2FB83B7F91E30002B09DABA8838
:10527000BB8B13449BB2BB80FA8B3B8A13449BB21B
:10528000FB83B7F906309BB201339BB2FB80B7F9C1
:105290000620B7F902309A42CFDD00BF00BF2437A5
:1052A000BD4690BD90B585B002AF04460846114694
:1052B0001A462346FB800346BB800B467B80134681
:1052C0003B80BA887B8813449BB2013B9BB21CB2E3
:1052D000B7F90620B7F90410B7F906003B88009328
:1052E0002346FFF729FF00BF0C37BD4690BD00BF26
:1052F00090B585B002AF0446084611461A462346CB
:10530000FB800346BB800B467B8013463B80FA88BC
:105310007B8813449BB2013B9BB21AB2B7F904409D
:10532000B7F90410B7F906003B8800932346FFF74E
:1053300003FF00BF0C37BD4690BD00BF90B585B0E0
:1053400000AF0446084611461A462346FB80034632
:10535000BB800B467B8013463B80FB88FB810EE0C5
:105360003B8CB7F90020B7F90410B7F90E00FFF72E
:1053700099FFB7F90E309BB201339BB2FB81B7F9AD
:105380000E20B7F90610B7F902300B449A42E7DB5A
:1053900000BF00BF1437BD4690BD00BF90B585B0BB
:1053A00000AF0446084611461A462346FB800346D2
:1053B000BB800B467B8013463B80FB889F2B3BD8F2
:1053C000BB887F2B38D8FA887B881344A02B35DC28
:1053D000BA883B881344802B32DC0023FB81BB88D6
:1053E000BB8121E0FB887B8111E07889B989FB8949
:1053F0005A1CFA815B003A6A13441B881A46FFF76D
:105400000DFCB7F90A309BB201339BB27B81B7F92F
:105410000A20F9887B880B449A42E6DBB7F90C3006
:105420009BB201339BB2BB81B7F90C20B9883B8892
:105430000B449A42D6DB04E000BF02E000BF00E06C
:1054400000BF1437BD4690BD08B490B5D8B002AFC8
:1054500007F5AC73A3F5A673186007F5AC73A3F555
:10546000A873196007F5AC73A3F5A9731A8007F543
:10547000B473C7F83C3107F5AC73A3F5A6731B688A
:10548000C7F84C3107F13C00D7F83C31D7F864211C
:10549000FF2111F0EBF8C7F84801804B1B781A4642
:1054A0007F4B53F822305B68002B72D00023C7F883
:1054B000543167E007F5AC73A3F58E72D7F8543119
:1054C00013441A78754B1B781946754B53F82140D5
:1054D00007F5AC73A3F5A87107F5AC73A3F5A67037
:1054E00007F5AC73A3F5A9731B88009323460968DD
:1054F000006800F02DF90123C7F84431674B1B7891
:105500001A46674B53F822301B7887F85331634BA8
:105510001B781A46624B53F822305B7887F8433188
:1055200097F8532107F5AC73A3F5A67307F5AC7193
:10553000A1F5A67109680A441A6097F8532107F586
:10554000AC73A3F5A6731B681344A02B13DD07F5FA
:10555000AC73A3F5A673D7F84C211A6097F84321D2
:1055600007F5AC73A3F5A87307F5AC71A1F5A871A5
:1055700009680A441A60D7F85421D7F84431134413
:10558000C7F85431D7F85421D7F848319A4291DB03
:105590007BE00023C7F854316FE007F13C02D7F8F5
:1055A0005431134407F114021146184603F0F4F87D
:1055B00007F5AC73A3F5A9731B8807F1140207F56F
:1055C000AC71A1F5A87107F5AC70A0F5A6700968DB
:1055D000006800F067F807F5AC73A3F5A2735B8869
:1055E000C7F84431D7F84431012B0EDD102387F87A
:1055F000533107F5AC73A3F5A67307F5AC72A2F5AA
:10560000A672126810321A600DE0082387F8533131
:1056100007F5AC73A3F5A67307F5AC72A2F5A672F5
:10562000126808321A6097F8532107F5AC73A3F596
:10563000A6731B681344A02B11DD07F5AC73A3F50B
:10564000A673D7F84C211A6007F5AC73A3F5A873BD
:1056500007F5AC72A2F5A872126810321A6007F54D
:10566000AC73A3F5A2739B88042B0DD0D7F85421FB
:10567000D7F844311344C7F85431D7F85421D7F838
:1056800048319A4289DB00E000BF00BF07F5AC77E4
:10569000BD46BDE8904001B0704700BF95000020B6
:1056A0009800002080B588B000AFF860B9607A60DB
:1056B0007B807B685B883B833B8B022B01D9022379
:1056C0003B830023FB833AE00023FB820023BB8360
:1056D0002EE0FB8B3A8B03FB02F2BB8B13447A6800
:1056E00013449B797B7500237B831BE07A7D7B8B46
:1056F00002FA03F303F08003002B0DD0FB689AB28B
:10570000FB8A134498B2BB689AB2FB8B13449BB2DA
:105710007A881946FFF782FAFB8A0133FB827B8B7A
:1057200001337B837B8B072BE0D9BB8B0133BB839E
:10573000BA8B3B8B9A42CCD3FB8B0133FB83FB8B25
:105740000F2BC1D900BF00BF2037BD4680BD00BFB1
:1057500080B588B000AFF860B9603B601346FB715C
:105760000023FB6135E03B685A68FB79203B3968D0
:10577000497801FB03F31946FB690B445B001344B2
:105780001B887B610023BB611AE07A69BB6902FA5E
:1057900003F303F40043002B0FD0FB689AB2BB69FC
:1057A0009BB2134498B2BB689AB2FB699BB2134494
:1057B0009BB23A8D1946FFF731FABB690133BB61E1
:1057C0003B681B781A46BB699342DED3FB69013301
:1057D000FB613B685B781A46FB699342C3D300BF09
:1057E00000BF2037BD4680BD80B483B000AF034604
:1057F000FB71044AFB79137000BF0C37BD465DF89E
:10580000047B70479500002080B586B002AF7860B9
:105810000023FB737B681B88012B63D17B685B696A
:105820004E49002098470346002B5BD00320FFF72A
:10583000DBFF4BE0FFF7EAFB0346002B46D00020DE
:10584000FFF7F8F9464B4FF4FC6200211920FFF7EF
:10585000FBFDFFF7C3FB03460093424B4FF6FF727D
:1058600010210020FFF7F0FDFFF7C4FB0346009373
:105870003D4B4FF6FF7220210020FFF7E5FDFCF7BE
:10588000FAFE03460093384B4FF6FF72302100209A
:10589000FFF7DAFD4FF4784300930A230A224621EA
:1058A0000020FFF74BFD4FF4FC6300930A230A220C
:1058B00046210A20FFF742FD1F2300930A230A22F4
:1058C00046211420FFF73AFDFFF7B6FBFDF75CFE1B
:1058D0000346002BAED10020FFF7ACF9FFF7E4FB45
:1058E0000123FB737B681B88012B26D17B685B69D6
:1058F0001E49002098470346002B1ED00020FFF7CA
:1059000099F9FFF7D1FB0CE002F020FE03461A469E
:10591000174B1A70164B1B781A460021002002F014
:10592000CBFDFDF731FE0346002BEDD10020FFF744
:1059300081F9FFF7B9FB0123FB73FB7B83F00103C4
:10594000DBB2002B05D00B48FDF724FD0A48FDF71C
:1059500021FD00BF1037BD4680BD00BFC49B0208BB
:10596000CC9B0208DC9B0208E49B0208EC9B02082B
:10597000C0AA0020F49B0208009C020880B588B0F1
:1059800000AF0123FB763B1D00221A605A609A602B
:10599000DA601A6100233B601B4B1B6B1A4A43F011
:1059A00004031363184B1B6B03F004033B603B6859
:1059B0000123BB600023FB6000233B610023FB61EC
:1059C00016E0124AFB69DB0013449B887B600F4A98
:1059D000FB6952F833303A1D1146184609F0C4FAF3
:1059E000FB69DBB2184600F017F8FB690133FB6175
:1059F000FB69002BE5DD06490648FDF7DBFDFB7E74
:105A000018462037BD4680BD00380240A80000205F
:105A1000915A01080099020880B582B000AF034690
:105A2000FB71FB79002B11D1FB790A4A52F8330044
:105A3000FB79084ADB0013449988FB79054ADB00AF
:105A40001344DB791A4609F00FFD00E000BF083768
:105A5000BD4680BDA800002080B582B000AF0346DF
:105A6000FB71FB79002B0DD1FB79084A52F83320EA
:105A7000FB790649DB000B449B881946104609F068
:105A80000CFD00E000BF0837BD4680BDA800002027
:105A900080B586B000AF78600023FB757B681B88FB
:105AA000032B33D17B685B691F490020984703466D
:105AB000002B2BD07B689B68012098470346BB7561
:105AC0007B689B68022098470346FB60BB7D002BE8
:105AD00002D0BB7D013BBB75FCF7CDFD38610EE00C
:105AE000FCF7C9FD02463B69D31AFA689A4206D808
:105AF000FCF7C1FD3861BB7D1846FFF7ADFFFDF730
:105B000043FD0346002BEBD10123FB75FB7D83F0A6
:105B10000103DBB2002B03D001210448FDF73AFC5E
:105B200000BF1837BD4680BD049902080C990208D1
:105B300080B584B000AF78600D4B5B68FB600AF005
:105B4000E1F803460B4AA2FB03239B0C7A6802FB95
:105B500003F37B6000BF064B5A68FB68D21A7B6870
:105B60009A42F8D300BF00BF1037BD4680BD00BFCA
:105B7000001000E083DE1B4380B483B000AF786088
:105B80007B689B881A047B681B689A6100BF0C378E
:105B9000BD465DF8047B704780B483B000AF786089
:105BA0007B689A887B681B689A6100BF0C37BD468A
:105BB0005DF8047B704780B588B000AF7860002343
:105BC0003B6100237B610223BB617B689B88FB6098
:105BD0007B681B6807F10C021146184609F0C4F9EE
:105BE00000BF2037BD4680BD80B588B000AF78606B
:105BF00011233B6100237B610223BB617B689B888F
:105C0000FB607B681B6807F10C021146184609F01F
:105C1000ABF900BF2037BD4680BD80B584B000AF72
:105C2000F860B9601346FB80FB68BA681A60FB68CD
:105C3000FA889A80F868FFF7D7FFF868FFF7ACFF9B
:105C40004FF47A70FFF774FFF868FFF795FF4FF491
:105C50007A70FFF76DFFF868FFF79EFF4FF4FA6068
:105C6000FFF766FF00BF1037BD4680BD80B584B02A
:105C700000AF78607868FFF77FFF7868FFF7B4FFC0
:105C80004FF4F070FFF754FF1420FFF751FF7868CE
:105C9000FFF791FF4620FFF74BFF7B681A687B6890
:105CA0009B881946104609F0C7FB0346FB734FF467
:105CB000CD70FFF73DFFFB7B18461037BD4680BD1A
:105CC00080B582B000AF78600B46FB70FB78002B8C
:105CD00012D07868FFF750FF7868FFF785FF0A2039
:105CE000FFF726FF7868FFF766FF3720FFF720FFF2
:105CF0007868FFF760FF11E07868FFF73DFF78688C
:105D0000FFF772FF4120FFF713FF7868FFF753FF9B
:105D10000520FFF70DFF7868FFF74DFF00BF08373C
:105D2000BD4680BD80B584B000AF78600023FB73B2
:105D30007868FFF721FF7868FFF756FF0220FFF72A
:105D4000F7FE7868FFF737FF0A20FFF7F1FE7B6860
:105D50001A687B689B881946104609F06DFB03465C
:105D6000002B01D00123FB733220FFF7E1FEFB7B08
:105D700018461037BD4680BD80B584B000AF78604E
:105D80000B46FB700823FB730AE0FB7803F001036A
:105D9000DBB219467868FFF793FFFB785B08FB706E
:105DA000FB7B5A1EFA73002BEFD100BF00BF1037E8
:105DB000BD4680BD80B584B000AF78600823FB731A
:105DC0000023BB730DE0BB7B5B08BB737868FFF7F8
:105DD000A9FF0346DB015AB297F90E3013435BB2B9
:105DE000BB73FB7B5A1EFA73002BECD1BB7B1846AE
:105DF0001037BD4680BD80B582B000AF786078684E
:105E000000F016F8F021786800F025F803461846EF
:105E10000837BD4680BD80B582B000AF7860F02104
:105E2000786800F018F8034618460837BD4680BD6C
:105E300080B483B000AF78607B6800229A717B6881
:105E400000221A727B680022DA7100BF0C37BD464F
:105E50005DF8047B704780B584B000AF78600B4676
:105E6000FB700123FB730023BB7300237B730123AF
:105E7000FB7200233B737B681B7A002B40F09A80F7
:105E80007868FFF7F3FE0346002B0AD07B680022F8
:105E90009A717B6800221A727B680022DA710023F3
:105EA0009BE0FB7819467868FFF766FF7868FFF794
:105EB00039FF03467B727868FFF734FF03463B7275
:105EC0007B7A012B02D13B7A012B64D07A7A3B7A20
:105ED0009A4202D07B7ABB7226E07B689B79FA7B80
:105EE0009A420DD27B7B7A6813445A7AFB7A13402C
:105EF000DBB2002B14BF01230023DBB2BB7208E02E
:105F00007B689B79FA7B9A420CBF01230023DBB2AA
:105F1000BB72BB7A002B07D1FB7BBB73BB7B082B0F
:105F200002D87B68BA7BDA71BB7A012B0CD17B7B00
:105F30007A681344597A7B7BFA7A0A43D1B27A6839
:105F400013440A465A7210E07B7B7A6813445B7AEA
:105F50005AB297F90B30DB435BB213405AB27B7BEA
:105F6000D1B27A6813440A465A72BB7A19467868E5
:105F7000FFF7A6FEFB7B0133FB73FB7A5B00FB7232
:105F8000FB7A002B04D17B7B01337B730123FB72F3
:105F90007B7B072B8AD9FB7B402B0BD97B68BA7B99
:105FA0009A717B689B79002B02D17B6801221A725F
:105FB00001233B733B7B002B03D07B685B7A002B78
:105FC0000AD17B6800229A717B6800221A727B6872
:105FD0000022DA7100233B733B7B18461037BD4625
:105FE00080BD80B584B000AF786039605521786895
:105FF000FFF7C2FE0023FB730AE0FB7B3A68134401
:106000001B7819467868FFF7B7FEFB7B0133FB73FB
:10601000FB7B072BF1D900BF00BF1037BD4680BD09
:1060200080B485B000AF786039600023FB730AE06C
:10603000FA7BFB7B39680B4479680A44527A1A7000
:10604000FB7B0133FB73FB7B072BF1D900BF00BF48
:106050001437BD465DF8047B704780B485B000AF4F
:1060600078600B46FB700023FB7322E07B685A1CB0
:106070007A601B78BB7308237B7317E0FA7BBB7BCA
:106080005340DBB203F001033B73FB7B5B08FB7304
:106090003B7B002B04D0FB7B83F07303DB43FB7360
