:020000040800F2
:1000000000000220491D0008011B0008071B000812
:100010000D1B0008131B0008191B0008000000003E
:100020000000000000000000000000001F1B00088E
:100030002D1B0008000000003B1B0008491B0008A6
:10004000991D0008991D0008991D0008991D0008B8
:10005000991D0008991D0008991D0008991D0008A8
:10006000991D0008991D0008991D0008991D000898
:10007000991D0008991D0008991D0008991D000888
:10008000991D0008991D0008991D00080000000036
:10009000000000000000000000000000991D0008A2
:1000A000991D0008991D0008991D0008991D000858
:1000B000991D0008991D0008991D0008991D000848
:1000C000991D0008991D0008991D0008991D000838
:1000D000991D0008551B0008991D0008000000002C
:1000E000991D0008991D0008991D000800000000D6
:1000F000000000000000000000000000991D000842
:1001000000000000991D0008991D0008991D0008B5
:1001100000000000000000000000000000000000DF
:10012000991D0008991D0008691B0008991D000809
:10013000991D000800000000000000000000000001
:10014000000000000000000000000000991D0008F1
:10015000991D0008991D00087D1B0008991D0008C5
:10016000991D0008991D0008000000000000000013
:10017000000000000000000000000000000000007F
:1001800000000000991D00080000000000000000B1
:08019000991D0008991D0008EB
:100198000000000000000000000000000000000057
:1001A8000000000000000000000000000000000047
:1001B8000000000000000000000000000000000037
:1003F8000000000000000000423232303831305234
:1004080031000000000000000000000000000000B3
:100418000000000000000000426F6F746C6F6164A0
:1004280065720000000000000000000000000000ED
:080438000000000000000000BC
:1004400010B5054C237833B9044B13B10448AFF30E
:1004500000800123237010BD4C0400200000000028
:1004600004BD000808B5034B1BB103490348AFF3B3
:10047000008008BD000000005004002004BD0008FA
:1004800010F8012B11F8013B012A28BF9A42F7D03E
:10049000D01A7047034613F8012B002AFBD1181A13
:1004A000013870470000000000000000000000005C
:1004B00001F0FF01102A2BDB10F0070F08D010F815
:1004C000013B013A8B422DD010F0070F42B3F6D119
:1004D000F0B441EA012141EA014122F007047FF032
:1004E00000070023F0E80256083C85EA010586EA89
:1004F000010685FA47F5A3FA87F586FA47F6A5FAC5
:1005000087F68EB9EED1F0BC01F0FF0102F00702D0
:1005100032B110F8013B013A83EA010313B1F8D17B
:100520000020704701387047002D06BF354603385C
:10053000073815F0010F07D1013015F4807F02BF95
:10054000013015F4C03F0130F0BC0138704700BFE6
:1005500081F0004102E000BF83F0004330B54FEA74
:1005600041044FEA430594EA050F08BF90EA020FE1
:100570001FBF54EA000C55EA020C7FEA645C7FEA74
:10058000655C00F0E2804FEA5454D4EB5555B8BF97
:100590006D420CDD2C4480EA020281EA030382EA08
:1005A000000083EA010180EA020281EA0303362D9A
:1005B00088BF30BD11F0004F4FEA01314FF4801C6D
:1005C0004CEA113102D0404261EB410113F0004F7F
:1005D0004FEA03334CEA133302D0524263EB430336
:1005E00094EA050F00F0A780A4F10104D5F1200ED4
:1005F0000DDB02FA0EFC22FA05F2801841F100012F
:1006000003FA0EF2801843FA05F359410EE0A5F102
:1006100020050EF1200E012A03FA0EFC28BF4CF033
:10062000020C43FA05F3C01851EBE37101F00045E9
:1006300007D54FF0000EDCF1000C7EEB00006EEBF6
:100640000101B1F5801F1BD3B1F5001F0CD3490880
:100650005FEA30004FEA3C0C04F101044FEA4452D7
:1006600012F5800F80F09A80BCF1004F08BF5FEA5E
:10067000500C50F1000041EB045141EA050130BD3E
:100680005FEA4C0C404141EB0101013C28BFB1F550
:10069000801FE9D291F0000F04BF01460020B1FA9B
:1006A00081F308BF2033A3F10B03B3F120020CDA6E
:1006B0000C3208DD02F1140CC2F10C0201FA0CF04C
:1006C00021FA02F10CE002F11402D8BFC2F1200CB1
:1006D00001FA02F120FA0CFCDCBF41EA0C01904067
:1006E000E41AA2BF01EB0451294330BD6FEA0404B0
:1006F0001F3C1CDA0C340EDC04F11404C4F120029B
:1007000020FA04F001FA02F340EA030021FA04F3AC
:1007100045EA030130BDC4F10C04C4F1200220FA03
:1007200002F001FA04F340EA0300294630BD21FA41
:1007300004F0294630BD94F0000F83F4801306BF07
:1007400081F480110134013D4EE77FEA645C18BFFB
:100750007FEA655C29D094EA050F08BF90EA020F92
:1007600005D054EA000C04BF1946104630BD91EA8A
:10077000030F1EBF0021002030BD5FEA545C05D18D
:100780004000494128BF41F0004130BD14F58004CC
:100790003CBF01F5801130BD01F0004545F0FE4140
:1007A00041F470014FF0000030BD7FEA645C1ABF75
:1007B000194610467FEA655C1CBF0B46024650EAAC
:1007C000013406BF52EA033591EA030F41F40021D8
:1007D00030BD00BF90F0000F04BF0021704730B55E
:1007E0004FF4806404F132044FF000054FF0000133
:1007F00050E700BF90F0000F04BF0021704730B5F4
:100800004FF4806404F1320410F0004548BF4042C8
:100810004FF000013EE700BF42004FEAE2014FEA1D
:1008200031014FEA02701FBF12F07F4393F07F4FF8
:1008300081F06051704732F07F4208BF704793F0FB
:100840007F4F04BF41F40021704730B54FF460740E
:1008500001F0004521F000411CE700BF50EA010211
:1008600008BF704730B54FF000050AE050EA0102BA
:1008700008BF704730B511F0004502D5404261EB2A
:1008800041014FF4806404F132045FEA915C3FF46B
:10089000D8AE4FF003025FEADC0C18BF03325FEA08
:1008A000DC0C18BF033202EBDC02C2F1200300FAB9
:1008B00003FC20FA02F001FA03FE40EA0E0021FADE
:1008C00002F11444BDE600BF70B54FF0FF0C4CF4CC
:1008D000E06C1CEA11541DBF1CEA135594EA0C0F7E
:1008E00095EA0C0F00F0DEF82C4481EA030621EAB9
:1008F0004C5123EA4C5350EA013518BF52EA0335F4
:1009000041F4801143F4801338D0A0FB02CE4FF0A5
:100910000005E1FB02E506F00042E0FB03E54FF0D5
:100920000006E1FB03569CF0000F18BF4EF0010ECD
:10093000A4F1FF04B6F5007F64F5407404D25FEAC9
:100940004E0E6D4146EB060642EAC62141EA55517C
:100950004FEAC52040EA5E504FEACE2EB4F1FD0CBE
:1009600088BFBCF5E06F1ED8BEF1004F08BF5FEA3C
:10097000500E50F1000041EB045170BD06F00046EE
:1009800046EA010140EA020081EA0301B4EB5C049B
:10099000C2BFD4EB0C0541EA045170BD41F4801193
:1009A0004FF0000E013C00F3AB8014F1360FDEBFB8
:1009B000002001F0004170BDC4F10004203C35DA94
:1009C0000C341BDC04F11404C4F1200500FA05F317
:1009D00020FA04F001FA05F240EA020001F00042B8
:1009E00021F0004110EBD37021FA04F642EB06012E
:1009F0005EEA430E08BF20EAD37070BDC4F10C0458
:100A0000C4F1200500FA04F320FA05F001FA04F21B
:100A100040EA020001F0004110EBD37041F1000107
:100A20005EEA430E08BF20EAD37070BDC4F1200512
:100A300000FA05F24EEA020E20FA04F301FA05F27A
:100A400043EA020321FA04F001F0004121FA04F222
:100A500020EA020000EBD3705EEA430E08BF20EAF2
:100A6000D37070BD94F0000F0FD101F0004640002C
:100A700041EB010111F4801F08BF013CF7D041EAAE
:100A8000060195F0000F18BF704703F000465200B2
:100A900043EB030313F4801F08BF013DF7D043EA83
:100AA0000603704794EA0C0F0CEA135518BF95EA39
:100AB0000C0F0CD050EA410618BF52EA4306D1D1C0
:100AC00081EA030101F000414FF0000070BD50EADF
:100AD000410606BF1046194652EA430619D094EA69
:100AE0000C0F02D150EA013613D195EA0C0F05D153
:100AF00052EA03361CBF104619460AD181EA0301A7
:100B000001F0004141F0FE4141F470014FF000005E
:100B100070BD41F0FE4141F4780170BD70B54FF0F9
:100B2000FF0C4CF4E06C1CEA11541DBF1CEA135579
:100B300094EA0C0F95EA0C0F00F0A7F8A4EB05045B
:100B400081EA030E52EA03354FEA013100F0888052
:100B50004FEA03334FF0805545EA131343EA12631B
:100B60004FEA022245EA111545EA10654FEA0026D0
:100B70000EF000419D4208BF964244F1FD0404F589
:100B8000407402D25B084FEA3202B61A65EB0305E5
:100B90005B084FEA32024FF480104FF4002CB6EBA2
:100BA000020E75EB030E22BFB61A754640EA0C0022
:100BB0005B084FEA3202B6EB020E75EB030E22BF62
:100BC000B61A754640EA5C005B084FEA3202B6EBA3
:100BD000020E75EB030E22BFB61A754640EA9C0062
:100BE0005B084FEA3202B6EB020E75EB030E22BF32
:100BF000B61A754640EADC0055EA060E18D04FEAF0
:100C0000051545EA16754FEA06164FEAC30343EA8F
:100C100052734FEAC2025FEA1C1CC0D111F4801F5C
:100C20000BD141EA00014FF000004FF0004CB6E755
:100C300011F4801F04BF01430020B4F1FD0C88BFF4
:100C4000BCF5E06F3FF6AFAEB5EB030C04BFB6EBFF
:100C5000020C5FEA500C50F1000041EB045170BDF2
:100C60000EF0004E4EEA113114EB5C04C2BFD4EB1F
:100C70000C0541EA045170BD41F480114FF0000EA3
:100C8000013C90E645EA060E8DE60CEA135594EA1F
:100C90000C0F08BF95EA0C0F3FF43BAF94EA0C0F22
:100CA0000AD150EA01347FF434AF95EA0C0F7FF497
:100CB00025AF104619462CE795EA0C0F06D152EAEB
:100CC00003353FF4FDAE1046194622E750EA4106CF
:100CD00018BF52EA43067FF4C5AE50EA41047FF4E0
:100CE0000DAF52EA43057FF4EBAE12E74FF0FF3C45
:100CF00006E000BF4FF0010C02E000BF4FF0010C16
:100D00004DF804CD4FEA410C7FEA6C5C4FEA430C8E
:100D100018BF7FEA6C5C1BD001B050EA410C0CBFDD
:100D200052EA430C91EA030F02BF90EA020F00203F
:100D3000704710F1000F91EA030F58BF994208BFA6
:100D400090422CBFD8176FEAE37040F00100704763
:100D50004FEA410C7FEA6C5C02D150EA013C07D1BA
:100D60004FEA430C7FEA6C5CD6D152EA033CD3D005
:100D70005DF8040B704700BF8446104662468C46FF
:100D80001946634600E000BF01B5FFF7B7FF002832
:100D900048BF10F1000F01BD4DF808EDFFF7F4FF5B
:100DA0000CBF012000205DF808FB00BF4DF808EDE6
:100DB000FFF7EAFF34BF012000205DF808FB00BF09
:100DC0004DF808EDFFF7E0FF94BF012000205DF82B
:100DD00008FB00BF4DF808EDFFF7CEFF94BF0120E0
:100DE00000205DF808FB00BF4DF808EDFFF7C4FFD9
:100DF00034BF012000205DF808FB00BF4FEA410C22
:100E00007FEA6C5C02D150EA013C0AD14FEA430C04
:100E10007FEA6C5C02D152EA033C02D14FF0000041
:100E200070474FF0010070474FEA410212F500127F
:100E300015D211D56FF47873B3EB625212D94FEA21
:100E4000C12343F0004343EA505311F0004F23FA0B
:100E500002F018BF404270474FF00000704750EA60
:100E6000013005D111F0004008BF6FF0004070471D
:100E70004FF00000704700BF4A0011D212F5001277
:100E800011D20DD56FF47873B3EB62520ED44FEAE2
:100E9000C12343F0004343EA505323FA02F0704762
:100EA0004FF00000704750EA013002D14FF0FF30A0
:100EB00070474FF0000070474FEA4102B2F1E04343
:100EC00024BFB3F5001CDCF1FE5C0DD901F0004C31
:100ED0004FEAC0024CEA5070B2F1004F40EB830081
:100EE00008BF20F00100704711F0804F21D113F1AD
:100EF0003872BCBF01F00040704741F480114FEAE6
:100F00005252C2F11802C2F1200C10FA0CF320FA6E
:100F100002F018BF40F001004FEAC1234FEAD3238B
:100F200003FA0CFC40EA0C0023FA02F34FEA4303F5
:100F3000CCE77FEA625307D150EA01331EBF4FF07E
:100F4000FE4040F44000704701F0004040F0FE4099
:100F500040F40000704700BF53B94AB9002908BFE8
:100F600000281CBF4FF0FF314FF0FF3000F0AAB94E
:100F7000ADF1080C6DE904CE00F03CF8DDF804E0BA
:100F8000DDE9022304B0704738B50022002304468F
:100F90000D46FFF70BFF28B920462946BDE838402B
:100FA00000F00AB8204605F1004100F005F8404283
:100FB00061EB410138BD00BFD0B50C4B00220646A5
:100FC0000F46FFF781FCFFF757FF0446FFF702FCCF
:100FD000074B0022FFF778FC02460B4630463946A5
:100FE000FFF7BAFAFFF748FF2146D0BD0000F03DF9
:100FF0000000F0412DE9F047089D04468E46002B85
:101000004DD18A42944669D9B2FA82F252B101FABC
:1010100002F3C2F1200120FA01F10CFA02FC41EACC
:10102000030E94404FEA1C48210CBEFBF8F61FFA51
:101030008CF708FB16E341EA034306FB07F19942EC
:101040000AD91CEB030306F1FF3080F01F8199429F
:1010500040F21C81023E63445B1AA4B2B3FBF8F079
:1010600008FB103344EA034400FB07F7A7420AD900
:101070001CEB040400F1FF3380F00A81A74240F228
:1010800007816444023840EA0640E41B00261DB193
:10109000D4400023C5E900433146BDE8F0878B42C8
:1010A00009D9002D00F0EF800026C5E90001304687
:1010B0003146BDE8F087B3FA83F6002E4AD18B4261
:1010C00002D3824200F2F980841A61EB030301200B
:1010D0009E46002DE0D0C5E9004EDDE702B9FFDEF7
:1010E000B2FA82F2002A40F09280A1EB0C014FEAA2
:1010F0001C471FFA8CFE0126200CB1FBF7F307FBFF
:10110000131140EA01410EFB03F0884208D91CEBA1
:10111000010103F1FF3802D2884200F2CB8043463E
:10112000091AA4B2B1FBF7F007FB101144EA01441D
:101130000EFB00FEA64508D91CEB040400F1FF31AC
:1011400002D2A64500F2BB800846A4EB0E0440EA9A
:1011500003409CE7C6F12007B34022FA07FC4CEAA3
:10116000030C20FA07F401FA06F31C43F9404FEA96
:101170001C4900FA06F3B1FBF9F8200C1FFA8CFEAB
:1011800009FB181140EA014108FB0EF0884202FAFF
:1011900006F20BD91CEB010108F1FF3A80F08880C0
:1011A000884240F28580A8F102086144091AA4B27D
:1011B000B1FBF9F009FB101144EA014100FB0EFEFE
:1011C0008E4508D91CEB010100F1FF346CD28E452D
:1011D0006AD90238614440EA0840A0FB0294A1EBBE
:1011E0000E01A142C846A64656D353D05DB1B3EB1B
:1011F000080261EB0E0101FA07F722FA06F3F1404B
:101200001F43C5E9007100263146BDE8F087C2F1F1
:101210002003D8400CFA02FC21FA03F39140014369
:101220004FEA1C471FFA8CFEB3FBF7F007FB1036A2
:101230000B0C43EA064300FB0EF69E4204FA02F44E
:1012400008D91CEB030300F1FF382FD29E422DD9A1
:10125000023863449B1B89B2B3FBF7F607FB1633D6
:1012600041EA034106FB0EF38B4208D91CEB010156
:1012700006F1FF3816D28B4214D9023E6144C91AD6
:1012800046EA004638E72E46284605E70646E3E6E6
:101290001846F8E64B45A9D2B9EB020864EB0C0EF0
:1012A0000138A3E74646EAE7204694E74046D1E7FF
:1012B000D0467BE7023B614432E7304609E76444AD
:1012C000023842E7704700BF80B582B000AF00230C
:1012D000FB71002001F0C0FE0346BB71BB7903F037
:1012E0000103002B0AD00123FB71BB7923F001031A
:1012F000BB71BB791946002001F0BEFE01F064FE0F
:101300000346022B01D10123FB71FB7983F001031A
:10131000DBB2002B14D0002000F060FE034683F007
:101320000103DBB2002B0BD000F03AF80346002B90
:1013300006D000F053F80346002B01D000F086F8E9
:10134000064801F09DF94FF461420021034801F085
:10135000B3F900BF0837BD4680BD00BF6804002058
:1013600080B582B000AF00F014FB786000F011FB94
:1013700002467B68D31A632B05D900F00AFB78601C
:10138000002001F089FD054801F0B8F90346002B63
:10139000ECD0024800F074F8E8E700BF68040020D1
:1013A00080B483B000AF0A4B7B607B681B68094A3E
:1013B000934206D97B681B68074A934201D80123F0
:1013C00000E0002318460C37BD465DF8047B7047EB
:1013D00004040108FFFF0008FFFF070880B584B080
:1013E00000AF184B1B681B68174A934201D00023BB
:1013F00024E0144B1B685B69BB600023FB80002367
:10140000FB600BE0FB68BA6813441A78BB1D1146F9
:10141000184600F063FDFB680133FB60094B1B6855
:10142000DA69FB689A42EDD8FB881A46054B1B68BF
:101430001B6A9A4201D1012300E0002318461037AD
:10144000BD4680BD08000020AAAA555580B582B0CF
:1014500000AF094B7B6000F06BFA084B1B683B60E8
:101460003B6883F3088800BF7B681B68984700BF10
:101470000837BD4680BD00BF040401080004010810
:1014800080B584B002AF78607B681B7E102B45D896
:1014900001A252F823F000BFE5140008ED14000883
:1014A000F5140008FD140008051500080D150008C6
:1014B0001D1500081D150008151500081D1500084C
:1014C0001D1500081D1500081D1500081D15000834
:1014D0001D1500081D150008DD140008786800F0CF
:1014E00099F925E0786800F027F821E0786800F0A5
:1014F00039F81DE0786800F049F819E0786800F0E4
:101500005BF815E0786800F06BF811E0786800F09F
:10151000D9F80DE0786800F04CF909E07B68197E95
:101520000023009300230122786801F0CBF900BF6B
:1015300000BF0837BD4680BD80B584B002AF78607B
:10154000074B1B681A4620230093134600220021F4
:10155000786801F0B7F900BF0837BD4680BD00BF0D
:101560000000002080B584B002AF7860064B1B6895
:1015700020332022009200220121786801F0A2F994
:1015800000BF0837BD4680BD0000002080B584B094
:1015900002AF7860074B1B681A462023009313465E
:1015A00000220221786801F08DF900BF0837BD469E
:1015B00080BD00BF0400002080B584B002AF786019
:1015C000064B1B68203320220092002203217868FA
:1015D00001F078F900BF0837BD4680BD0400002047
:1015E00080B588B002AF78600023FB757B68183344
:1015F0003B613B69D3F810341B78FB603B69D3F83F
:10160000103401331B781B021A46FB681343FB603E
:101610003B69D3F8103402331B781B041A46FB686D
:101620001343FB603B69D3F8103403331B781B066C
:101630001A46FB681343FB603B69D3F8103404334C
:101640001B78BB603B69D3F8103405331B781B0251
:101650001A46BB681343BB603B69D3F810340633AA
:101660001B781B041A46BB681343BB603B69D3F865
:10167000103407331B781B061A46BB681343BB6044
:10168000B968F86800F0FCF80346002B0CD0B96884
:10169000F86801F0AFF9034683F00103DBB2002BD9
:1016A00004D00323FB7501E00423FB75FA7D0023BE
:1016B000009300230421786801F004F900BF183773
:1016C000BD4680BD80B588B002AF78600023FB7551
:1016D0007B6818333B613B69D3F810341B78FB609F
:1016E0003B69D3F8103401331B781B021A46FB68A0
:1016F0001343FB603B69D3F8103402331B781B049F
:101700001A46FB681343FB603B69D3F8103403337C
:101710001B781B061A46FB681343FB603B69D3F832
:10172000103404331B78BB603B69D3F810340533A5
:101730001B781B021A46BB681343BB603B69D3F896
:10174000103406331B781B041A46BB681343BB6076
:101750003B69D3F8103407331B781B061A46BB6865
:101760001343BB60B968F86800F08AF80346002BA1
:1017700011D03B69D3F810340833BA681946F868B9
:1017800001F08BF9034683F00103DBB2002B04D098
:101790000523FB7501E00423FB75FA7D002300930C
:1017A00000230521786801F08DF800BF1837BD4689
:1017B00080BD80B584B002AF7860FFF7F1FD0346CD
:1017C000002B1BD0FFF70AFE0346002B0DD0002391
:1017D0000093002300220821786801F073F8642048
:1017E00000F0CCF8FFF732FE10E000230093002356
:1017F00008220821786801F065F807E000230093CB
:10180000002307220821786801F05CF800BF083740
:10181000BD4680BD80B586B002AF78600023FB7303
:101820007B681833BB60BB68D3F810341B78002B7F
:1018300003D1002001F010FB15E0BB68D3F8103491
:101840001B78012B03D1002001F0E6FA0BE0BB6806
:10185000D3F810341B78022B03D1002001F01CFBBD
:1018600001E00223FB73FA7B002300930023102185
:10187000786801F027F800BF1037BD4680BD000032
:1018800080B487B000AF786039600023FB757A6858
:101890003B681344013B3B610E4BFB600E4BBB604E
:1018A0007A68FB689A420DD37A68BB689A4209D27B
:1018B0003A69FB689A4205D33A69BB689A4201D2F9
:1018C0000123FB75FB7D18461C37BD465DF8047B84
:1018D000704700BF000001080000080880B582B012
:1018E00000AF02F0F5FA00F05BF800237B600F4BCD
:1018F0001B6B0E4A43F0040313630C4B1B6B03F08A
:1019000004037B607B6800233B60084B1B6B074A2A
:1019100043F080031363054B1B6B03F080033B60B4
:101920003B6800BF0837BD4680BD00BF003802409D
:1019300080B582B000AF04F06FFB00237B600FE046
:101940000C4A7B6820334FF0FF3142F82310BFF37D
:101950004F8F00BFBFF36F8F00BF7B6801337B6089
:101960007B68072BECDD044B00221A6000BF0837B0
:10197000BD4680BD00E100E010E000E080B582B02F
:1019800000AF7860786802F015FB00BF0837BD46ED
:1019900080BD80B500AF02F001FB0346184680BD54
:1019A00080B59AB000AF07F1380330220021184605
:1019B00005F0DEFE07F1240300221A605A609A60E7
:1019C000DA601A6107F10C0300221A605A609A600B
:1019D000DA601A615A610023BB60304B1B6C2F4ADE
:1019E00043F0805313642D4B1B6C03F08053BB609A
:1019F000BB6800237B602A4B1B68294A43F44043A1
:101A00001360274B1B6803F440437B607B6809230A
:101A1000BB634FF48033FB630123FB6402233B650C
:101A20004FF480037B651923BB65C023FB6502234C
:101A30003B6604237B6607F13803184603F0AEFDCE
:101A40000346002B01D000F02DF80F237B62022308
:101A5000BB620023FB624FF480533B6300237B6334
:101A600007F124030321184604F006F80346002B6F
:101A700001D000F017F80223FB604FF40073FB6104
:101A800007F10C03184604F0D7F90346002B01D0E8
:101A900000F008F800BF6837BD4680BD003802403E
:101AA0000070004080B400AF72B600BFFEE70000D7
:101AB00080B483B000AF00237B60104B5B6C0F4A97
:101AC00043F4804353640D4B5B6C03F480437B60B1
:101AD0007B6800233B60094B1B6C084A43F0805332
:101AE0001364064B1B6C03F080533B603B6800BFE4
:101AF0000C37BD465DF8047B704700BF00380240DC
:101B000080B400AFFEE780B400AFFEE780B400AF62
:101B1000FEE780B400AFFEE780B400AFFEE780B41C
:101B200000AF00BFBD465DF8047B704780B400AFD6
:101B300000BFBD465DF8047B704780B400AF00BFB6
:101B4000BD465DF8047B704780B500AF02F012FA25
:101B500000BF80BD80B500AF024804F0D5FD00BFD6
:101B600080BD00BF2812002080B500AF024802F0FF
:101B70000FFD00BF80BD00BFC812002080B500AFC0
:101B8000024802F005FD00BF80BD00BF68120020C2
:101B900080B400AF01231846BD465DF8047B704752
:101BA00080B582B000AF7860396005F0A9FD0346CA
:101BB00016221A604FF0FF3318460837BD4680BD25
:101BC00080B582B000AF78604FF0FF317868FFF7E2
:101BD000E7FFFEE780B586B000AFF860B9607A60D5
:101BE00000237B610AE0AFF300800146BB685A1C0A
:101BF000BA60CAB21A707B6901337B617A697B680B
:101C00009A42F0DB7B6818461837BD4680BD80B528
:101C100086B000AFF860B9607A6000237B6109E0AC
:101C2000BB685A1CBA601B781846AFF300807B690A
:101C300001337B617A697B689A42F1DB7B681846E5
:101C40001837BD4680BD80B483B000AF78604FF0D8
:101C5000FF3318460C37BD465DF8047B704780B4EF
:101C600083B000AF786039603B684FF400525A602F
:101C7000002318460C37BD465DF8047B704780B4DE
:101C800083B000AF7860012318460C37BD465DF87D
:101C9000047B704780B485B000AFF860B9607A60AB
:101CA000002318461437BD465DF8047B70470000DA
:101CB00080B586B000AF7860144A154BD31A7B61AB
:101CC0007B693B61134B1B68002B02D1114B124AFD
:101CD0001A60104B1A687B6813443A699A4207D21B
:101CE00005F00EFD03460C221A604FF0FF3309E0A9
:101CF000084B1B68FB60074B1A687B681344054A56
:101D00001360FB6818461837BD4680BD00000220EE
:101D100000040000A80C00206013002080B400AF75
:101D2000084BD3F88830074A43F47003C2F8883070
:101D3000044B4FF000629A6000BFBD465DF8047B23
:101D4000704700BF00ED00E0DFF834D0002103E071
:101D50000C4B5B58435004310B480C4B42189A42D1
:101D6000F6D30B4A02E0002342F8043B094B9A42A7
:101D7000F9D3FFF7D3FF05F0C9FC05F0B5FC7047B8
:101D8000000002200CC50008000000204C040020C8
:101D90004C0400205C130020FEE780B487B000AF45
:101DA000F860B9607A600123FB75FB6800221A6055
:101DB000FB6800225A60FB687A689A60FB68BA6820
:101DC000DA60FB7D18461C37BD465DF8047B704722
:101DD00080B487B000AFF860B9607A600123FB750A
:101DE00000233B6126E0FB68DB68002B09D0FB6821
:101DF000DA68FB685B681A443B69B9680B4412787F
:101E00001A70FB685A68FB681B689A420CD0FB6822
:101E10005B680133FA689268B3FBF2F101FB02F2EE
:101E20009A1AFB685A6002E00023FB7506E03B69E2
:101E300001333B613B697A689A42D4D8FB7D1846EE
:101E40001C37BD465DF8047B704780B485B000AF99
:101E500078607B681A687B685B68D31A7A689268D6
:101E6000B3FBF2F101FB02F29B1AFB60FB68184620
:101E70001437BD465DF8047B7047000080B400AFA6
:101E8000144BDB68134A23F08073D360114BDB687B
:101E9000104A43F08073D3600F4B1B680E4A23F047
:101EA000010313600C4B1B680B4A43F001031360E2
:101EB000094B00225A6000BF00BF00BF064B5B68A1
:101EC000002B01D0002300E001231846BD465DF839
:101ED000047B7047F0ED00E0001000E080B485B0B6
:101EE00000AF78600B46FB707B681B88FB81FB8929
:101EF0001B0A9AB2FB789BB253409BB2DBB2BB8108
:101F0000FB891B021AB2BB89074931F813309BB217
:101F10001BB253401BB29AB27B681A8000BF1437C1
:101F2000BD465DF8047B70471000002080B588B086
:101F300000AF0123FB763B1D00221A605A609A60B5
:101F4000DA601A6100233B60204B1B6B1F4A43F091
:101F5000010313631D4B1B6B03F001033B603B68E4
:101F60000023BB600023FB6123E01949FA69134693
:101F70005B001344DB000B4404331B687B60144993
:101F8000FA6913465B001344DB000B4408331B68FB
:101F9000FB600F49FA6913465B001344DB000B44F6
:101FA0001B683A1D1146184603F044F8FB690133DB
:101FB000FB61FB69002BD8DD0649074800F03CFABD
:101FC000FB7E18462037BD4680BD00BF003802406A
:101FD00010020020BD20000820BD000880B584B09C
:101FE00000AF0346FB710023FB73FA7913465B00D5
:101FF0001344DB00304A1344BB60FB79002B01D053
:10200000002354E0BB689B7B002B02D0012B18D02F
:102010004CE0BB681A68BB685B689BB21946104607
:1020200003F070FA03461A46BB681B7B9A423AD10A
:10203000FFF7AFFC0246BB685A61BB6801229A7386
:1020400031E0BB681A68BB685B689BB219461046F2
:1020500003F058FA03461A46BB681B7B9A4214D118
:10206000FFF797FC0246BB685B69D21ABB681B6925
:102070009A421AD9BB6801225A73BB685B7B002B5A
:1020800014BF01230023FB730FE0BB6800229A7387
:10209000BB6800225A73BB685B7B002B14BF012313
:1020A0000023FB7301E000BF00E000BFFB7B18468C
:1020B0001037BD4680BD00BF1002002080B584B03F
:1020C00000AF78600023FB737B681B88012B28D14D
:1020D0007B685B691949002098470346002B20D094
:1020E00018E00023BB600CE0BB68DBB21846FFF7CA
:1020F00075FF03461946124800F08EF8BB6801339D
:10210000BB60BB68002BEFDD0E4800F085F8642053
:10211000FFF734FC00F07AF90346002BE1D10123EC
:10212000FB73FB7B83F00103DBB2002B02D006487C
:1021300000F072F800BF1037BD4680BD28BD000812
:1021400030BD000834BD000838BD000880B500AFC0
:102150001B4B00221A721A4B00225A72184B002293
:102160001A74174B002283F89521154B002283F82F
:102170009621134B002283F89721114B002283F8FC
:1021800094210F4B0F4AC3F834240D4B0E4AC3F869
:1021900038240B4B0D4AC3F83C24094B0C4AC3F8B6
:1021A0004024074800F01EF80A490B4800F044F9A3
:1021B0000A490B4800F040F90123184680BD00BFD2
:1021C000AC0C0020C9220008192300087123000864
:1021D000B9230008CD24000848BD00083D250008AB
:1021E00050BD000880B483B000AF78607B680022E7
:1021F00083F8E6227B68002283F8E5227B683F2291
:1022000083F8E4227B68002283F8A42200BF0C3705
:10221000BD465DF8047B70470FB480B584B000AF55
:1022200007F11C037B600D4BFB60FB6803F11100A1
:102230007B68BA694FF4807106F03CFEB860FB68B9
:102240001878FB681133BA68194601F0CFF800BF5F
:102250001037BD46BDE8804004B07047AC0C00208C
:1022600080B485B000AF78600023FB8118E0FB8963
:102270007A6813441B787B737B7B002B14D07B7BA9
:10228000602B05D97B7B7A2B02D87B7B203B7B7331
:10229000FB897A6813447A7B1A70FB890133FB81CE
:1022A000FB890F2BE3D900E000BFFB89102B05D180
:1022B000FB89013B7A68134400221A7000BF14376F
:1022C000BD465DF8047B704780B584B000AF03461F
:1022D000FB710023FB600F4BBB60FB799AB2BB68BC
:1022E000B3F82C349A4201D300230EE0BB68D3F834
:1022F0003024FB799B0013441B6800220021184600
:1023000006F0A2FD0346FB60FB6818461037BD4689
:1023100080BD00BFAC0C002080B584B000AF034688
:10232000FB714FF00003FB60104BBB60FB799AB26E
:10233000BB68B3F82C349A4202D34FF000030DE08F
:10234000BB68D3F83024FB799B0013441B68002141
:10235000184606F0ABFC87ED030AFB6807EE903ADF
:10236000B0EE670A1037BD4680BD00BFAC0C002040
:1023700080B485B000AF0346FB710023FB600D4BBA
:10238000BB60FB799AB2BB68B3F82C349A4201D394
:10239000002308E0BB68D3F83024FB799B0013448A
:1023A0001B68FB60FB6818461437BD465DF8047B6C
:1023B000704700BFAC0C002080B584B000AF03466E
:1023C0003960FB710023FB730F4BBB60FB799AB242
:1023D000BB68B3F82C349A4201D3002310E0BB68E9
:1023E000D3F83024FB799B0013441B6819463868E6
:1023F000FEF746F80346002B01D10123FB73FB7B5C
:1024000018461037BD4680BDAC0C002080B582B0A8
:1024100000AF084B7B607B681B78184600F07AFFA2
:102420000346002B01D1012300E0002318460837A2
:10243000BD4680BDAC0C002080B586B000AF786092
:1024400039600123FB75204B3B613B69B3F8E832EF
:102450000F2B01D9002332E03B69B3F8E832FB814E
:10246000FA8913469B0013449B0003F53A733A69BB
:10247000134404337968184605F0ECFDFA8939698C
:1024800013469B0013449B000B4403F53F733A68CB
:102490001A60FA8913469B0013449B0003F53A73B4
:1024A0003A69134404331846FFF7DAFE3B69B3F880
:1024B000E83201339AB23B69A3F8E822FB7D184663
:1024C0001837BD4680BD00BFAC0C002080B584B07D
:1024D00000AF7860154BBB601548FFF79DFE1548AF
:1024E000FFF79AFE0023FB6012E0FA6813469B0098
:1024F00013449B0003F53A73BA6813440433184637
:10250000FFF78AFE0A48FFF787FEFB680133FB608E
:10251000BB68B3F8E8321A46FB689342E5DB06482D
:10252000FFF77AFE00BF1037BD4680BDAC0C00201F
:1025300018BE00081CBE00083CBE000880B58CB068
:1025400000AF78601023BB627B681B887B617B686F
:102550005B683B617B681B88002B03D14048FFF719
:102560005BFE7AE07B69012B09DD3B6904331B6864
:1025700000220021184606F067FC0346BB623B6957
:102580001B6800220021184606F05EFC03467B62B1
:102590007B6ABB613348FFF73FFE0023FB6258E0D4
:1025A000FB6A03F00303002B04D17B6A19462E4813
:1025B000FFF732FE7B6A1B6819462C48FFF72CFE9A
:1025C000FB6A5A4203F0030302F0030258BF53426E
:1025D000032B38D12648FFF71FFE00233B622CE077
:1025E000BB691B68FB600023FB611DE007F10C0267
:1025F000FB6913441B781F2B10D907F10C02FB69F0
:1026000013441B787E2B09D807F10C02FB69134495
:102610001B7819461748FFF7FFFD02E01648FFF741
:10262000FBFDFB690133FB61FB69032BDEDDBB694D
:102630000433BB613B6A01333B623B6A032BCFDD52
:102640000E48FFF7E9FD7B6A04337B62FB6A0133C6
:10265000FB62FA6ABB6A9A42A2DB3037BD4680BD94
:102660005CBE000870BE000878BE000884BE00088A
:102670008CBE000890BE000894BE000898BE0008FA
:1026800080B483B000AF78607B6800225A707B68AA
:1026900000221A727B6803F126027B68C3F82824A3
:1026A0007B6803F23A427B68C3F83C2800BF0C37D2
:1026B000BD465DF8047B704780B584B000AFF8601C
:1026C0000B467A60FB72FB68FA7A1A70FB687A68CC
:1026D0005A60FB6801225A70FB6800221A72FFF7E9
:1026E00058F90246FB68DA60FB7A7968184600F010
:1026F00003FD034618461037BD4680BD80B584B043
:1027000000AF78600023FB737B681B78184600F0ED
:1027100001FE0346002B0FD07B681B78184600F0A3
:102720003FFE0346BB73FFF734F902467B68DB6864
:10273000D31A632B05D901E00023BEE07B68002299
:102740001A72FFF726F902467B68DA607B681B7A0B
:10275000082B00F2B18001A252F823F08127000873
:1027600097270008B3270008CF270008EB270008A9
:10277000092800084B280008872800089528000829
:10278000BB7B022B40F095807B6801221A727B682C
:1027900000229A778DE07B68BA7B1A767B689A7FF5
:1027A000BB7B5340DAB27B689A777B6802221A724D
:1027B00082E07B68BA7B5A767B689A7FBB7B53400A
:1027C000DAB27B689A777B6803221A7274E07B68BE
:1027D000BA7B9A767B689A7FBB7B5340DAB27B6880
:1027E0009A777B6804221A7266E0BB7B9AB27B6898
:1027F0009A837B689A7FBB7B5340DAB27B689A7777
:102800007B6805221A7257E07B689B8B1AB2BB7BF0
:102810001B021BB213431BB29AB27B689A837B687C
:102820009A7FBB7B5340DAB27B689A777B689B8B3D
:10283000002B06D07B6800221A617B6806221A7280
:102840003AE07B6807221A7236E07B68D3F82824C6
:102850007B681B691344BA7B1A707B689A7FBB7BC9
:102860005340DAB27B689A777B681B695A1C7B6895
:102870001A617B681B697A68928B93421BD17B68D3
:1028800007221A7217E07B68BA7BDA777B68082226
:102890001A7211E0BB7B032B07D17B689A7F7B68A0
:1028A000DB7F9A4201D10123FB737B6800221A72FD
:1028B00002E000BF00E000BFFB7B18461037BD46BA
:1028C00080BD00BF80B588B000AFF8607B600B466C
:1028D000FB721346BB720023FB61FB695A1CFA6151
:1028E000FA681344022283F83424FB695A1CFA6103
:1028F000FA681344FA7A83F83424FB695A1CFA61A3
:10290000FA681344012283F83424FB695A1CFA61E3
:10291000FA681344BA7A83F83424FB695A1CFA61C2
:10292000BA6AD1B2FA6813440A4683F83424BB6AFF
:10293000190AFB695A1CFA61C9B2FA6813440A46BB
:1029400083F834240023BB610EE0BB697A681A4423
:10295000FB69591CF9611178FA6813440A4683F837
:102960003424BB690133BB61BB69BA6A9A42ECD8B3
:102970000023FB7500233B610BE03B690133FA68E0
:10298000134493F83424FB7D5340FB753B690133BA
:102990003B61BB6A5A1D3B699A42EED8FB695A1CDF
:1029A000FA61FA681344FA7D83F83424FB695A1CEF
:1029B000FA61FA681344032283F83424FB68187818
:1029C000FB6803F23443FA69194600F00FFD00BFBB
:1029D0002037BD4680BD000080B500AF03490448E4
:1029E000FFF72AFD0123184680BD00BFB52B000864
:1029F000A8BE000880B58CB000AF786039600023B5
:102A000087F82F304FF6FF73BB850023BB6200238E
:102A10007B6215E07B6A9BB23A687968184600F0E1
:102A200071F80346002B08D0B7F92C30002B01DADF
:102A30007B6ABB85BB6A0133BB627B6A01337B6205
:102A40007B6A072BE6DDBB6A002B20D002F05EF824
:102A50000023FB6001233B61B7F92C307B61BB6A2B
:102A6000BB610223FB6107F1080207F10C03114669
:102A7000184602F0BDF9034687F8233097F8233053
:102A8000002B02D1012387F82F3002F061F897F86C
:102A90002F3018463037BD4680BDB0B588B000AF86
:102AA000F860B9607A600123FB7702F02FF8002309
:102AB000BB611BE0BB69BA6813441B78FB82BA692F
:102AC000FB68D118FB8A00221C46154622462B467D
:102AD000002001F0C7FF03467B757B7D002B02D0F1
:102AE0000023FB7706E0BB690133BB61BB697A68F1
:102AF0009A42DFD802F02CF8FB7F18462037BD46FB
:102B0000B0BD000080B48BB000AF0346B9607A60FE
:102B1000FB81002387F82730FB89254A52F83330A0
:102B20003B62FB89224A52F83320FB892049DB00B3
:102B30000B445B681344013BFB61BB68BB61BA6833
:102B40007B681344013B7B613A6ABB699A4206D3B6
:102B50003A6A7B699A4202D8012387F82730FA69DA
:102B6000BB699A4206D3FA697B699A4202D801236B
:102B700087F82730BA693B6A9A4206D3BA69FB697B
:102B80009A4202D8012387F827307A693B6A9A4231
:102B900006D37A69FB699A4202D8012387F8273065
:102BA00097F8273018462C37BD465DF8047B7047F0
:102BB0002802002080B58CB000AF7860002387F831
:102BC0002F307B681B88012B21D17B685B695C49B6
:102BD000002098470346002B19D00023BB6210E069
:102BE000584ABB6A52F83310564ABB6ADB0013449A
:102BF0005B689B0A1A465448FFF70EFBBB6A013319
:102C0000BB62BB6A072BEBDD012387F82F307B68A3
:102C10001B88032B2BD17B685B694C4900209847AC
:102C20000346002B23D07B689B680120984703460E
:102C30003B627B689B68022098470346FB61002348
:102C40007B620DE07A6A3B6AD1187A6A3B6A134468
:102C50001B781A463E48FFF7DFFA7B6A01337B6236
:102C60007B6AFA699A42EDD8012387F82F307B6896
:102C70001B88032B21D17B685B693649002098476C
:102C80000346002B19D07B689B68012098470346B8
:102C9000BB617B689B680220984703467B6179692A
:102CA000B869FFF7A7FE0346002B03D02A48FFF7B9
:102CB000B3FA02E02948FFF7AFFA7B681B88032BC1
:102CC00027D17B685B692649002098470346002B83
:102CD0001FD07B689B680120984703463B617B6857
:102CE0009B68022098470346FB6007F10C0304220F
:102CF00019463869FFF7D1FE0346002B03D0194867
:102D0000FFF78AFA02E01848FFF786FA012387F8EE
:102D10002F3097F82F3083F00103DBB2002B0BD05C
:102D20001248FFF779FA1248FFF776FA1148FFF7D1
:102D300073FA1148FFF770FA00BF3037BD4680BD07
:102D4000B0BE000828020020B8BE0008C8BE0008B7
:102D5000D0BE0008E0BE0008E8BE0008F4BE0008CF
:102D600000BF000808BF000814BF000820BF00080B
:102D70002CBF000848BF000864BF000880B588B0B9
:102D800000AF0123FB763B1D00221A605A609A6057
:102D9000DA601A6100233B601B4B1B6B1A4A43F03D
:102DA00004031363184B1B6B03F004033B603B6885
:102DB0000123BB600023FB6000233B610023FB6118
:102DC00016E0124AFB69DB0013449B887B600F4AC4
:102DD000FB6952F833303A1D1146184602F02AF9C1
:102DE000FB69DBB2184600F037F8FB690133FB6181
:102DF000FB69002BE5DD06490648FFF71DFBFB7E5E
:102E000018462037BD4680BD0038024068020020C9
:102E1000D12E00087CBF000880B582B000AF034609
:102E2000FB71FB79002B11D1FB790A4A52F8330070
:102E3000FB79084ADB0013449988FB79054ADB00DB
:102E400013449B791A4602F075FB00E000BF083777
:102E5000BD4680BD6802002080B582B000AF034649
:102E6000FB71FB79002B11D1FB790A4A52F8330030
:102E7000FB79084ADB0013449988FB79054ADB009B
:102E80001344DB791A4602F055FB00E000BF083717
:102E9000BD4680BD6802002080B582B000AF034609
:102EA000FB71FB79002B0DD1FB79084A52F83320D6
:102EB000FB790649DB000B449B881946104602F05B
:102EC00052FB00E000BF0837BD4680BD680200200D
:102ED00080B586B000AF78600023FB757B681B88E7
:102EE000032B33D17B685B691F4900209847034659
:102EF000002B2BD07B689B68012098470346BB754D
:102F00007B689B68022098470346FB60BB7D002BD3
:102F100002D0BB7D013BBB75FEF73BFD38610EE087
:102F2000FEF737FD02463B69D31AFA689A4206D883
:102F3000FEF72FFD3861BB7D1846FFF7ADFFFFF7A9
:102F400065FA0346002BEBD10123FB75FB7D83F073
:102F50000103DBB2002B03D001210448FFF75CF929
:102F600000BF1837BD4680BD80BF000888BF00087D
:102F700080B582B000AF0123FB71114B5B6F03F092
:102F80008063002B12D0012000F066F80346013365
:102F90001946012000F070F84FF4FA70FEF7EEFCCD
:102FA000012000F059F80346064A13600021012071
:102FB00000F062F8FB7918460837BD4680BD00BFB7
:102FC00000380240F010002080B400AF034B1B68B3
:102FD0001846BD465DF8047B704700BFF010002026
:102FE00080B582B000AF0123FB7100233B60174B1B
:102FF0001B6B164A43F004031363144B1B6B03F063
:1030000004033B603B68124B124A1A60104B0022CB
:103010005A600F4B7F229A600D4BFF22DA600C4BF7
:1030200000221A610A4B00225A61094B00229A6160
:10303000074803F0BFF80346002B01D0FEF732FD2E
:10304000FB7918460837BD4680BD00BF00380240F6
:10305000F41000200028004080B582B000AF7860F6
:103060007968044803F0A5F9034618460837BD46B9
:1030700080BD00BFF410002080B582B000AF786042
:1030800039603A687968034803F079F900BF083776
:10309000BD4680BDF410002080B483B000AF7860DE
:1030A0007B681B68054A934202D1054B01221A60D6
:1030B00000BF0C37BD465DF8047B70470028004018
:1030C0003C0E474280B483B000AF00237B6007E032
:1030D000084A7B68134400221A707B6801337B60C6
:1030E0007B68002BF4DD012318460C37BD465DF8E4
:1030F000047B70471411002080B586B000AF0346F2
:103100003960FB710023FB75FB79002B02D0012B8A
:1031100075D0ECE0784B794A1A60774A3B68536087
:10312000754B00229A60744B0022DA60724B0022C9
:103130001A61714B0C225A616F4B00229A616E4BDF
:103140000022DA61FB791B016D4A13444FF480724F
:103150006C491846FEF721FE00233B616A4B1B6B4E
:10316000694A43F480031363674B1B6B03F48003CA
:103170003B613B69002204213A2001F03EF83A20ED
:1031800001F057F800220421462001F036F84620CD
:1031900001F04FF8584803F024F90346002B02D001
:1031A0000023FB75A3E00123FB75FB79574A01213E
:1031B000D1544FF4807253494F4803F025FA034627
:1031C000002B01D00023FB75FB794D4A1B011344F2
:1031D000083319684E4B1B685A68FB798A1A4849AC
:1031E0001B010B441A60FA79FB79454912010A4424
:1031F000126843491B010B4404331A6077E03E4BCD
:103200003E4A1A603C4A3B6853603B4B00229A603E
:10321000394B0022DA60384B00221A61364B0C22FF
:103220005A61354B00229A61334B0022DA613248F1
:1032300003F024F9FB791B01314A13444FF48072E7
:1032400030491846FEF7A9FD0023FB602E4B1B6B8F
:103250002D4A43F4800313632B4B1B6B03F4800351
:10326000FB60FB68002204213A2000F0C6FF3A20F0
:1032700000F0DFFF00220421462000F0BEFF4620C0
:1032800000F0D7FF1C4803F0ACF80346002B02D037
:103290000023FB752AE00123FB75FB791B4A012102
:1032A000D1544FF480721749134803F0ADF9034627
:1032B000002B01D00023FB75FB79114A1B0113443D
:1032C00008331968124B1B685A68FB798A1A0C4933
:1032D0001B010B441A60FA79FB79094912010A446F
:1032E000126807491B010B4404331A6000BFFB7DC1
:1032F00018461837BD4680BD281200200010014036
:10330000181100202811002000380240141100205C
:10331000C812002080B584B000AF0346FB710023C3
:10332000FB60FB79002B02D0012B18D02FE0FB793A
:10333000194A1B01134408331968184B1B685A6853
:10334000FB798A1A14491B010B441A60FB791B0193
:10335000114A13441846FEF778FDF86017E0FB7930
:103360000D4A1B011344083319680C4B1B685A683B
:10337000FB798A1A08491B010B441A60FB791B016F
:10338000054A13441846FEF760FDF86000BFFB686D
:1033900018461037BD4680BD18110020C812002005
:1033A00080B584B000AF0346FB710023FB73FB794B
:1033B000002B02D0012B08D00FE007F10F030122F0
:1033C00019460848FEF704FD07E007F10F03012244
:1033D00019460548FEF7FCFC00BFFB7B184610377A
:1033E000BD4680BD181100202811002080B586B090
:1033F00000AF0346B9607A60FB7300237B61FB7BFF
:10340000002B02D0012B0FD020E07B689AB26423FE
:10341000B968114803F05EF80346FB74FB7C002B8F
:1034200011D17B687B610EE07B689AB26423B96836
:10343000094803F04FF80346FB74FB7C002B04D1D2
:103440007B687B6101E000BF00E000BF7B6918463C
:103450001837BD4680BD00BF281200200EB480B5CD
:10346000C7B000AF024607F58C73A3F211131A70B0
:1034700007F5947207F58C73A3F586731A6007F548
:103480008C73A3F5867307F110001B68D7F824210D
:103490004FF4807105F00EFDC7F81401D7F8142120
:1034A00007F1100107F58C73A3F211131B7818466E
:1034B000FFF79CFFC7F81001D7F81031184607F541
:1034C0008E77BD46BDE8804003B0704780B483B0BE
:1034D00000AF786000BF0C37BD465DF8047B7047D5
:1034E00080B483B000AF786000BF0C37BD465DF894
:1034F000047B704780B58AB000AF786007F1140391
:1035000000221A605A609A60DA601A617B681B6850
:103510005B4A934240F0B08000233B61594B5B6CA7
:10352000584A43F010035364564B5B6C03F010038E
:103530003B613B690023FB60524B1B6B514A43F0DC
:10354000010313634F4B1B6B03F00103FB60FB682C
:103550000023BB604B4B1B6B4A4A43F002031363CF
:10356000484B1B6B03F00203BB60BB684FF48063E6
:103570007B610223BB610023FB6103233B620723C2
:103580007B6207F1140319463F4801F053FD4023C5
:103590007B610223BB610023FB6103233B620723A2
:1035A0007B6207F114031946384801F043FD384B9C
:1035B000384A1A60364B4FF000625A60344B402252
:1035C0009A60334B0022DA60314B4FF480621A610B
:1035D0002F4B00225A612E4B00229A612C4B002265
:1035E000DA612B4B00221A62294B00225A622848CA
:1035F00000F048FE0346002B01D0FEF753FA7B682B
:10360000234A1A63224A7B689363234B234A1A6036
:10361000214B4FF000625A601F4B00229A601E4BF4
:103620000022DA601C4B4FF480621A611A4B0022B0
:103630005A61194B00229A61174B4FF48072DA617C
:10364000154B00221A62144B00225A62124800F0F5
:1036500019FE0346002B01D0FEF724FA7B680E4AC0
:103660005A630D4A7B68936300220021252000F0F5
:10367000C4FD252000F0DDFD00BF2837BD4680BD1C
:1036800000100140003802400000024000040240E7
:1036900068120020B8640240C81200204064024052
:1036A00080B582B000AF78607B681B68114A934296
:1036B0001BD1114B5B6C104A23F0100353644FF481
:1036C00080610E4801F03AFE40210D4801F036FEBF
:1036D0007B681B6B184600F083FE7B685B6B1846AB
:1036E00000F07EFE252000F0B2FD00BF0837BD4689
:1036F00080BD00BF001001400038024000000240C1
:103700000004024080B500AF03490448FEF794FE70
:103710000123184680BD00BF213D0008A8BF000856
:1037200080B584B000AF78600B46FB700123FB735B
:103730007B68FA781A707B6801225A707B680022D5
:103740009A727B68002283F8B0207B6803F1C5027F
:103750007B68C3F8A8207B680022A3F8AC20FEF7A2
:1037600018F902467B68DA607B6840F6B8321A6165
:103770007B6800225A767B6803F1C5027B68C3F838
:10378000B820FB7B18461037BD4680BD80B584B09D
:1037900000AF78600B46FB700123FB737B681B78DE
:1037A000F91C01221846FFF721FE0346002B14BF27
:1037B00001230023FB73FB7B18461037BD4680BDF9
:1037C00080B586B000AF78600123FB720023FB75E3
:1037D00000233B611CE07B68D3F8B8203B691344AD
:1037E00019787A683B6913441A330A461A707A6862
:1037F0003B6913441A331B78002B06D13B699BB2FB
:103800000133BB820123FB7505E03B6901333B615A
:103810003B697F2BDFDDFB7D002B26D0BB8AFB6065
:1038200012E07B68D3F8B820FB6813441B78202B88
:1038300007D17B68D3F8B820FB68134400221A70C4
:1038400005E0FB680133FB60FB687F2BE9DD7B68EB
:10385000D3F8B820BB8A134400220021184605F093
:10386000F3FA02467B68C3F8A020FB7A18461837A3
:10387000BD4680BD80B584B000AF78600023FB7387
:103880000023BB737B685B7883F00103DBB2002B02
:1038900004D07B6804221A72012330E17B681B7814
:1038A0001846FFF737FD0346002B0AD07B681B78CC
:1038B0001846FFF775FD03461A467B685A720123C6
:1038C000BB73BB7B002B00F001817B6803F1B0026E
:1038D0007B685B7A1946104600F016F90346002B08
:1038E00000F0F4807B689B7A002B07D07B6893F80C
:1038F000B430182B02D17B6805229A727B689B7AC0
:10390000052B00F2FB8001A252F823F025390008B4
:1039100071390008FD390008793A0008913A000829
:10392000AB3A00087B6893F8B430042B07D115211B
:103930007868FFF72BFF7B6803229A72C2E07B68EE
:1039400093F8B530002B40F0BD807B680022C3F8AF
:103950009C207868FFF734FF7B6802225A767B68E8
:1039600001229A727B6800221A720123FB73A9E07C
:103970007B6893F8B430042B07D115217868FFF7E2
:1039800005FF7B6803229A729EE07B6893F8B5304E
:10399000012B40F099807B680022C3F89C207B6853
:1039A0000022C3F8A4207B68D3F8A0207B68D3F85A
:1039B0009C30D31ABB607B68B3F8BC301A46BB6836
:1039C000934203D97B68B3F8BC30BB60BB689AB242
:1039D0007B68A3F8AC207B68D3F8A420BB681A44AA
:1039E0007B68C3F8A42006217868FFF7CFFE7B68C8
:1039F00002229A727B6801221A7265E07B6893F852
:103A0000B430042B07D115217868FFF7BFFE7B681F
:103A100003229A7259E07B68D3F8A0207B68D3F820
:103A20009C30D31ABB607B68B3F8BC301A46BB68C5
:103A3000934203D97B68B3F8BC30BB60BB689AB2D1
:103A40007B68A3F8AC207B68D3F89C20BB681A4441
:103A50007B68C3F89C207B68D3F8A420BB681A4419
:103A60007B68C3F8A4207B6801225A767B68012218
:103A70001A720123FB7328E006217868FFF786FE9F
:103A800043217868FFF782FE7B6804229A721CE06B
:103A900006217868FFF77AFE7B6800229A727B68BD
:103AA00002221A720123FB730FE006217868FFF7E8
:103AB0006DFE7B6800229A727B6803221A720123D2
:103AC000FB7302E000BF19E000BF17E07B6893F8CA
:103AD000B030002B12D1FDF75CFF02467B68DB683B
:103AE000D21A7B681B699A4208D3FDF752FF02463F
:103AF0007B68DA6043217868FFF748FEFB7B184655
:103B00001037BD4680BD00BF80B584B000AF78607F
:103B10000B46FB700023FB737B681B78052B00F2C0
:103B20009B8001A252F823F0413B0008953B00081E
:103B3000A33B0008CD3B0008FB3B00080F3C0008FE
:103B4000FB78012B08D17B6880229A817B68FA7808
:103B50001A717B6801221A70FB78022B09D17B68ED
:103B60004FF480629A817B68FA781A717B6801222F
:103B70001A70FB78042B04D17B68FA781A71012340
:103B8000FB73FB78182B62D17B68FA781A710123DA
:103B9000FB735CE07B68FA785A717B6802221A70CA
:103BA0005AE07B68FA789A717B685A79FB78DB4334
:103BB000DBB29A4206D17B6800225A807B680322DE
:103BC0001A7049E07B6800221A7045E07B689B68A8
:103BD0007A6852881344FA781A707B685B880133DC
:103BE0009AB27B685A807B685A887B689B899A4224
:103BF0002FD37B6804221A702BE0FB789BB21B0248
:103C00009AB27B681A827B6805221A7024E07B686E
:103C10001A8AFB789BB213439AB27B681A827B683C
:103C200000221A707B689A687B689B891946104647
:103C300000F03AF803461A467B68DA817B68DA8935
:103C40007B681B8A9A4206D10123FB7303E000BF05
:103C500002E000BF00E000BFFB7B18461037BD4606
:103C600080BD00BF80B485B000AF03463960FB80E3
:103C7000FB88DB0BBB81FB885B00FB813B68002B77
:103C800002D0FB890133FB81BB89002B05D0FB8966
:103C900083F4815383F00103FB81FB8918461437B9
:103CA000BD465DF8047B704780B584B000AF786096
:103CB0000B467B800023FB811AE08023BB810EE052
:103CC0007B681B781A46BB891A40FB891146184647
:103CD000FFF7C8FF0346FB81BB895B08BB81BB893B
:103CE000002BEDD17B88013B7B807B6801337B60BF
:103CF0007B88002BE1D10023BB8109E0FB890021F7
:103D00001846FFF7AFFF0346FB81BB890133BB8138
:103D1000BB890F2BF2D9FB8918461037BD4680BDF1
:103D200080B5ADF59B6D00AF07F59B63A3F2D4435F
:103D30001860002387F8D734012387F8D53407F5B6
:103D40009B63A3F2D4431B681B88012B40F08A803D
:103D500007F59B63A3F2D4431B685B6949490020C4
:103D600098470346002B7DD007F10C03002118462D
:103D7000FFF7D6FC012387F8D63400BF6BE007F1CC
:103D80000C031846FFF776FD0346002B62D007F5BB
:103D90009B63A3F2CC431B7A042B5CD801A252F89C
:103DA00023F000BFB93D0008DB3D0008193E0008C4
:103DB0002D3E0008413E000807F59B63A3F2CC436B
:103DC000D3F8A01007F10C0303F11A0297F8D504F9
:103DD0000B462D49FFF742FB3DE007F59B63A3F23D
:103DE000CC4393F8B530194607F59B63A3F2CC4357
:103DF000D3F8A430642203FB02F207F59B63A3F21D
:103E0000CC43D3F8A030B2FBF3F397F8D5040A46BD
:103E10001E49FFF723FB1EE097F8D5341C491846CE
:103E2000FFF71CFB002387F8D63414E097F8D5344D
:103E300018491846FFF712FB002387F8D6340AE02A
:103E400097F8D53414491846FFF708FB002387F884
:103E5000D63400E000BF97F8D634002B8FD1012371
:103E600087F8D73497F8D73483F00103DBB2002BFF
:103E700002D00A48FEF7D0F900BF07F59B67BD46A0
:103E800080BD00BFB0BF0008B8BF0008D4BF0008A5
:103E9000F0BF000804C000081CC0000830C00008C3
:103EA00080B500AFFDF71AFDFDF7E8FFFFF798F8C2
:103EB000FFF75EF8FEF74AF9FEF760FFFFF702F939
:103EC000FEF734F8FEF788FDFFF71CFC00BF80BD4D
:103ED00080B500AF0E4B1B680D4A43F400731360AE
:103EE0000B4B1B680A4A43F480631360084B1B6842
:103EF000074A43F480731360032000F073F9002035
:103F000000F008F8FDF7D4FD0023184680BD00BF7F
:103F1000003C024080B582B000AF7860124B1A6856
:103F2000124B1B7819464FF47A73B3FBF1F3B2FBD3
:103F3000F3F3184600F099F90346002B01D0012352
:103F40000EE07B680F2B0AD8002279684FF0FF3013
:103F500000F053F9064A7B681360002300E0012358
:103F600018460837BD4680BD0C00002074020020B2
:103F70007002002080B400AF064B1B781A46064B37
:103F80001B681344044A136000BFBD465DF8047B00
:103F9000704700BF740200202813002080B400AFD7
:103FA000034B1B681846BD465DF8047B704700BF95
:103FB0002813002080B584B000AF7860FFF7EEFFD3
:103FC000B8607B68FB60FB68B3F1FF3F05D00A4B2C
:103FD0001B781A46FB681344FB6000BFFFF7DEFF47
:103FE0000246BB68D31AFA689A42F7D800BF00BFEE
:103FF0001037BD4680BD00BF7402002080B485B07C
:1040000000AF78607B6803F00703FB600C4BDB6854
:10401000BB60BA684FF6FF031340BB60FB681A022F
:10402000BB68134343F0BF6343F40033BB60044AEF
:10403000BB68D36000BF1437BD465DF8047B704792
:1040400000ED00E080B400AF044BDB681B0A03F016
:1040500007031846BD465DF8047B704700ED00E09D
:1040600080B483B000AF0346FB7197F90730002B93
:104070000BDBFB7903F01F02074997F907305B0957
:10408000012000FA02F241F8232000BF0C37BD46A0
:104090005DF8047B704700BF00E100E080B483B0AE
:1040A00000AF0346FB7197F90730002B12DBFB7959
:1040B00003F01F020A4997F907305B09012000FA53
:1040C00002F2203341F82320BFF34F8F00BFBFF32C
:1040D0006F8F00BF00BF0C37BD465DF8047B704793
:1040E00000E100E080B483B000AF03463960FB71AB
:1040F00097F90730002B0ADB3B68DAB20C4997F9D5
:1041000007301201D2B20B4483F800230AE03B6867
:10411000DAB20849FB7903F00F03043B1201D2B273
:104120000B441A7600BF0C37BD465DF8047B704720
:1041300000E100E000ED00E080B489B000AFF8607D
:10414000B9607A60FB6803F00703FB61FB69C3F1A8
:104150000703042B28BF0423BB61FB690433062B30
:1041600002D9FB69033B00E000237B614FF0FF3283
:10417000BB6902FA03F3DA43BB681A407B699A40D1
:104180004FF0FF317B6901FA03F3D9437B680B40A1
:10419000134318462437BD465DF8047B7047000082
:1041A00080B582B000AF78607B68013BB3F1807F5F
:1041B00001D301230FE00A4A7B68013B53600F21C2
:1041C0004FF0FF30FFF78EFF054B00229A60044B43
:1041D00007221A60002318460837BD4680BD00BF7D
:1041E00010E000E080B582B000AF78607868FFF73B
:1041F00005FF00BF0837BD4680BD80B586B000AF63
:104200000346B9607A60FB7300237B61FFF71AFFF6
:1042100078617A68B9687869FFF78EFF024697F986
:104220000F3011461846FFF75DFF00BF1837BD4637
:1042300080BD80B582B000AF0346FB7197F90730AF
:104240001846FFF70DFF00BF0837BD4680BD80B59B
:1042500082B000AF0346FB7197F907301846FFF7AD
:104260001DFF00BF0837BD4680BD80B582B000AFDE
:1042700078607868FFF794FF034618460837BD4614
:1042800080BD000080B586B000AF786000237B6100
:10429000FFF784FE38617B68002B01D1012399E090
:1042A0007B68002283F834207B68022283F8352063
:1042B0007B681B681A687B681B6822F001021A6021
:1042C0000FE0FFF76BFE02463B69D31A052B08D9B6
:1042D0007B6820225A657B68032283F835200323FC
:1042E00078E07B681B681B6803F00103002BE8D1B2
:1042F0007B681B681B687B617A69384B13407B6164
:104300007B685A687B689B681A437B68DB681A4342
:104310007B681B691A437B685B691A437B689B69EE
:104320001A437B68DB691A437B681B6A13437A690B
:1043300013437B617B685B6A042B07D17B68DA6A75
:104340007B681B6B13437A6913437B617B681B6833
:104350007A691A607B681B685B697B617B6923F003
:1043600007037B617B685B6A7A6913437B617B68C7
:104370005B6A042B17D17B689B6A7A6913437B6164
:104380007B68DB6A002B0ED0786800F0EFFA0346FA
:10439000002B08D07B6840225A657B68012283F895
:1043A0003520012316E07B681B687A695A617868BA
:1043B00000F0A6FA0346FB607B68DB6D3F229A4063
:1043C000FB689A607B6800225A657B68012283F84B
:1043D0003520002318461837BD4680BD3F8010F0B9
:1043E00080B584B000AF78607B68002B01D10123D9
:1043F00050E07B6893F83530DBB2022B01D1022309
:1044000048E07B681B681A687B681B6822F0010221
:104410001A607B681B6800221A607B681B68002298
:104420005A607B681B6800229A607B681B680022C8
:10443000DA607B681B6800221A617B681B68212296
:104440005A61786800F05CFA0346FB607B680022E2
:10445000DA637B6800221A647B6800225A647B68F6
:1044600000229A647B680022DA647B6800221A6565
:104470007B68DB6D3F229A40FB689A607B68002274
:104480005A657B68002283F835207B68002283F818
:104490003420002318461037BD4680BD80B586B055
:1044A00000AFF860B9607A603B600023FB75FB6881
:1044B0009B6D3B61FB6893F83430012B01D10223E3
:1044C00040E0FB68012283F83420FB6893F8353024
:1044D000DBB2012B2FD1FB68022283F83520FB6869
:1044E00000225A653B687A68B968F86800F0DAF922
:1044F000FB68DB6D3F229A403B699A60FB681B6852
:104500001A68FB681B6842F016021A60FB681B6C95
:10451000002B07D0FB681B681A68FB681B6842F019
:1045200008021A60FB681B681A68FB681B6842F087
:1045300001021A6005E0FB68002283F834200223A0
:10454000FB75FB7D18461837BD4680BD80B483B02F
:1045500000AF78607B6893F83530DBB2022B04D073
:104560007B6880225A6501230CE07B68052283F872
:1045700035207B681B681A687B681B6822F0010283
:104580001A60002318460C37BD465DF8047B70475F
:1045900080B586B000AF78600023BB608E4B1B688F
:1045A0008E4AA2FB03239B0A7B617B689B6D3B6168
:1045B0003B691B68FB607B68DB6D08229A40FB68E7
:1045C0001340002B1AD07B681B681B6803F00403A0
:1045D000002B13D07B681B681A687B681B6822F06D
:1045E00004021A607B68DB6D08229A403B699A607E
:1045F0007B685B6D43F001027B685A657B68DB6D0D
:1046000001229A40FB681340002B12D07B681B6884
:104610005B6903F08003002B0BD07B68DB6D01220C
:104620009A403B699A607B685B6D43F002027B684D
:104630005A657B68DB6D04229A40FB681340002BAF
:1046400012D07B681B681B6803F00203002B0BD0A1
:104650007B68DB6D04229A403B699A607B685B6DE6
:1046600043F004027B685A657B68DB6D10229A4038
:10467000FB681340002B43D07B681B681B6803F06A
:104680000803002B3CD07B68DB6D10229A403B690D
:104690009A607B681B681B6803F48023002B18D08A
:1046A0007B681B681B6803F40023002B08D17B6820
:1046B0001B6C002B24D07B681B6C786898471FE02C
:1046C0007B689B6C002B1BD07B689B6C7868984741
:1046D00016E07B681B681B6803F48073002B07D10E
:1046E0007B681B681A687B681B6822F008021A60E6
:1046F0007B681B6C002B03D07B681B6C7868984729
:104700007B68DB6D20229A40FB681340002B00F091
:104710008F807B681B681B6803F01003002B00F080
:1047200087807B68DB6D20229A403B699A607B68BA
:1047300093F83530DBB2052B36D17B681B681A68DD
:104740007B681B6822F016021A607B681B685A6936
:104750007B681B6822F080025A617B681B6C002B0F
:1047600003D17B689B6C002B07D07B681B681A68A1
:104770007B681B6822F008021A607B68DB6D3F22B1
:104780009A403B699A607B68002283F834207B68FA
:10479000012283F835207B681B6D002B7ED07B685F
:1047A0001B6D7868984779E07B681B681B6803F489
:1047B0008023002B1DD07B681B681B6803F400233B
:1047C000002B0DD17B685B6C002B31D07B685B6C60
:1047D000786898472CE000BF0C000020B5814E1B84
:1047E0007B68DB6B002B23D07B68DB6B786898479A
:1047F0001EE07B681B681B6803F48073002B0FD1DD
:104800007B681B681A687B681B6822F010021A60BC
:104810007B68002283F834207B68012283F83520EE
:104820007B68DB6B002B03D07B68DB6B7868984779
:104830007B685B6D002B32D07B685B6D03F00103FE
:10484000002B22D07B68052283F835207B681B680B
:104850001A687B681B6822F001021A60BB6801338A
:10486000BB607A699A4207D37B681B681B6803F0B8
:104870000103002BF2D100E000BF7B68002283F827
:1048800034207B68012283F835207B68DB6C002BA9
:1048900005D07B68DB6C7868984700E000BF18376C
:1048A000BD4680BD80B485B000AFF860B9607A6065
:1048B0003B60FB681B681A68FB681B6822F4802257
:1048C0001A60FB681B683A685A60FB689B68402B5B
:1048D00008D1FB681B687A689A60FB681B68BA6835
:1048E000DA6007E0FB681B68BA689A60FB681B68BF
:1048F0007A68DA6000BF1437BD465DF8047B704704
:1049000080B485B000AF78607B681B68DBB2103B79
:10491000144AA2FB03231B09FB60134AFB681344E0
:104920001B781A467B68DA65FB68032B09D97B681C
:104930001B6823F47F7323F003031A1D7B689A65B9
:1049400007E07B681B6823F47F7323F003037A6816
:1049500093657B689B6D18461437BD465DF8047BF4
:10496000704700BFABAAAAAA58C0000880B485B09F
:1049700000AF78600023FB737B689B6ABB607B6839
:104980009B69002B1FD1BB68032B56D801A252F89C
:1049900023F000BFA5490008B7490008A549000851
:1049A0003B4A00087B68DB6A03F08073002B46D02B
:1049B0000123FB7343E07B68DB6AB3F1C07F40D126
:1049C0000123FB733DE07B689B69B3F5005F21D158
:1049D000BB68032B37D801A252F823F0ED49000839
:1049E000F3490008ED490008054A00080123FB735C
:1049F00030E07B68DB6A03F08073002B25D0012355
:104A0000FB7322E07B68DB6AB3F1C07F1FD1012317
:104A1000FB731CE0BB68022B03D9BB68032B03D0DC
:104A200018E00123FB7315E07B68DB6A03F08073F9
:104A3000002B0ED00123FB730BE000BF0AE000BF88
:104A400008E000BF06E000BF04E000BF02E000BFD6
:104A500000E000BFFB7B18461437BD465DF8047BC1
:104A6000704700BF80B586B000AFF860B960C7E995
:104A700000230123FB75234B1B7E012B01D1022355
:104A80003BE0204B01221A764CF2503000F070F8D7
:104A90000346FB75FB7D002B2BD1FB68002B05D15A
:104AA0003B781946B86800F01BF916E0FB68012B4B
:104AB00005D13B881946B86800F0EEF80DE0FB68B8
:104AC000022B05D13B681946B86800F0C3F804E032
:104AD000D7E90023B86800F08BF84CF2503000F0B2
:104AE00047F80346FB75084B1B69074A23F001038F
:104AF0001361044B00221A76FB7D18461837BD4619
:104B000080BD00BF2C130020003C024080B483B065
:104B100000AF0023FB710B4B1B69002B0BDA094B19
:104B2000094A5A60074B094A5A60064B1B69002B19
:104B300001DA0123FB71FB7918460C37BD465DF89D
:104B4000047B7047003C024023016745AB89EFCDF1
:104B500080B400AF054B1B69044A43F00043136166
:104B600000231846BD465DF8047B7047003C0240B8
:104B700080B584B000AF78600023FB601A4B002240
:104B8000DA61FFF70BFAF86010E07B68B3F1FF3FE2
:104B90000CD07B68002B07D0FFF700FA0246FB68B9
:104BA000D31A7A689A4201D2032319E00F4BDB68CB
:104BB00003F48033002BE8D10C4BDB6803F00103D6
:104BC000002B02D0094B0122DA60084BDB6803F4AA
:104BD000F973002B03D000F0A5F8012300E00023B7
:104BE00018461037BD4680BD2C130020003C024003
:104BF00080B485B000AFF860C7E90023144B1B698F
:104C0000134A23F440731361114B1B69104A43F498
:104C1000407313610E4B1B690D4A43F0010313618E
:104C2000FB683A681A60BFF36F8F00BFD7E90001D5
:104C30004FF000024FF000030A000023F96804312E
:104C400013460B6000BF1437BD465DF8047B704708
:104C5000003C024080B483B000AF786039600D4BF7
:104C60001B690C4A23F4407313610A4B1B69094A00
:104C700043F400731361074B1B69064A43F00103B9
:104C800013617B683A681A6000BF0C37BD465DF857
:104C9000047B7047003C024080B483B000AF786072
:104CA0000B467B800D4B1B690C4A23F44073136148
:104CB0000A4B1B69094A43F480731361074B1B6954
:104CC000064A43F0010313617B687A881A8000BFAB
:104CD0000C37BD465DF8047B704700BF003C0240C6
:104CE00080B483B000AF78600B46FB700C4B1B693F
:104CF0000B4A23F440731361094B094A1B69136182
:104D0000074B1B69064A43F0010313617B68FA787D
:104D10001A7000BF0C37BD465DF8047B704700BFBA
:104D2000003C024080B400AF2F4BDB6803F010035F
:104D3000002B08D02D4BDB6943F010032B4AD361C5
:104D4000294B1022DA60284BDB6803F02003002B8C
:104D500008D0264BDB6943F00803244AD361224B79
:104D60002022DA60204BDB6803F04003002B08D0E0
:104D70001E4BDB6943F004031C4AD3611A4B4022EB
:104D8000DA60194BDB6803F08003002B08D0174B67
:104D9000DB6943F00203154AD361134B8022DA60CA
:104DA000114BDB6803F48073002B09D00F4BDB69D8
:104DB00043F001030D4AD3610B4B4FF48072DA606C
:104DC000094BDB6803F00203002B08D0074BDB69BB
:104DD00043F02003054AD361034B0222DA6000BF8F
:104DE000BD465DF8047B7047003C02402C13002058
:104DF00080B584B000AF786039600123FB73002375
:104E0000BB60314B1B7E012B01D1022358E02E4B9E
:104E100001221A764CF25030FFF7AAFE0346FB73CC
:104E2000FB7B002B48D13B684FF0FF321A607B6858
:104E30001B68012B15D17B681B69DAB27B685B6844
:104E40001946104600F044F84CF25030FFF790FE3F
:104E50000346FB731D4B1B691C4A23F004031361BB
:104E600028E07B689B68BB601CE07B681B69DBB249
:104E70001946B86800F050F84CF25030FFF778FE51
:104E80000346FB73114B1B69104A23F0FA031361AD
:104E9000FB7B002B03D03B68BA681A600AE0BB6852
:104EA0000133BB607B68DA687B689B681344BA682F
:104EB0009A42DAD300F078F8034B00221A76FB7B93
:104EC00018461037BD4680BD2C130020003C024020
:104ED00080B483B000AF03463960FB710D4B1B6992
:104EE0000C4A23F4407313610A4B1B69094A43F0CF
:104EF00004031361074B1A69FB791B021343054A2C
:104F000043F48033136100BF0C37BD465DF8047B6A
:104F1000704700BF003C024080B485B000AF7860AD
:104F20000B46FB700023FB60FB78002B02D10023B3
:104F3000FB6010E0FB78012B03D14FF48073FB6022
:104F400009E0FB78022B03D14FF40073FB6002E011
:104F50004FF44073FB60134B1B69124A23F44073F8
:104F60001361104B1A690F49FB6813430B610D4B1A
:104F70001B690C4A23F0F80313610A4B1A697B681A
:104F8000DB001343074A43F002031361054B1B691F
:104F9000044A43F48033136100BF1437BD465DF803
:104FA000047B7047003C024080B400AF204B1B687C
:104FB00003F40073002B17D01D4B1B681C4A23F40D
:104FC000007313601A4B1B68194A43F400631360A3
:104FD000174B1B68164A23F400631360144B1B68BD
:104FE000134A43F400731360114B1B6803F480638E
:104FF000002B17D00E4B1B680D4A23F480631360FF
:105000000B4B1B680A4A43F480531360084B1B6820
:10501000074A23F480531360054B1B68044A43F48A
:105020008063136000BFBD465DF8047B704700BF1E
:10503000003C024080B489B000AF78603960002342
:105040007B6100233B610023BB610023FB6159E1CD
:105050000122FB6902FA03F37B613B681B687A69F2
:1050600013403B613A697B699A4240F048813B6852
:105070005B68012B0BD03B685B68022B07D03B6859
:105080005B68112B03D03B685B68122B30D17B68C7
:105090009B68BB61FB695B00032202FA03F3DB43FD
:1050A000BA691340BB613B68DA68FB695B0002FACE
:1050B00003F3BA691343BB617B68BA699A607B6882
:1050C0005B68BB610122FB6902FA03F3DB43BA6947
:1050D0001340BB613B685B681B0903F00102FB697D
:1050E00002FA03F3BA691343BB617B68BA695A6079
:1050F0007B68DB68BB61FB695B00032202FA03F398
:10510000DB43BA691340BB613B689A68FB695B008B
:1051100002FA03F3BA691343BB617B68BA69DA60C8
:105120003B685B68022B03D03B685B68122B23D182
:10513000FB69DA087B68083253F82230BB61FB69EF
:1051400003F007039B000F2202FA03F3DB43BA6963
:105150001340BB613B681A69FB6903F007039B00BE
:1051600002FA03F3BA691343BB61FB69DA087B688F
:105170000832B96943F822107B681B68BB61FB6980
:105180005B00032202FA03F3DB43BA691340BB61FD
:105190003B685B6803F00302FB695B0002FA03F300
:1051A000BA691343BB617B68BA691A603B685B6884
:1051B00003F08053002B00F0A2800023FB60574BCC
:1051C0005B6C564A43F480435364544B5B6C03F46A
:1051D0008043FB60FB68524AFB699B08023352F82C
:1051E0002330BB61FB6903F003039B000F2202FA2B
:1051F00003F3DB43BA691340BB617B68494A9342BE
:1052000019D07B68484A934213D07B68474A93423F
:105210000DD07B68464A934207D07B68454A93424B
:1052200001D1042308E0072306E0032304E002235E
:1052300002E0012300E00023FA6902F00302920079
:105240009340BA691343BB613549FB699B0802333C
:10525000BA6941F82320384B1B68BB613B69DB43CB
:10526000BA691340BB613B685B6803F48033002B71
:1052700003D0BA693B691343BB612F4ABB69136012
:105280002D4B5B68BB613B69DB43BA691340BB6173
:105290003B685B6803F40033002B03D0BA693B69B9
:1052A0001343BB61244ABB695360234B9B68BB61BA
:1052B0003B69DB43BA691340BB613B685B6803F43D
:1052C0008013002B03D0BA693B691343BB611A4AB0
:1052D000BB699360184BDB68BB613B69DB43BA6910
:1052E0001340BB613B685B6803F40013002B03D0E1
:1052F000BA693B691343BB610F4ABB69D360FB6961
:105300000133FB61FB690F2B7FF6A2AE00BF00BF2C
:105310002437BD465DF8047B704700BF003802406B
:105320000038014000000240000402400008024032
:10533000000C024000100240003C014080B487B0E5
:1053400000AF7860396000233B610023FB600023DD
:10535000BB6000237B61BBE001227B6902FA03F39F
:105360003B613A683B691340FB60FA683B699A42CB
:1053700040F0AB805C4A7B699B08023352F82330D3
:10538000BB607B6903F003039B000F2202FA03F367
:10539000BA681340BB607B68544A934219D07B685B
:1053A000534A934213D07B68524A93420DD07B6894
:1053B000514A934207D07B68504A934201D104235B
:1053C00008E0072306E0032304E0022302E00123B0
:1053D00000E000237A6902F0030292009340BA6869
:1053E0009A4232D1464B1A68FB68DB43444913406A
:1053F0000B60434B5A68FB68DB43414913404B60E9
:105400003F4B9A68FB68DB433D4913408B603C4B44
:10541000DA68FB68DB433A491340CB607B6903F0F1
:1054200003039B000F2202FA03F3BB602E4A7B6941
:105430009B08023352F82310BB68DA432A487B6981
:105440009B080A40023340F823207B681A687B6976
:105450005B00032101FA03F3DB431A407B681A6007
:105460007B69DA087B68083253F822107B6903F005
:1054700007039B000F2202FA03F3DB437A69D20889
:1054800019407B68083243F822107B68DA687B6930
:105490005B00032101FA03F3DB431A407B68DA6007
:1054A0007B685A6801217B6901FA03F3DB431A40E8
:1054B0007B685A607B689A687B695B00032101FA0C
:1054C00003F3DB431A407B689A607B6901337B619D
:1054D0007B690F2B7FF640AF00BF00BF1C37BD4676
:1054E0005DF8047B704700BF0038014000000240B7
:1054F0000004024000080240000C0240001002407C
:10550000003C014080B485B000AF78600B467B80E2
:105510007B681A697B881340002B02D00123FB7340
:1055200001E00023FB73FB7B18461437BD465DF892
:10553000047B704780B483B000AF78600B467B80FB
:1055400013467B707B78002B03D07A887B689A6146
:1055500003E07B881A047B689A6100BF0C37BD4664
:105560005DF8047B704780B483B000AF78600B4671
:105570007B807B685A697B881A407B889A4204D179
:105580007B881A047B689A6102E07A887B689A615A
:1055900000BF0C37BD465DF8047B704780B586B010
:1055A00000AF78607B68002B01D101235EE27B684D
:1055B0001B6803F00103002B75D0884B9B6803F038
:1055C0000C03042B0CD0854B9B6803F00C03082BB9
:1055D00012D1824B5B6803F48003B3F5800F0BD1CB
:1055E0007E4B1B6803F40033002B5BD07B685B6849
:1055F000002B57D1012339E27B685B68B3F5803F0C
:1056000006D1764B1B68754A43F4803313601DE066
:105610007B685B68B3F5A02F0CD1704B1B686F4A99
:1056200043F4802313606D4B1B686C4A43F4803352
:1056300013600BE0694B1B68684A23F480331360E6
:10564000664B1B68654A23F4802313607B685B68A4
:10565000002B13D0FEF7A2FC386108E0FEF79EFC99
:1056600002463B69D31A642B01D90323FEE15B4B4D
:105670001B6803F40033002BF0D014E0FEF78EFC1F
:10568000386108E0FEF78AFC02463B69D31A642BB6
:1056900001D90323EAE1514B1B6803F40033002BCB
:1056A000F0D100E000BF7B681B6803F00203002B11
:1056B00063D04A4B9B6803F00C03002B0BD0474B85
:1056C0009B6803F00C03082B1CD1444B5B6803F46C
:1056D0008003002B16D1414B1B6803F00203002B03
:1056E00005D07B68DB68012B01D00123BEE13B4B79
:1056F0001B6823F0F8027B681B69DB003749134302
:105700000B603AE07B68DB68002B20D0344B012231
:105710001A60FEF743FC386108E0FEF73FFC0246E2
:105720003B69D31A022B01D903239FE12B4B1B6842
:1057300003F00203002BF0D0284B1B6823F0F80283
:105740007B681B69DB00254913430B6015E0244B84
:1057500000221A60FEF722FC386108E0FEF71EFC0A
:1057600002463B69D31A022B01D903237EE11B4B6E
:105770001B6803F00203002BF0D17B681B6803F069
:105780000803002B36D07B685B69002B16D0154BC5
:1057900001221A60FEF702FC386108E0FEF7FEFB0A
:1057A00002463B69D31A022B01D903235EE10B4B5E
:1057B0005B6F03F00203002BF0D01BE0094B0022CB
:1057C0001A60FEF7EBFB38610EE0FEF7E7FB0246DE
:1057D0003B69D31A022B07D9032347E10038024063
:1057E00000004742800E4742884B5B6F03F0020384
:1057F000002BEAD17B681B6803F00403002B00F048
:1058000097800023FB75814B1B6C03F08053002BAA
:105810000FD10023BB607D4B1B6C7C4A43F080534F
:1058200013647A4B1B6C03F08053BB60BB6801238D
:10583000FB75774B1B6803F48073002B18D1744BF6
:105840001B68734A43F480731360FEF7A7FB38614B
:1058500008E0FEF7A3FB02463B69D31A022B01D9ED
:10586000032303E16A4B1B6803F48073002BF0D021
:105870007B689B68012B06D1644B1B6F634A43F026
:10588000010313671CE07B689B68052B0CD15F4B01
:105890001B6F5E4A43F0040313675C4B1B6F5B4A4C
:1058A00043F0010313670BE0584B1B6F574A23F07B
:1058B00001031367554B1B6F544A23F0040313670E
:1058C0007B689B68002B15D0FEF768FB38610AE007
:1058D000FEF764FB02463B69D31A41F288329342D9
:1058E00001D90323C2E0494B1B6F03F00203002BD5
:1058F000EED014E0FEF752FB38610AE0FEF74EFBF3
:1059000002463B69D31A41F28832934201D90323FC
:10591000ACE03E4B1B6F03F00203002BEED1FB7D8E
:10592000012B05D1394B1B6C384A23F0805313648B
:105930007B689B69002B00F09880344B9B6803F0D8
:105940000C03082B5CD07B689B69022B41D1314B47
:1059500000221A60FEF722FB386108E0FEF71EFB0A
:1059600002463B69D31A022B01D903237EE0274B61
:105970001B6803F00073002BF0D17B68DA697B6849
:105980001B6A1A437B685B6A9B011A437B689B6AAC
:105990005B08013B1B041A437B68DB6A1B061B493F
:1059A00013434B601B4B01221A60FEF7F7FA386174
:1059B00008E0FEF7F3FA02463B69D31A022B01D93D
:1059C000032353E0114B1B6803F00073002BF0D04E
:1059D0004BE0104B00221A60FEF7E0FA386108E055
:1059E000FEF7DCFA02463B69D31A022B01D90323E6
:1059F0003CE0064B1B6803F00073002BF0D134E051
:105A00007B689B69012B07D101232FE000380240FE
:105A10000070004060004742164B5B68FB60FB680B
:105A200003F480027B68DB699A421CD1FB6803F0B7
:105A30003F027B681B6A9A4215D1FA6847F6C07329
:105A400013407A68526A93420DD1FB6803F44032E6
:105A50007B689B6A9A4206D1FB6803F070627B68A0
:105A6000DB6A9A4201D0012300E000231846183770
:105A7000BD4680BD0038024080B584B000AF78607C
:105A800039607B68002B01D10123CCE0684B1B6897
:105A900003F00F033A689A420CD9654B3A68D2B2C8
:105AA0001A70634B1B6803F00F033A689A4201D0E7
:105AB0000123B8E07B681B6803F00203002B20D0B1
:105AC0007B681B6803F00403002B05D0594B9B68CF
:105AD000584A43F4E05393607B681B6803F0080363
:105AE000002B05D0534B9B68524A43F460439360AC
:105AF000504B9B6823F0F0027B689B684D49134331
:105B00008B607B681B6803F00103002B44D07B682B
:105B10005B68012B07D1474B1B6803F40033002B54
:105B200019D101237FE07B685B68022B03D07B687F
:105B30005B68032B07D13F4B1B6803F00073002BFE
:105B400009D101236FE03B4B1B6803F00203002BDC
:105B500001D1012367E0374B9B6823F003027B6888
:105B60005B68344913438B60FEF718FAF8600AE06B
:105B7000FEF714FA0246FB68D31A41F288329342C8
:105B800001D903234FE02B4B9B6803F00C027B6889
:105B90005B689B009A42EBD1254B1B6803F00F0317
:105BA0003A689A420CD2224B3A68D2B21A70204B11
:105BB0001B6803F00F033A689A4201D0012332E0D8
:105BC0007B681B6803F00403002B08D0194B9B680B
:105BD00023F4E0527B68DB68164913438B607B68D3
:105BE0001B6803F00803002B09D0124B9B6823F4B9
:105BF00060427B681B69DB000E4913438B6000F039
:105C000021F802460B4B9B681B0903F00F030A495E
:105C1000CB5C22FA03F3094A1360094B1B68184650
:105C2000FEF778F9002318461037BD4680BD00BF47
:105C3000003C02400038024040C000080C00002038
:105C4000700200202DE9B04F90B000AF00237B63BD
:105C50000023FB6300233B630023BB63594B9B681A
:105C600003F00C03082B0DD0082B00F2A180002BB1
:105C700002D0042B03D09BE0534BBB639BE0534B00
:105C8000BB6398E04F4B5B6803F03F037B634D4B76
:105C90005B6803F48003002B28D04A4B5B689B09A8
:105CA00000223B627A623B6AC3F308000021474B43
:105CB00003FB01F2002300FB03F31344434AA0FB60
:105CC0000212FA620A46BA62FA6A1344FB627B6BFA
:105CD0000022BB61FA61D7E90623D7E90A01FBF785
:105CE0003BF902460B461346FB6353E0354B5B68BA
:105CF0009B0900223B617A613B69C3F3080A4FF0BC
